:1000000000800020BD01000001B60000B9B500006D
:10001000B9B50000B9B50000B9B50000B9B5000028
:10002000B9B50000B9B50000B9B5000001B60000CF
:1000300001B60000B9B50000B1D8000001DB000036
:1000400001B6000001B6000001B6000001B60000D4
:1000500001B6000001B6000001B6000001B60000C4
:1000600001B6000001B6000001B6000001B60000B4
:1000700001B6000001B6000001B6000001B60000A4
:1000800001B6000001B6000001B6000001B6000094
:1000900001B6000001B6000001B6000001B6000084
:1000A000755C000001B6000001B6000001B600005A
:1000B00001B6000001B6000001B6000001B6000064
:1000C00001B6000001B6000001B6000001B6000054
:1000D00001B6000001B6000001B6000001B6000044
:1000E00001B6000001B6000001B6000001B6000034
:1000F00001B60000E9C1000001B60000A9E6000059
:1001000001B60000D5E7000001B6000001B600000E
:1001100001B6000001B6000001B6000001B6000003
:1001200001B6000001B6000001B6000001B60000F3
:1001300001B6000001B6000001B6000001B60000E3
:1001400001B6000001B6000001B6000001B60000D3
:1001500001B6000001B6000001B6000001B60000C3
:1001600001B60000A9C4000001B6000001B60000FD
:1001700001B6000001B6000001B6000001B60000A3
:1001800001B6000001B6000001B6000001B6000093
:1001900001B6000001B6000001B6000001B6000083
:1001A00001B6000001B6000001B6000001B6000073
:1001B00001B6000001B600003DD60000564B4CF2DF
:1001C000205210B51A804DF628121A8000BF00BFC9
:1001D00000F08AFB514B4FF010621A60504A9A604F
:1001E000504ADA60504A136813F4807304D14F49BF
:1001F0000B604FF4A85313604D4B1A78110703D5C9
:100200001A7842F008021A704A4B4B492A221A7097
:100210004A4A4B4B8B4204D252F8040F43F8040B6A
:10022000F8E7484B484900228B4202D243F8042B9E
:10023000FAE74649464A002352F8230041F82300D2
:1002400001336F2BF8D1434B434A802103F8011B44
:100250009342FBD1414B3D4A1A60414B8A221A70AE
:10026000A3F5805324225A70A0221A709A7992071B
:10027000FCD59A79D406FCD43A4A937903F00C035E
:10028000082B384BF9D105221A7143225A719A79F9
:100290009006FCD5334A9179324B4906FBD5324A58
:1002A0004FF0817111600521516020221A709A79F6
:1002B00002F00C020C2AFAD12C4B2D4A1A602D4B5D
:1002C0002D4A1A6000225A60072243F8042C2B4A58
:1002D000C3F80C2D62B60BF0B5FA144B1B68DA07A5
:1002E00005D527480BF09CFA264B274A1A60274B66
:1002F0001B785B0609D5234C234B22689A4204D114
:100300001F480BF08DFA0023236010F035FD0BF031
:100310007BF90EF0D1F8FEE70E2005403080044056
:10032000823F04000100002B10D0034014D0034092
:1003300002D0074000E00740E8FFFF1F288F0200BF
:1003400020EFFF1FE8FFFF1F9814002000EAFF1FA7
:100350000000000000E400E05FE400E008ED00E0E1
:1003600000500640004006404480044004800440A1
:10037000C010050014E000E03F190100000020203B
:100380007B3D0E5C1CE00340A5C3945A00F007407F
:10039000FFFFFFFFFFFFFFFFFFFFFFFFFFFFFFFF6D
:1003A000FFFFFFFFFFFFFFFFFFFFFFFFFFFFFFFF5D
:1003B000FFFFFFFFFFFFFFFFFFFFFFFFFFFFFFFF4D
:1003C000FFFFFFFFFFFFFFFFFFFFFFFFFFFFFFFF3D
:1003D000FFFFFFFFFFFFFFFFFFFFFFFFFFFFFFFF2D
:1003E000FFFFFFFFFFFFFFFFFFFFFFFFFFFFFFFF1D
:1003F000FFFFFFFFFFFFFFFFFFFFFFFFFFFFFFFF0D
:10040000FFFFFFFFFFFFFFFFFFFFFFFFDEF9FFFF23
:1004100010B5054C237833B9044B13B10448AFF33E
:1004200000800123237010BDE8FFFF1F00000000C3
:10043000248F0200084B10B51BB108490848AFF3E0
:1004400000800848036803B910BD074B002BFBD0A0
:10045000BDE81040184700BF00000000ECFFFF1F80
:10046000248F0200E8FFFF1F0000000000207047FB
:10047000704700BF027C02F0080202F0FF0332B1B5
:10048000C36A406A181A48BF6FF0004070471846A8
:10049000704700BFF8B55548554D564C297803783C
:1004A0002278DFF868E1544F544E120442EA0323E5
:1004B000FF222A700270802022708EF800003870AF
:1004C000B2794F480B4312F00C0FC36002D1B379DD
:1004D000DC063DD4494A9379C3F38103032B40D012
:1004E000464B9A79C2F38102022A42D0434A937959
:1004F000C3F38103022B53D0404A9379C3F38103A2
:10050000022B61D03D4A9379C3F38103012B51D073
:100510003A4A9379C3F38103012B5CD0374B9A7924
:1005200012F00C0F03D19A79D20600D49B79354D85
:10053000354B2A7853F82240D4B1236820469B6873
:1005400098472B7804EB83046468002CF5D1F8BD40
:10055000B3799806EBD5294A9379C3F38103032B2A
:10056000BED19379D906BBD493799B06DFD4B7E784
:10057000F8BD9A79D706B9D49A799606B6D559783E
:1005800001F0020101F0FF020029AFD120211A7011
:100590001A461970937903F00C030C2BFAD1C6E7B5
:1005A0009379DD06A8D493799C06A5D4537898074F
:1005B000BDD5A1E79379DF06AAD593799E06A7D486
:1005C00053789D07B3D4A3E79379D9069AD4537887
:1005D0009B07ACD496E79379DC069FD59379980670
:1005E0009CD453789907A2D598E700BF06C007406E
:1005F00005C0074007C0074009C00740004006404B
:100600007014002030110020F010002008C00740B6
:1006100090F92410104B03604B1C06D0F0B40F4E21
:1006200056F82130984201D0F0BC70470C4F57F873
:10063000213033B18D0000245A1953685460002BC7
:10064000FAD1084C23780022013B237047F821207F
:1006500046F82120E8E700BFCC80010010110020FF
:10066000F01000203111002038B590F924506B1C97
:100670001BD00E4B0E4953F825400E4BEDB24FF0F8
:10068000FF320D701A6084B1AD0002E02C44646842
:100690005CB194F82530002BF8D0236820462C4418
:1006A0001B6898476468002CF3D138BDF010002017
:1006B0003011002090E9FF1F704700BF90F924100F
:1006C000104B03604B1C06D0F0B40F4E56F821308F
:1006D000984201D0F0BC70470C4F57F8213033B12D
:1006E0008D0000245A1953685460002BFAD1084C2D
:1006F00023780022013B237047F8212046F821206F
:10070000E8E700BFCC80010010110020F0100020AD
:100710003111002090F92410104B03604B1C06D0BF
:10072000F0B40F4E56F82130984201D0F0BC70471B
:100730000C4F57F8213033B18D0000245A195368FB
:100740005460002BFAD1084C23780022013B23701F
:1007500047F8212046F82120E8E700BFCC800100BF
:1007600010110020F010002031110020083006F098
:10077000D3B800BF103006F0CFB800BF00B583B0CB
:1007800002AB012203F8011D1030194606F0C4F82F
:1007900003B05DF804FB00BF00B583B002AB0122DB
:1007A00003F8011D0830194606F0B6F803B05DF8ED
:1007B00004FB00BF2DE9F0410E4680460BF02AF8FD
:1007C000174D286008F0A6FA0746286808F07EFA58
:1007D0000446286808F068FA6401C0B204F4FF54C3
:1007E000BFB20443A7F2BC7744EA4724A8F800400C
:1007F000286808F07DFA0746286808F031FA0446B0
:10080000286808F03FFAFF02640107F4FF2704F4A8
:10081000FF54C0F346003C4304433480BDE8F081FC
:10082000A8000020103005F053BF00BF00B583B012
:1008300001220DF10701103005F084FE01280CBFE4
:100840009DF807004FF0FF3003B05DF804FB00BFD8
:10085000103006F013B800BF083006F00FB800BF24
:1008600030B5164CADF5017D204604F06DFF4FF418
:10087000807501462A4668460AF004FC204604F0CA
:1008800081FF204604F060FF2A4601460DEB05007B
:100890000AF0F8FB204604F075FF69464FF4007239
:1008A000074806F039F80748074902680B68013223
:1008B000013302600B600DF5017D30BD7C05002029
:1008C000C80F0020E00700202010002010B50446CB
:1008D00011F096F921460246BDE8104001480DF09E
:1008E0008DB900BF80060020464A474B102010807B
:1008F0001B781B0734D5F0B5444E454D454C317837
:100900002B782278DFF82CE1434F824042EA032320
:100910000B43FF22802132702A7022708EF8001063
:100920003970D9073D4A14D51A2393603C4F3D4E88
:100930003D4D3E4C3E49107900233B7053709370FF
:10094000D370D360337013712B70237013700870E1
:10095000F0BD1F0705D4DE0606D504239360E5E746
:10096000704721239360E1E79D0604D45C0604D51B
:1009700016239360DAE79060D8E7180602D50923BA
:100980009360D3E7D90502D50A239360CEE79F058C
:1009900002D50D239360C9E75E0502D50B23936052
:1009A000C4E71D0502D51E239360BFE7DC0402D512
:1009B00002239360BAE7980402D507239360B5E752
:1009C000590402D506239360B0E71F0402D515230E
:1009D0009360ABE7DE0302D524239360A6E79D0373
:1009E00002D522239360A1E7DC0202D52523936080
:1009F0009CE71803F5D45903F3D49B0244BF232387
:100A0000936093E70020054002D0074005C00740EF
:100A100006C0074007C0074009C007407014002007
:100A200000C0074001C0074002C0074003C00740A4
:100A300004C0074008C00740002976D02DE9F04FD8
:100A40000C469100631883B05D68002D57D06B1879
:100A50005E68002E50D073185F68002F49D07B1855
:100A6000D3F80480B8F1000F3CD008EB0103D3F8B1
:100A70000490B9F1000F32D009EB0103D3F804A0C0
:100A8000BAF1000F27D00AEB0103D3F804B0BBF191
:100A9000000F18D00BEB01035B6863B1194401939D
:100AA0004968FFF7C9FF019B93F825201AB11A681E
:100AB0001846536898479BF8253023B1DBF800307F
:100AC00058465B6898479AF8253023B1DAF8003029
:100AD00050465B68984799F82530002B35D198F837
:100AE000253063BB97F825301BB13B6838465B68FF
:100AF000984796F82530CBB995F8253063B994F826
:100B0000253013B903B0BDE8F08F23685B68204639
:100B100003B0BDE8F04F18472B6828465B6898473C
:100B200094F82530002BEDD0EFE77047336830465E
:100B30005B68984795F82530002BE0D0ECE7D8F8B3
:100B4000003040465B689847CCE7D9F8003048460B
:100B50005B689847C3E700BF90F92420531C26D058
:100B60001B4B2DE9F04153F82240D2B2ECB1930077
:100B7000E1184D68B5B1E9184E6866B1F1184F68D3
:100B800037B13B445968FFF757FF97F82530A3B9B1
:100B900096F8253063B995F825301BB12B682846A7
:100BA0005B68984794F8253063B9BDE8F0817047D9
:100BB000336830465B689847EDE73B6838465B68CA
:100BC0009847E5E7236820465B68BDE8F041184791
:100BD000F010002070B5104C104D11480D210CF094
:100BE000D5FA20460DF0D6F82E880E4810210CF0CC
:100BF000CDFA314620460DF053F820460DF0CAF8E4
:100C0000094A0A4B12882A80002283F8F6200848F5
:100C1000BDE8704005F03EBA88F5FF1FF4120020D1
:100C2000E4800100F48001001C1300207C050020FA
:100C3000C80F00202DE9F04F99B00AF0EBFDBB4C36
:100C4000BB4D206008F042F82B68DFF848938342E0
:100C500040F0A88199F80030002B40F0A3810DF1FD
:100C60002C0A002110200AF017FF206808F052F823
:100C70000546206808F02AF80990206808F014F862
:100C80000646206808F034F80746206807F0E8FFB9
:100C90008046206807F0F6FFA64A834610680FF0EA
:100CA0002BF8099BA44A0093CDE906012B46059237
:100CB000CDF810B0CDF80C80029701969F4AA0495C
:100CC000A04810F0CFFE002519E0206807F0ECFFE7
:100CD0000646206808F00CF88046206807F0C0FF40
:100CE0000746206807F0CEFFCDF8008002900197FC
:100CF00033460395914A9449924810F0B3FE00267A
:100D00000123904A91498DF82C6050468DF82D6052
:100D100005F078FB01350028D7D1804689488C4FF3
:100D20008C4E8D4DDFF870B210F06AFF0146854899
:100D30000CF02CFA89480DF02DF84FF47A74C22388
:100D4000804A82490D940FA88DF83C808DF83D8033
:100D50008DF830808DF838800B9705F053FB0DF13E
:100D60003C0EBEE80F0006F110040FC4BEE80F00F1
:100D70000FC4DEF800100D9A9DF830E09DF8383071
:100D8000216086F804E0B26033730D2174480CF0E2
:100D9000FDF9317C7148003118BF01210CF080FF52
:100DA0006E480CF0F7FF344640E02B686D4965480B
:100DB00001331A462B6010F055FE624810F020FFF8
:100DC000014660480CF0E2F964480CF0E3FF4FF490
:100DD0007A7EC2235B4A5D49CDF834E00FA88DF8D6
:100DE0003C808DF83D808DF830808DF838800B97F1
:100DF00005F008FB0DF13C0CBCE80F00DFF884E1C6
:100E0000AEE80F00BCE80F00AEE80F009DF83830E8
:100E100023732B68DCF800009DF830100D9ACEF893
:100E20000000B3F57A7F2171A26043DC96F8108050
:100E3000B8F1000FB9D04C484C4907684C4C4D4AAA
:100E40004D4B4E4D03C9206092E80300A06093E82B
:100E5000030010260123A382E382E0602661384666
:100E60000FF0E0FD3946A06138460FF0E7FA0FF0C9
:100E7000D9FD434AE0612B68668492E803005B0277
:100E800003F124062C226062214602273D48A3621A
:100E90002784666005F040FD09213B480CF076F997
:100EA00029682E480CF0FCFE2C480CF073FF19B09A
:100EB000BDE8F08FDFF8E480D8F800300133042B70
:100EC000C8F8003000F09980DFF8D4802F4A08F588
:100ED0008C6A12F82320504608F26C414FF03843D8
:100EE00006F07CFF0028A1D008F23C40C8F800A022
:100EF00005F0D0F80121404606F074FE002875D0B8
:100F0000DFF89C8008F23C4A5046414605F0FAFA68
:100F100000288BD098F83C3413F0700F86D01C4A10
:100F20000123C2F800A089F800307FE7A800002064
:100F3000100700206C000020BC000020FC0F0020E7
:100F400020810100040000204C81010030050020B8
:100F500090800100B80F0020FC07002088F5FF1FDB
:100F600068810100788101002CF0FF1F848101005D
:100F7000740000208C81010094810100E4060020AF
:100F80009C810100C80F0020A4810100A40F002053
:100F9000E8100020840F00200CED00E0B0000020DD
:100FA000F40000200A210026194889F800600CF09E
:100FB000EDF818480CF0EEFE206807F087FE286078
:100FC000206807F0A7FE0DF12C0A2B681249024693
:100FD000124810F047FD50460123104A10498DF881
:100FE0002C608DF82D6005F071F93AE60146404617
:100FF00006F0F8FD002883D118E7012114200AF03B
:1010000075FA084BCBF80030D8F800305CE700BF29
:101010000881010088F5FF1F14810100FC0F0020EA
:10102000300500200400FA052DE9F047414C424DFF
:101030002268424855F822301021013B45F8223001
:101040000CF0A4F823683E4855F823100A22002328
:101050000CF0C2FE3A480CF09DFE236855F82320A0
:10106000002A52D10133DFF8FC9023600122042BC7
:1010700089F8002026D0DFF8E880324E08F58C6A27
:10108000314916F82320A1F10C004FF0384306F047
:10109000A5FEF8B91E212D48264F0CF077F82168DF
:1010A000274801310CF0FCFD25480CF073FE236845
:1010B00055F82320012101333ABB042B3B6089F80A
:1010C0000010DDD10E2122480CF060F81C480CF015
:1010D00061FEFEE71F4FC8F800A0384604F0DAFFB3
:1010E0000121A7F23C4006F07DFD0146D8B1A7F2F0
:1010F0003C41384605F006FA0028CBD098F83C343D
:1011000013F0700FC6D0144B1F600E2113480CF063
:101110003DF821680A4801310CF0C2FD0848BDE8DD
:10112000F0470CF037BE0E4806F05CFD0028DED11B
:10113000B0E700BFB0000020140700203C8201008F
:1011400088F5FF1FA40F00206005002070820100B9
:101150005082010030050020E8100020608201006C
:10116000F4000020840F0020F0B5092187B0294841
:10117000294D2A4E0CF00AF829480CF00BFE0BF012
:101180000DF8012127480AF02BFF0AF08DFF2B688C
:101190000093009A326005E00AF0A4FF0A28044692
:1011A0000AD032682B680193019B1B4F9B1A632B5B
:1011B000F2D9002007B0F0BD024603A91A480CF08E
:1011C000EBFF03A80FF0C8FD0D21054617480BF0F3
:1011D000DDFF3B6802930299336811482246C91A21
:1011E00000230CF0F9FD0E480CF0D4FD2146104808
:1011F0000BF0CCFF29460A480CF052FD08480CF0D1
:10120000C9FD28460AF00CFB0A4B28461D6007B0B2
:10121000F0BD00BF9082010058110020700700202F
:1012200088F5FF1F5C83010078F5FF1F9C82010099
:10123000AC82010008070020F0B587B072B62549DE
:10124000254B264841250E2480220D700470194636
:101250001A700B78204A1806FBD5214B21491D78BE
:10126000214C22480D70033B247800781B78CB700A
:101270004C70887062B672B61648184C41260F251D
:101280008023067025701046137003781B06FCD56A
:10129000134C1548154A164B2478007812781B78A1
:1012A000CB710C7148718A7162B64B780A78CF792C
:1012B0008E794D790C79C8788978009101900597DD
:1012C0000496039502940B490B4810F0CBFB07B032
:1012D000F0BD00BF070002400000024006000240CF
:1012E0000B000240880F00200A0002400900024063
:1012F00008000240B8820100BC0000202DE9F04740
:101300000A2182B03448354C354D0BF03FFF35484B
:101310000CF040FD04F1100A54F8046B32493046D9
:101320000FF050FB00284FD028680FF03BF9014622
:1013300030460FF03FFA0EF0DFFC0EF06DF82B4B4D
:10134000064618680F460EF0D7FC0EF065F800222E
:1013500080468946264B304639460EF021FD002254
:1013600006460F46234B404649460EF019FD0246FD
:101370000B46304639460EF05FFB0FF009F81E4B66
:1013800019680FF059F81D4B19680FF055F80EF059
:10139000B3FC022602460B46009612480CF078FD7C
:1013A00010480CF0F7FCA245B6D10A2114480BF006
:1013B000EDFE144B0B4819680CF072FC094802B0A2
:1013C000BDE8F0470CF0E6BC28680FF0EBF80146EA
:1013D00030460FF0EFF9DAE7DC820100F806002072
:1013E0000808002088F5FF1FACC52737B40000208F
:1013F000000034400000244020F0FF1F6C0000205B
:10140000E8820100740700202DE9F04D4649474865
:10141000474DDFF850A1DFF850B1DFF8508182B0BE
:101420000CF01EFF434B414819680CF0DDFF00240F
:1014300055F8046B404930460FF0C4FA002860D0DC
:101440003E4B18680FF0AEF8014630460FF0B2F987
:101450000EF052FC0DF0E0FF0646DAF800000F46F1
:101460000EF04AFC0DF0D8FF0022CDE90001344B0C
:10147000304639460EF094FC002206460F46314BAA
:10148000DDE900010EF08CFC02460B463046394681
:101490000EF0D2FA0EF07CFFDBF800100EF0CCFF5D
:1014A000D8F800100EF0C8FF0FF096FA264906464D
:1014B0001E480CF007FF21461C480CF047FF23494B
:1014C0001A480CF0FFFE0134314618480CF03EFF7C
:1014D000042CADD11E4915480CF0F4FE1D4B1348E9
:1014E00019680CF033FF1C4910480CF0EBFE0F4953
:1014F0001A480CF097FB194802B0BDE8F04D0CF00B
:1015000049BCDAF800000EF0F7FB0DF085FF002271
:101510000C4B0EF045FC02460B46002010490EF025
:101520008BFA0EF035FFB7E7048301006805002051
:10153000F8060020A8000020ACC5273708080020C6
:1015400000003440000024400C83010008830100A7
:1015500010830100740700201883010088F5FF1F25
:10156000000058C0B400002020F0FF1F6C000020D5
:101570002DE9F0438FB0044610F042FB00B2012881
:1015800018DDB4F9003044F65212934200F07D8128
:1015900014DC44F25242934200F06B8144F25372E5
:1015A000934207D10BAAE01CC04910F081FAC04B4E
:1015B0000B9A1A6001200FB0BDE8F08344F6545234
:1015C000934200F0AA8045F253229342F2D10AAD31
:1015D00009A908AA05ABE01C0395029101920093AA
:1015E00007AA06ABB34910F063FAB34B079D5968DD
:1015F00018689A680A9EDDF824E0DDF820C0A5F599
:10160000FA65ADB20BAF2CB207C7069F05991E3421
:1016100015F0030F4FEAA408FDB240F04581A74B37
:10162000022D8CBF1F460027A548A64BC8EB04041B
:1016300000FB08F06A1E03FB0400002A00EB07030E
:1016400047DD9DF82C409D48012A00FB043340D023
:101650009DF82D40022A00FB04333AD09DF82E401D
:10166000032A00FB043334D09DF82F40042A00FBEA
:1016700004332ED09DF83040052A00FB043328D0D7
:101680009DF83140062A00FB043322D09DF83240F9
:10169000072A00FB04331CD09DF83340082A00FBC6
:1016A000043316D09DF83440092A00FB043310D0CF
:1016B0009DF835400A2A00FB04330AD00B2A9DF816
:1016C000364018BF9DF8372000FB043318BF00FBDD
:1016D00002335FFA8EF2C2EB02125FFA8CF04FF423
:1016E0006164920004FB0022744D774C7748C9B2C4
:1016F000013952FA86F205FB0122134412212360BC
:101700000BF044FD216872480CF0CAFA70480CF0E6
:1017100041FB01200FB0BDE8F0830AAD09A908AA7A
:1017200005ABE01C039502910192009307AA06AB5A
:10173000604910F0BDF9604B079F9A6818685968B6
:101740000A9EDDF824E0DDF820C0A7F5FA67BFB2F5
:101750000BAC3DB207C4069A059C1E3517F0030F6B
:101760004FEAA508D7B240F09C80544B022F8CBFA3
:1017700099464FF000095249524BC8EB050501FB51
:1017800008F17A1E03FB0510002A00EB090347DD70
:101790009DF82C004949012A01FB003340D09DF8F7
:1017A0002D00022A01FB00333AD09DF82E00032AB7
:1017B00001FB003334D09DF82F00042A01FB0033D5
:1017C0002ED09DF83000052A01FB003328D09DF86B
:1017D0003100062A01FB003322D09DF83200072A8F
:1017E00001FB00331CD09DF83300082A01FB0033B5
:1017F00016D09DF83400092A01FB003310D09DF863
:1018000035000A2A01FB00330AD00B2A9DF8360066
:1018100018BF9DF8372001FB003318BF01FB0233CE
:101820005FFA8EF2C2EB02125FFA8CF04FF4616540
:10183000920005FB0022E1B2204C234D52FA86F2C1
:10184000013904FB01241C4420462C6009F0E8FF08
:101850000B2120480BF09AFC214600230A221C4849
:101860000CF0BAFA1A480CF095FA01200FB0BDE856
:10187000F0830BAAE01C0D4910F01AF9164B0B9AD5
:101880001A6001200FB0BDE8F0830BAAE01C0749E5
:1018900010F00EF9114B0B9A1A6001200FB0BDE841
:1018A000F0834FF0000966E70027BDE63C830100A6
:1018B0000CF0FF1F1C830100D88001008051010043
:1018C0000085E2018033E1017007002040830100C0
:1018D00088F5FF1F3083010034F0FF1F7C0F0020CC
:1018E0002DE9F043A3B000254FF47A766E4F6F4A8E
:1018F0006F490A96012319A817968DF830508DF874
:1019000031508DF824508DF82C508DF864508DF89E
:1019100065508DF858508DF860500897159704F071
:1019200071FD0DF1640EBEE80F000CAE0FC6BEE8EF
:101930000F000FC69DF83080DEF800109DF85800AB
:10194000179A9DF8603031608DF824000A928DF866
:101950002C30B8F1000F46D02E468DF800604FF0C5
:1019600000094FF0FF08012215A90CA804F0EAFDB8
:1019700009F1010322AA01284A441BB224D01D2BDD
:1019800002F8888C05DC9946EDE71D2B01DC0A2A5C
:10199000F9D1013B9BB222AA1A4402F8886C9DF847
:1019A00000202F2A04D0012B02D96846FFF7E0FD62
:1019B0009DF830301B0711D40CA804F06BFB2DBB35
:1019C000012023B0BDE8F0839DF854200D2A08BF04
:1019D0004B465AD11D2BDCDC9946C4E7139A119B68
:1019E0009A42BAD1E8E7142132480BF0CFFB3248D3
:1019F0000CF0D0F90D22314931480CF0FFF8304895
:101A00000CF0C8F9404623B0BDE8F0830B212D4807
:101A10000BF0BCFB214600230A2227480CF0DCF91E
:101A2000002525480CF0B6F94FF47A768DF864500D
:101A30008DF865508DF858508DF8605063231B4A1F
:101A40001B49179619A819AD159704F0DBFC0FCDAB
:101A50000CAE0FC60FCD0FC62968179A9DF86030DF
:101A60009DF8585031600CA821460A928DF82C3010
:101A70008DF8245004F060FE022213490CA804F0F3
:101A80004BFF0CA804F006FB9AE722AB03EB09011D
:101A9000542A09F1010301F8882C1BB27FF475AFB9
:101AA000119C0546013C95E790800100548301009C
:101AB000300500207083010088F5FF1F8883010036
:101AC00080060020608301006C83010030B583B084
:101AD00002AD079C05F8082D8DF80200069A8DF8D6
:101AE00004304E3428468DF801108DF805208DF80D
:101AF000064007F023F909F093FE09F08BFE024B34
:101B0000186003B030BD00BFA000002010B5094C24
:101B1000204608F0D5FE2046012108F0F7F82046BF
:101B2000022108F0EDF8002220461146BDE81040E1
:101B300008F0E2B88006002038B5054607F0EAF85C
:101B40001E4C014620460CF0ABF82D200BF0F2FBAA
:101B5000284607F0BBF8014620460CF0A1F82D20DE
:101B60000BF0E8FB284607F09FF8014620460CF0F2
:101B700097F8012112480BF009FB284607F0B8F846
:101B8000014620460CF08CF83A200BF0D3FB284697
:101B900007F066F8014620460CF082F83A200BF078
:101BA000C9FB284607F06EF8014620460CF078F88D
:101BB0002046BDE838400CF0EDB800BF88F5FF1FA7
:101BC000C88401002DE9F043434A444BDFF81891E3
:101BD000DFF81881424D98F80010167899F80070D7
:101BE0001A78286883B03C2313FB071713FB0626DB
:101BF00007F07EF80446286807F032F8C4EB0414B6
:101C000000EB8404286807F085F800F14E0328688B
:101C10008DF8063007F05AF88DF80500286807F0AF
:101C200043F8B7428DF8040006D2A74232D8A64244
:101C300030D303B0BDE8F083A742FAD9A642F8D268
:101C400002A8002399F8002000F8083D98F8003019
:101C50008DF801308DF8022007F070F80F21286010
:101C600020480BF093FA2868FFF766FF09F0D2FDD1
:101C70002B68984204D903F5A83303F5C0732B6091
:101C80000F2118480BF082FA2868FFF755FF03B0C0
:101C9000BDE8F08302A8002399F8002000F8083D71
:101CA00098F800308DF801308DF8022007F046F8E2
:101CB0000F2128600B480A4C0BF068FA2868FFF7E0
:101CC0003BFF09F0A7FD2B688342D9D203F5A83367
:101CD00003F5C0732360D3E7F9070020F80700205D
:101CE00070070020988301000C1000200C080020D1
:101CF00010B5002009F0A4FB1E4C2070012009F053
:101D00009FFB6070022009F09BFBA070032009F08C
:101D100097FB194BE07022681A60042009F090FBD1
:101D20002070052009F08CFB6070062009F088FB0C
:101D3000A070072009F084FB104BE07022681A6045
:101D4000082009F07DFB0E4B1870092009F078FB84
:101D50000C4B18700A2009F073FB0B4B18700B200A
:101D600009F06EFB094B18700C2009F069FB084B59
:101D7000186010BDAC00002034F0FF1F7C0F002065
:101D80000C1000200C080020F9070020F8070020A4
:101D900068000020214B10B51968214C00202160FB
:101DA000C9B209F0A3FB6178012009F09FFBA1787B
:101DB000022009F09BFBE178032009F097FB194B07
:101DC000196821600420C9B209F090FB61780520F0
:101DD00009F08CFBA178062009F088FBE178072048
:101DE00009F084FB104B0820197809F07FFB0F4B9A
:101DF0000920197809F07AFB0D4B0A20197809F0AF
:101E000075FB0C4B0B20197809F070FB0A4B0C206A
:101E10001978BDE8104009F069BB00BF34F0FF1F1E
:101E2000AC0000207C0F00200C1000200C080020CB
:101E3000F9070020F8070020680000202DE9F04F86
:101E40000546DFF87C82974E974F98F800E02E60A9
:101E5000FF2085F82400DFF86C92387859F820C00C
:101E60000023BEF1060F8DB00C4685F8253085F8AD
:101E700026309CBF88F800309E46BCF1000F00F071
:101E8000A8808C455BD06346810001E09C4256D01F
:101E90000B445B68002BF9D1634603EB010ADAF8C7
:101EA0000430002BF9D105EB010BCAF80440BEF158
:101EB000060F4FF0FF044FFA80FACBF804308DF88C
:101EC0002C4002968DF82D308DF82E3085F824A008
:101ED000644605D8002388F80030002C00F0A98063
:101EE000A24226D0234601E0934222D00B445B68F5
:101EF000002BF9D104EB010CDCF80440002CF9D1E3
:101F0000CCF804200CAB19440024431CBAF1FF3F69
:101F100041F8244C3B708DF82CA0029605D0634903
:101F200051F82A3002AA934272D028460DB0BDE87B
:101F3000F08F0130387028460DB0BDE8F08F0023D7
:101F4000FF21BEF1060F02968DF82C108DF82D3072
:101F50008DF82E3001D888F800309445E9D06346DA
:101F6000810001E09A42E4D00B445B68002BF9D178
:101F70008C44DCF804402CB1A4468C44DCF80440CA
:101F8000002CF9D10CAB19444FFA80FE431CBEF172
:101F9000FF3FCCF804203B7041F8244C02968DF8AA
:101FA0002CE0C2D0414951F82E3002AA9342BCD154
:101FB00059F82E304FEA8E0623B19A1953685460AF
:101FC000002BFAD10023387049F82E3041F82E301A
:101FD000ABE7B0B38100DFF8D4A049F8204005EBAF
:101FE000010C00234AF82050BEF1060FCCF8043053
:101FF0004FFA80FA4FF0FF0C02968DF82D308DF8D5
:102000002E3085F824A08DF82CC07FF663AF64E7EE
:1020100059F82A304FEA8A0623B19A195368546056
:10202000002BFAD10023387049F82A3041F82A30C1
:102030007BE7F0B11D4B49F8202002AA43F820208D
:1020400060E71B491B480B68019243F080630B60FB
:102050000368194923F080430360152009F00EFB43
:10206000164B98F800E0019A4FF400111960387887
:10207000B0E70F4C0F482368019243F08063236060
:1020800003680D4923F080430360152009F0F6FA38
:102090000A4B019A4FF40011196038784FFA80FA10
:1020A0008100C7E7CC800100311100201011002011
:1020B00004700440007004409504000000E100E05A
:1020C00094E9FF1FF01000202DE9F84FAA4CAB4E09
:1020D000AB4F09F06DF90421AA4808F0DDFB226836
:1020E00037600023737233613372F3600AB93CE1E5
:1020F0001A465369002BFBD15661A34DA34B9F4851
:1021000033604FF00008C6F81480A6F80480A6F8E3
:10211000068003F081F9012005F22472434641460E
:102120002F6085F80880C5F80C8068722A61AE4679
:1021300001E0DEF8102042F823106A7A9248013359
:102140009A42F6DC22688C4B0AB910E11A465369B0
:10215000002BFBD155614FF000088D49DFF8BCE240
:102160002960424601234FF480718A48C5F81480E3
:10217000A5F80480A5F80680C5F818E185F8218740
:1021800085F822870CF0E4FF834AC5F81C814FF0E4
:10219000010E02F118011760082782F809E0434692
:1021A000404682F80880C2F80C801161964685F896
:1021B000207701E0DEF8101041F82300517A764FC5
:1021C00001339942F6DC21686B4B09B9D1E019461D
:1021D0004B69002BFBD14A61704B71495A60002456
:1021E00054619480D480184682F8F440C2F8F040DC
:1021F00082F8F540116082F8F6401E601C725C7235
:10220000DC600BF0EBF9674B674F1C7218461E60E1
:102210005D605C72DC600BF0E1F9644B644A654D13
:102220006548DFF8FCE1DC71642683F83C4483F800
:102230003D4483F86A4483F86064C3F86C045F4EDD
:10224000C2F800E00A2339681472547214712E60C7
:102250002B724FF087400EF0ADFA594D594B5A4E44
:1022600018604FF0FF09594B85F825404FF00108E1
:1022700085F82490564A57496C632846AC6385F824
:102280003C402B6085F826800EF060FD524B86F8AE
:10229000249086F825404E4A50493360304686F8EF
:1022A000274086F8284086F826800EF04FFD2A4603
:1022B00031464B48DFF86CB1DFF86CA1DFF86C9168
:1022C000DFF86C81FFF7BAFD4649414A44480EF0F9
:1022D0003DFD454A454B10681C744FF47A729A6074
:1022E000434A1A605C741C711C730EF05BF9014662
:1022F0003868404F0EF05EFA3F4B05461D60294698
:102300003E480EF057FA3E4B06461E6029463D48B1
:102310000EF050FA0EF060FB2946CBF800003A4868
:102320000EF048FA0EF058FB2946CAF8000037486C
:102330000EF040FA0EF050FB3146C9F80000344868
:102340000EF038FA0EF048FBC8F8000030460EF0E8
:1023500043FB214638602F480BF04EFF1C4A2E49A4
:102360002C48BDE8F84F0EF0F1BC2660C5E61860B9
:10237000F1E61F6030E700BFF01200208007002068
:10238000848001008006002018080020A888010031
:1023900080880100400F00207C050020D400002030
:1023A000B4880100E40000202CF0FF1FF40000209E
:1023B000500F0020EC070020000002388C8801003C
:1023C00030070020240700209C070020A08901007E
:1023D000FCEFFF1FBD060000B489010015070000D7
:1023E000BC0600201106000028F0FF1FB80F0020D7
:1023F0009080010078060020B400002000007A449C
:10240000B800002000409C4500007A460000FA43D6
:10241000000096436805002051E200007886010024
:10242000B48001001C1000200C070020DC070020F5
:10243000B806002010B5E94C0A21204603F076FDCD
:102440002046002103F04AFB2046302103F046FBE2
:102450002046402103F042FB6021204603F03EFB72
:10246000204603F075FD20460A2103F05FFD20465B
:10247000002103F033FB2046262103F02FFB2046EA
:10248000002103F02BFB6C21204603F027FB2046A4
:1024900003F05EFD20460A2103F048FD204600219E
:1024A00003F01CFB2046282103F018FB20460121E5
:1024B00003F014FBF021204603F010FB204603F04C
:1024C00047FD20460A2103F031FD2046002103F09C
:1024D00005FB20462A2103F001FB2046002103F0E2
:1024E000FDFA0021204603F0F9FA204603F030FD02
:1024F00020460A2103F01AFD2046002103F0EEFADF
:1025000020462C2103F0EAFA20460F2103F0E6FAD8
:102510002221204603F0E2FA204603F019FD20466E
:102520000A2103F003FD2046002103F0D7FA2046DC
:102530003C2103F0D3FA2046442103F0CFFA462190
:10254000204603F0CBFA204603F002FD20460A2184
:1025500003F0ECFC2046002103F0C0FA20462421C1
:1025600003F0BCFA2046012103F0B8FA37212046D7
:1025700003F0B4FA204603F0EBFC20460A2103F0F6
:10258000D5FC2046002103F0A9FA2046302103F0B3
:10259000A5FA2046002103F0A1FAAB21204603F062
:1025A0009DFA204603F0D4FC20460A2103F0BEFC2D
:1025B0002046002103F092FA2046022103F08EFA11
:1025C0002046002103F08AFA6321204603F086FAB0
:1025D000204603F0BDFC4FF4C87009F099FA20467C
:1025E0000A2103F0A3FC2046002103F077FA2046DD
:1025F0002E2103F073FA2046192103F06FFA00210F
:10260000204603F06BFA204603F0A2FC20460A2184
:1026100003F08CFC2046002103F060FA20460421E0
:1026200003F05CFA2046002103F058FA042120460A
:1026300003F054FA204603F08BFC20460A2103F0F5
:1026400075FC2046002103F049FA2046062103F0DC
:1026500045FA2046012103F041FA3021204603F0DB
:102660003DFA204603F074FC20460A2103F05EFC8C
:102670002046002103F032FA20460A2103F02EFA08
:102680002046002103F02AFA0021204603F026FA12
:10269000204603F05DFC20460A2103F047FC20465B
:1026A000002103F01BFA20460E2103F017FA204602
:1026B000002103F013FA0821204603F00FFA204608
:1026C00003F046FC20460A2103F030FC204600219E
:1026D00003F004FA2046102103F000FA2046FF21FF
:1026E00003F0FCF93C21204603F0F8F9204603F002
:1026F0002FFC20460A2103F019FC2046002103F09C
:10270000EDF92046222103F0E9F920467F2103F06C
:10271000E5F97F21204603F0E1F9204603F018FC9B
:1027200020460A2103F002FC2046012103F0D6F9DD
:102730002046242103F0D2F92046002103F0CEF9EF
:102740000021204603F0CAF9204603F001FC204690
:102750000A2103F0EBFB2046002103F0BFF92046DD
:10276000242103F0BBF92046002103F0B7F914211E
:10277000204603F0B3F9204603F0EAFB20460A2185
:1027800003F0D4FB2046002103F0A8F920462A21BB
:1027900003F0A4F92046002103F0A0F9002120460F
:1027A00003F09CF9204603F0D3FB20460A2103F0F6
:1027B000BDFB2046002103F091F92046202103F0C3
:1027C0008DF92046002103F089F90021204603F00D
:1027D00085F9204603F0BCFB012010BDD01000207D
:1027E00010B52D4C82B0FFF725FE22782B481146FC
:1027F00002F090FA23682A4C0F2B0BD8DFE803F085
:102800001E2124272A2D303336393C3F42454808C3
:10281000244B2360082124480AF0B8FC20680DF0FE
:102820006BFA022402460B46009420480BF030FB62
:102830001E4802B0BDE810400BF0ACBA1C4B236040
:10284000E8E71C4B2360E5E71B4B2360E2E71B4BEB
:102850002360DFE71A4B2360DCE71A4B2360D9E7DC
:10286000194B2360D6E7194B2360D3E7184B23603D
:10287000D0E7184B2360CDE7174B2360CAE7174B0F
:102880002360C7E7164B2360C4E7164B2360C1E7FC
:10289000154B2360BEE700BF0CF0FF1FEC070020C4
:1028A0006C000020BD549341C883010088F5FF1FD0
:1028B000103377C0993918C0BE0D68BFCE71153F6F
:1028C0008D090340CCC9624009A7A3407DDBD140FC
:1028D000C416014154FC1741D0E830411955464116
:1028E0009FAB5F41A04176415E2E86413021014879
:1028F00007F0C8B98006002070B504460D4633487D
:102900000121164607F0FCF92AB200212F4807F0F2
:10291000F3F9204606F0FEF901462C480BF0C0F909
:102920002D212A4807F0AEF9204606F0CFF90146DE
:1029300026480BF0B5F92D21244807F0A3F92046CD
:1029400006F0B2F9014621480BF0AAF9022220490B
:102950001E480BF053F906F02BFB092830DD20460A
:1029600006F0C6F9014619480BF09AF9204606F020
:1029700077F901220546174914480BF03FF9092D54
:1029800003DC3021114807F07DF929460F480BF090
:1029900087F906B970BD204606F074F90122044695
:1029A0000C490A480BF02AF9092C03DC30210748AE
:1029B00007F068F921460548BDE870400BF070B992
:1029C0003021024807F05EF9C9E700BF8006002009
:1029D000D4830100148301002DE9F04FDFF860A3D8
:1029E000DFF8FC829BB008F015FFDAF80030C8F879
:1029F00000005BB9DFF84C93D9F800500DB3012DFE
:102A000000F0848030BF1BB0BDE8F08F09F06AFB96
:102A10000028EFDD012206A9AB480BF0BDFB9DF8B5
:102A20001830612BE6D10D21A8480AF0AFFBA84869
:102A30000BF0B0F9A749A4480BF0F4F809F034FB07
:102A4000D8E7A548DFF800B3A44EA54F07F038FF3C
:102A50000121A14807F05AF902219F4807F050F9D7
:102A60002A4629469C4807F047F90A229D499A4878
:102A70000BF0C4F898480BF08DF90121964807F047
:102A80003FF912222946944807F036F90522964963
:102A900091480BF0B3F8DBF800108F4801310BF0D0
:102AA000FFF8012291498C480BF0A8F8DBF80020D0
:102AB0008F4B894853F822102B460A220BF08CF9D1
:102AC000306801222821FFF717FF01223921D8F8A9
:102AD0000000FFF711FF804808F02EF93368D8F89E
:102AE0000020591E914209DCDFF860B29BF800100B
:102AF00021B180490968002940F0B6819A4280F2EC
:102B00002781D9F80050012D7FF47CAF7A4802F07C
:102B1000E9FD012801DDFDF7A3FE784B93F822378C
:102B2000002B46D0DAF8003074490022DB0781F828
:102B300022273ED5724B1D687F2D00F2938105F14F
:102B40000C0331F813000DF029FD4FF062510DF028
:102B50007DFD06466B4B1F6805F1010BBB454FDA47
:102B6000664B0D3503EB450514E028880DF016FD86
:102B70004FF062510DF06AFD0446214630460DF0DB
:102B800003FF023510B12646CDF808B00BF1010B5A
:102B9000BB4535D0BBF17F0FE7D90024EDE7029BA1
:102BA0001860039B029A01330432042B03930292B0
:102BB00055D1554B1C68002C00F01981534A544BD9
:102BC00012681B689A42FFF61DAFDAF80030002B3E
:102BD00040F09F814F4B00241C70FDF7FBFFFEF778
:102BE00023FADAF80030002B40F0828101233C22E6
:102BF0000221394807F096FF0023C9F8003001E7A9
:102C0000454E029B31688B42C0F26F81002900F073
:102C10006C81424F3A68934200F36481002A00F0CD
:102C200061813F4D029C2B683E48E31A002B0068EF
:102C3000B8BF5B42834280F228813B4A136801336C
:102C400013603A4A3A4B049313683A4905910133A9
:102C50000299296013603849029100230393049B71
:102C600053F804BB0493059B53F8046B05935E452E
:102C700097DD324B039A53F822000DF093FC029B30
:102C80001D681E4B0BF10C04074603EB440415E0D2
:102C900020880DF083FC4FF062510DF0D7FC3946CF
:102CA0000DF088FD014628460DF0C8FB0BF1010B25
:102CB0005E4504F1020405463FF471AFBBF17F0F9E
:102CC000E6D90020EBE700BF78F5FF1FF482010092
:102CD00088F5FF1F6805002080060020700700208F
:102CE000A8000020D8830100E4830100C88401000B
:102CF00014070020B40F00207C05002018080020D5
:102D00001C1000200C0700207C0F0020E007002092
:102D1000E406002030F0FF1F7000002010080020A3
:102D20007C070020DC070020D000002008080020DD
:102D3000E8060020CC070020F8060020EC0F002059
:102D400004F0FF1F14080020B0000020000800203D
:102D50000D217348734D0AF019FA73480BF01AF8F5
:102D6000724B73491A6873483368096813440268E0
:102D70002B60012A0B44336000F0CE800E216E4898
:102D80006E4F0AF003FA08F045FDFEF7D5FE0B2161
:102D90006B480AF0FBF92868FEF7CEFE0B21694864
:102DA0000AF0F4F93068FEF7C7FE674B67480E215A
:102DB000002601251E60C9F800500AF0E7F95A48BC
:102DC0000AF0E8FFFDF736FFAE21614807F080FD0D
:102DD000604B38461E6002F091FC0B215E4887F87C
:102DE000F6500AF0D3F950480AF0D4FF89E608F00B
:102DF00011FD4C4AC8F8000013689842FFF602AE75
:102E00004A49564D09682B605548524D0B44136092
:102E100003F040F9534B54481C700C210AF0B6F9EA
:102E2000296841480AF03CFF3F480AF0B3FFFEF72B
:102E3000FBF8FDF7FFFEDAF800302C60002B3FF4C2
:102E4000E1ADFEF7E1FA494E494B3F4D49484A4949
:102E5000346000221A605A609A60DA602C60046064
:102E60000C60CFE5002675E60121052008F0E2FDA3
:102E7000C82008F04DFE2946052008F0DBFD0121A1
:102E80003A6833688BF8001038E63C4BDFF8FCB04A
:102E90001B68DBF80000521A9A421CDD384B1B6895
:102EA000984218DB0DF07EFB364B19680DF0CEFB17
:102EB0000CF022FF4FF0020E02460B46CDF800E068
:102EC00019480AF0E5FF01212F480AF05FF9274A67
:102ED00013680133136000230122CBF800203B600C
:102EE0003360AEE63B601A469BE63360194690E6D7
:102EF000FEF78AFA1D4E1E4B134D1E481E493460C4
:102F000000221A605A609A60DA602C6004600C60DB
:102F10006CE6FEF7F3F95DE6FEF754FE2EE700BF20
:102F2000EC830100E407002088F5FF1F34F0FF1F49
:102F30007C0F002068000020FC8301007C0500203D
:102F40000C8401001884010008080020B0810100F1
:102F500080060020E0070020C081010070070020EB
:102F6000C80F002030F0FF1F2484010074070020E8
:102F7000F8060020700000201008002078060020CD
:102F8000B8060020B8000020C8840100D00000204E
:102F90002DE9F04782B008F03DFCB34BB34D18600B
:102FA0000121B348B34C06F0ABFE0121B04806F056
:102FB000ADFE12220021AE4806F09EFE0422AE496C
:102FC000AB480AF01BFE2968A9480AF069FE0222F4
:102FD000AA49A7480AF012FE0622A949A4480AF005
:102FE0000DFE2368002B00F00381012B00F00C8103
:102FF000A44FA5499E4806220AF000FE39689C4865
:103000000AF04EFE0122A14999480AF0F7FD9848BE
:103010000AF0C0FE2368012B00F06A810121944868
:1030200006F06EFE2E6870000DF0BCFA984B196821
:103030000DF00CFB97490DF001FA4FF08E410DF0A9
:10304000FDF995490DF0B6FB93490DF0B3FB2368EC
:10305000012B814600F0E1804FF07E5830460DF0A4
:10306000A1FA41460DF0F2FA804638688B4CDFF841
:103070007CA28B4D30440DF095FA014640460DF090
:1030800099FB884B074618680DF08CFA864B196837
:103090000DF0DCFA854B19680DF0D0F939460DF0CA
:1030A000D5FA394680464FF07E500DF0C5F9804B79
:1030B00019680DF0CBFA014640460DF0BFF9014604
:1030C00020680DF077FB7B490DF0C0FA0DF0AAFCEB
:1030D000DAF80040002380462B606B60AB60EB6049
:1030E00074B120460DF05AFA49460DF063FB0CF01E
:1030F00003FE0CF009F90DF02BF9286000FB06F433
:10310000DAF8040068B10DF049FA49460DF052FBB7
:103110000CF0F2FD0CF0F8F80DF01AF9686000FB05
:1031200006F0DAF80830044473B118460DF036FAA8
:1031300049460DF03FFB0CF0DFFD0CF0E5F80DF01B
:1031400007F9A86000FB06F3DAF80C001C4468B12C
:103150000DF024FA49460DF02DFB0CF0CDFD0CF0DE
:10316000D3F80DF0F5F8E86006FB00F020440DF010
:1031700015FA39460DF01EFB044640460DF00EFAD6
:10318000014620460DF01EFCF0B9014630223848B9
:1031900006F0B2FD0D22484935480AF02FFD2046C1
:1031A00046490DF007FB0CF0A7FD022402460B4632
:1031B00000942F480AF06CFE41492D48012202B0CC
:1031C000BDE8F0470AF01ABD30220021284806F079
:1031D00093FD0E223B4926480AF010FD3A49244847
:1031E000A1FB0831090C00230A220AF0F5FDE3E7F0
:1031F000042236491E480AF001FD1D480AF0CAFDA6
:103200002368012B7FF4F4AE0422314918480AF0F8
:10321000F5FC17480AF0BEFDEAE62E4A2E4B107860
:103220001B78834286BFC3F11803C018C01A0DF083
:10323000B9F92A4A2A4B05461B781078834286BF83
:10324000C3F13C03C018C01A0DF0ACF9254904467F
:1032500028460DF0FBF921460DF0F0F822490DF05B
:10326000A9FA8046FAE600BFA800002034F0FF1F4C
:103270008006002068000020348401003C840100A6
:10328000408401007C0F002058840100608401000C
:103290002CF0FF1F0000304200007A441CF0FF1F9A
:1032A00014070020B40F002014F0FF1F08F0FF1FC8
:1032B00024F0FF1F000061458084010000C0A84782
:1032C0002C8301007084010007452EC24884010050
:1032D00050840100F90700200C100020F80700209E
:1032E0000C080020000070420000B444940F00203D
:1032F000264E2749274808220AF080FC3178092900
:1033000038DD00230A2223480AF066FD224B2349B8
:103310001E78204801220AF071FC092E03DC3021BE
:103320001C4806F0AFFC31461A481D4E0AF0B8FCA6
:103330001C49184801220AF061FC317809291FDD77
:1033400000230A2213480AF047FD174B13491E7841
:10335000104801220AF052FC092E03DC30210D48EE
:1033600006F090FC31460B480AF09AFC09480AF036
:1033700011FD53E63021074806F084FC3178C0E7A0
:103380003021044806F07EFC3178D9E70C1000208B
:1033900064840100800600200C08002014830100D2
:1033A000F9070020E8810100F80700202DE9F04F1F
:1033B00087B0FEF79DFC08F02DFA864BDFF85C9293
:1033C00018608548854E864FDFF8548207F078FAFA
:1033D0000121814806F09AFC02217F4806F090FC0A
:1033E000002211467C4806F087FC08227D497A4875
:1033F0000AF004FC0121784806F082FC102200212A
:10340000754806F079FC1222774973480AF0F6FBFA
:1034100071480AF0BFFCCA460025002347F8043B68
:1034200072480AF0B7FC71480AF0B4FC0135052176
:103430006F4809F0ABFE29466C480AF031FC6B4836
:103440000AF0A8FC294664480AF02AFC04226949CB
:1034500061480AF0D3FB604807F06EFC072166481C
:1034600002F0ACFA0E21644802F006FB0C2162481F
:1034700002F0D4FA5AF8042B6049D2B2A1F10C0040
:103480004FF0384304F0AAFC58BB1C215C4809F0FB
:103490007DFE56480AF07EFC06225A494E480AF044
:1034A000ADFB4D480AF076FC4B4807F045FC042D77
:1034B000B3D14A4C99F8002004F58C65284604F2F3
:1034C0006C414FF0384304F089FC002840F0AA809A
:1034D0000B224D4940480AF091FB3F4807F02CFC75
:1034E000FEE74A4800F12403336002F0D3FD0121D6
:1034F0003A4804F077FB014600285AD0DFF80CB1B7
:10350000ABF23C41584602F0FDFF0028BDD096F8D2
:103510003C3413F0700FB8D0ABF23C40C8F800B0A8
:1035200004F0C4FA0DF03AF839490DF08FF804466A
:1035300030790DF037F8014620460DF087F80DF090
:1035400071FA04460BF1240004F040FE0DF026F859
:103550002F490DF07BF80DF065FA112183462D48B7
:1035600009F014FE214600230A2220480AF034FC08
:103570001E480AF00FFCC72C8CBFC83C0024214613
:1035800000230A2247F8044C13480AF025FC0122C4
:10359000214911480AF032FB594600230A220E48FD
:1035A0000AF01AFC0C480AF0F5FB0B4807F0C4FBC4
:1035B0007DE70A4804F016FB00283FF466AFDFF809
:1035C0004CB0ABF23C41584602F09CFF00289ED123
:1035D0005BE700BFA000002080060020F400002070
:1035E000940F0020908401009C84010088F5FF1F47
:1035F000E4830100B084010038F0FF1F6005002063
:10360000508501007085010078850100300500209B
:10361000BD37063AB8840100CC840100A40F002015
:10362000E810002004F23C40256002F033FD012147
:10363000204604F0D7FA0146002800F0B783BC4CBE
:1036400004F23C452846214602F05CFF00283FF486
:103650003FAF94F83C3413F0700F3FF439AFDFF80C
:103660000C93C8F80050FEF73BF9D9F80020B14B95
:103670009A4203D94FF49673C9F80030DFF8F0820C
:10368000AC4BD8F800209A4284BF0023C8F8003021
:10369000A94B1B78172B02D9A74A00231370A74BFD
:1036A0001B783B2B02D9A54A00231370A44B1B782F
:1036B000172B02D9A24A00231370A24B1B783B2B75
:1036C00002D9A04A002313709F4FDFF8A8A23B68DD
:1036D0009E4D012B88BF00234FF4FA6088BF3B60EA
:1036E00008F016FA9A4807F0EBF80121984806F01E
:1036F0000DFB0221964806F003FB00221146944878
:1037000006F0FAFA924807F017FB4FF4167008F02B
:10371000FFF90026082008F0B1F9D8B9DAF800302E
:103720003A680133B2FA82F1092B4FEA5111D8BF3E
:103730000021CAF80030002940F03583A2F10102CF
:10374000B2FA82F20D2B4FEA5212D8BF0022002AA1
:1037500040F029837E4807F0B3F801217C4806F049
:10376000D5FA02217A4806F0CBFA002211467848B1
:1037700006F0C2FA08F04EF8764B28601A68DAF8BC
:103780000030821A02920D2B00F2A182DFE813F0C2
:103790008A021A02E3024302B502EC017D01210113
:1037A0004F01F400A7007F0036000E00654B042097
:1037B0001C7808F063F98346032008F05FF9664B34
:1037C000BBF1000F40F036831968644A4FF0010ED8
:1037D0000A2982F800E040F39B86614A82FB04429A
:1037E000920802EB820202FA0EF2142902F10A0494
:1037F00040F38F8602F16E0400F08BBE504B042024
:103800001C7808F03BF98346032008F037F9524B47
:10381000BBF1000F40F0DD861968504A4FF0010EF1
:103820000A2982F800E000F3628601340131196050
:103830004C4B002840F04F861968484A01200A295D
:10384000107040F34E86464A82FB0402E417C4EB34
:10385000A20202EB820252001429A2F10A0401DD45
:10386000A2F16E040131002C196080F23586172414
:10387000334B3D4936481C7007220AF0BFF9304BE4
:10388000197809291C4600F3FD8200F025BD2B4B59
:1038900004201C7808F0F2F88346032008F0EEF8C4
:1038A0002D4BBBF1000F40F0B28519682B4A4FF049
:1038B000010E0A2982F800E040F30986284A82FBBB
:1038C0000442920802EB820202FA0EF2142902F17B
:1038D0000A0440F3FD8502F16E0400F0F9BD164BB9
:1038E00004201C7808F0CAF88346032008F0C6F8C4
:1038F000194BBBF1000F40F0C5841968174A4FF00F
:10390000010E0A2982F800E040F3DD85144A82FBAB
:103910000442920802EB820202FA0EF2142902F12A
:103920000A0440F3D18502F16E0400F0CDBD00BF62
:10393000F4000020A08601000C1000200C080020DC
:10394000F9070020F807002068000020A8000020E8
:1039500080060020A000002024100020780700200E
:1039600067666666800F00204085010034F0FF1F07
:103970007C0F0020980700200522BE49BE480AF0AF
:103980003DF904203C6808F079F88346032008F0EC
:1039900075F8BA4BBBF1000F40F0C4831968B84A00
:1039A0004FF0010E0A2982F800E040F38885B54AFD
:1039B00082FB04E2E417C4EBA20202EB8202520093
:1039C000142902F10A0440F37B8502F16E0400F031
:1039D00077BD05F045F9AC4C83460420C4F800B02F
:1039E00008F04CF80390032008F048F8039B002BE4
:1039F00040F0CD83A14BA24A19684FF0010E0A296D
:103A000082F800E040F356859E4A82FB0BE24FEAC3
:103A1000EB7BCBEBA20202EB82025200142902F1F3
:103A20000A0B40F3498502F16E0B00F045BD05F02D
:103A300029F9964C83460420C4F800B008F01EF81B
:103A40000390032008F01AF8039B002B40F0098331
:103A50008A4B8B4A19684FF0010E0A2982F800E060
:103A600040F32385874A82FB0BE24FEAEB7BCBEBEB
:103A7000A20202EB82025200142902F10A0B40F367
:103A8000168502F16E0B00F012BD05F031F9DFF87A
:103A900010B204460420CBF8004007F0EFFF03907B
:103AA000032007F0EBFF039B002B40F09585734B41
:103AB000734A19684FF0010E0A2982F800E000F3FA
:103AC000E284013401311960714B002840F0D88440
:103AD00019686B4A01200A29107040F3CE84694AA4
:103AE00082FB0402E417C4EBA20202EB8202520042
:103AF0001429A2F10A0401DDA2F16E04013119605A
:103B0000002CC0F2B784182CA8BF0024DBF80030CA
:103B1000A3421BD0286805F0A3F88346286805F067
:103B2000B1F80590286805F0BFF80490286805F002
:103B3000CDF80390286805F0EDF803990091019005
:103B4000049B059A59462046FDF7C0FF05225149BE
:103B500049480AF053F807F05DFE05F0C9F8014640
:103B600045480AF09DF8B2E005F09EF84A4C8346BD
:103B70000420C4F800B007F081FF0390032007F091
:103B80007DFF039B002B40F00B823C4B3C4A1968A5
:103B90004FF0010E0A2982F800E040F30B85394A04
:103BA00082FB0BE24FEAEB7BCBEBA20202EB820241
:103BB0005200142902F10A0B40F3FE8402F16E0B4D
:103BC00000F0FABC0420D9F8004007F057FF834604
:103BD000032007F053FF294BBBF1000F40F0E683B1
:103BE0001968274A4FF0010E0A2982F800E040F3D5
:103BF000C084244A82FB04E2E417C4EBA20202EB75
:103C000082025200142902F10A0440F3B38402F143
:103C10006E0400F0AFBC05F07DF8204C8346042014
:103C2000C4F800B007F02AFF0390032007F026FF36
:103C3000039B002B40F03A81104B114A19684FF05A
:103C4000010E0A2982F800E040F38E840D4A82FBBF
:103C50000BE24FEAEB7BCBEBA20202EB82025200BB
:103C6000142902F10A0B40F3818402F16E0B00F07B
:103C70007DBC00BF208501008006002024100020AC
:103C800078070020676666662C070020740600200F
:103C9000800F002008850100141000201010002063
:103CA00004080020B04C2378002B40F054840A22F2
:103CB000AE49AF4809F0A2FF042007F0DFFE04463A
:103CC000032007F0DBFE14B9002800F02584FFF77D
:103CD0005FF907F09FFD01223921FEF70DFEA44890
:103CE00007F02AF8C82007F013FF029BB3F5167FF0
:103CF0007FF710AD07B0BDE8F08F04F0E7FF9D4CF3
:103D000083460420C4F800B007F0B8FE03900320F7
:103D100007F0B4FE039B002B40F0EB82964B924AD7
:103D200019684FF0010E0A2982F800E040F34C8434
:103D3000924A82FB0BE24FEAEB7BCBEBA20202EB57
:103D400082025200142902F10A0B40F33F8402F16F
:103D50006E0B00F03BBC0420D8F8004007F08EFE4C
:103D60008346032007F08AFE834BBBF1000F25D169
:103D700019687D4A4FF0010E0A2982F800E040F3ED
:103D80001E847E4A82FB04E2E417C4EBA20202EB2B
:103D900082025200142902F10A0440F3118402F154
:103DA0006E0400F00DBCCAF80060D3E4204603F0B6
:103DB00019FF00287FF443ACFFF78ABB1E60704BED
:103DC000002835D11968684A01200A2910702DDDB4
:103DD0006A4A82FB0402E417C4EBA20202EB8202ED
:103DE00052001429A2F10A0401DDA2F16E0401318E
:103DF0001960002C18DB634B9C42C8BF0024624949
:103E00005B48C8F80040042209F0F8FED8F800101A
:103E1000574809F045FF01225C49554809F0EEFE7C
:103E2000534809F0B7FF52E7564CE8E7013CDEE79C
:103E30001E60DEE71E60524B50BB19684A4A0120E3
:103E40000A29107029DD4D4A82FB0402E417C4EBF5
:103E5000A20202EB820252001429A2F10A0401DD3F
:103E6000A2F16E040131002C196012DA3B24484B98
:103E700048493F481C70072209F0C0FE444B19789E
:103E800009290CDD00230A22394809F0A5FF1EE7A5
:103E90001E603B2C08DD0024E9E7013CE2E7FEF769
:103EA00025FD3B4B1978EDE7E4B2E0E7324B1E60AD
:103EB000334B002856D119682B4A01200A2910706B
:103EC0004DDD2E4A82FB0B024FEAEB7BCBEBA202CD
:103ED00002EB820252001429A2F10A0B01DDA2F1C9
:103EE0006E0B01311960BBF5FA6F35DB40F6340318
:103EF0009B45C8BF4FF4FA6B2368274C5B45C4F859
:103F000000B01BD0286804F0F3FE8346286804F054
:103F1000A7FE0590286804F0B5FE0490286804F018
:103F2000C3FE0390286804F0D1FE2468039B009030
:103F3000049A059901945846FDF7C8FD05221749D2
:103F40000B4809F05BFE07F065FC04F0E3FE014658
:103F5000074809F0A5FEBAE640F6340BCCE70BF1B2
:103F6000FF3BBEE71E60BEE778070020D08401005B
:103F70008006002078050020241000206766666611
:103F8000800F002080510100E8840100608401005E
:103F9000F807002048850100C8070020F0840100D0
:103FA000AB4B1E60AB4B002859D11968AA4A0120BF
:103FB0000A29107050DDA94A82FB0B024FEAEB7B05
:103FC000CBEBA20202EB820252001429A2F10A0BEF
:103FD00001DDA2F16E0B01311960BBF1000F38DD7C
:103FE000BBF1200FA8BF4FF0010B22689C4B03933D
:103FF0005A45C3F800B01ED0286804F079FE044684
:10400000286804F02DFE8346286804F03BFE039BDD
:1040100005901B682868049304F058FE03902868F4
:1040200004F078FE039900910190049B059A59468B
:104030002046FDF74BFD04228A498B4809F0DEFD3E
:1040400007F0E8FB04F030FE0146874809F028FE3F
:104050003DE64FF01F0BC8E70BF1FF3BBBE71E60CF
:10406000BBE77B4B1E607B4B002859D119687A4A0D
:1040700001200A29107050DD784A82FB0B024FEABA
:10408000EB7BCBEBA20202EB820252001429A2F1DD
:104090000A0B01DDA2F16E0B01311960BBF1000FBB
:1040A00038DBBBF13C0FA8BF4FF0000B22686F4B11
:1040B00003935A45C3F800B01ED0286804F018FED8
:1040C0000446286804F0CCFD039B83461A682868E0
:1040D000059204F0E9FD0490286804F0F7FD0390D0
:1040E000286804F017FE039900910190049B059A3B
:1040F00059462046FDF7EAFC07225D495A4809F077
:104100007DFD07F087FB04F0BDFD0146564809F030
:10411000C7FDDCE54FF03B0BC8E70BF1FF3BBBE70E
:104120001E60BBE71E604B4B78BB19684A4A0120F2
:104130000A29107023DD494A82FB0402E417C4EB0C
:10414000A20202EB820252001429A2F10A0401DD4C
:10415000A2F16E0401311960002C0ADB012C10DD84
:104160003E604448FCF7B2FB3B68012B7FF4AFADE7
:1041700001E001233B604048FCF7A8FBA7E5013CB8
:10418000E8E73C60002CECD0F5E71E60E4E7304B3C
:104190001E60304B002859D119682F4A01200A2986
:1041A000107050DD2D4A82FB0B024FEAEB7BCBEB0C
:1041B000A20202EB820252001429A2F10A0B01DDD5
:1041C000A2F16E0B01311960BBF1000F38DBBBF1BE
:1041D0003C0FA8BF4FF0000B2268284B03935A45B1
:1041E000C3F800B01ED0286804F082FD039B04468B
:1041F0002868D3F800B004F045FD0590286804F065
:1042000053FD0490286804F061FD0390286804F0D1
:1042100081FD039900910190049B059A594620461F
:10422000FDF754FC072216490F4809F0E7FC07F098
:10423000F1FA04F015FD01460B4809F031FD46E5A1
:104240004FF03B0BC8E70BF1FF3BBBE71E60BBE742
:1042500024100020800F0020780700206766666623
:104260007C0600200085010080060020E807002071
:1042700018850100488401005084010008100020C6
:10428000108501001E60BD4B50BB1968BC4A01205F
:104290000A29107029DDBB4A82FB0402E417C4EB33
:1042A000A20202EB820252001429A2F10A0401DDEB
:1042B000A2F16E040131002C196012DA1724B24BFE
:1042C000B249B3481C70082209F098FCAE4B19782B
:1042D00009291C463FF7D6ADFEF708FB2178D1E54A
:1042E0001E60172C03DD0024E9E7013CE2E7E4B29D
:1042F000E5E7A84B1E60A14B002855D11968A04ADC
:1043000001200A2910704CDD9E4A82FB0B024FEA05
:10431000EB7BCBEBA20202EB820252001429A2F14A
:104320000A0B01DDA2F16E0B01311960BBF1000F28
:1043300034DDBBF10D0FA8BF4FF0010B2368964C85
:104340005B45C4F800B01BD0286804F0D1FC83465C
:10435000286804F085FC0590286804F093FC04901C
:10436000286804F0A1FC03902868246804F0D2FCBB
:1043700000940190039B049A05995846FDF7A6FB0B
:1043800006228649824809F039FC07F043FA04F016
:104390009DFC01467E4809F083FC98E44FF00C0B2D
:1043A000CCE70BF1FF3BBFE71E60BFE71E60734B1E
:1043B00058BB1968724A01200A29107023DD714A1E
:1043C00082FB0402E417C4EBA20202EB8202520059
:1043D0001429A2F10A0401DDA2F16E040131196071
:1043E000002C0DDDB4F5616FC8BF01246C4968482D
:1043F000C9F80040042209F001FCD9F8001007E5D3
:104400004FF46164F2E7013CE8E71E60E8E71E60F4
:104410005A4B38BB19685A4A01200A29107027DD07
:10442000584A82FB0402E417C4EBA20202EB8202A8
:1044300052001429A2F10A0401DDA2F16E04013137
:10444000002C19600FDA3B24564B574950481C701A
:10445000082209F0D3FB534B197809291C463FF772
:1044600011AD39E71E603B2C40F3BA800024EBE726
:10447000013CE4E71724FFF749BB013CFFF73EBBD3
:104480001E60FFF73DBB3F4A82FB04E2E417C4EB2A
:10449000A20202EB82025200142902F10A047FF701
:1044A00011AB02F16E04FFF70DBB0BF1010B0131F3
:1044B0001960D8E50BF1010B0131196069E601348F
:1044C000013119602FE6013401311960DBE6013456
:1044D000013119609CE71E60172C05DD0024FFF7F1
:1044E000C7B9013CFFF7BEB9E4B2FFF7C1B9254A2D
:1044F00082FB0442920802EB820202FA0EF21429B5
:1045000002F10A047FF792A902F16E04FFF78EB957
:104510000134013119608EE4FDF7F8FAFDF73AFC39
:104520002248FCF7D3F91A4806F006FC40F2DC50AA
:1045300007F0EEFAFEF72CFD07F06CF901223921A5
:10454000FEF7DAF9124806F0F7FBC82007B0BDE81D
:10455000F04F07F0DDBAFDF71DFC267007F05AF9A1
:10456000134B1860FFF7A3BB0BF1010B013119606E
:104570009EE401340131196019E700BF800F00206B
:1045800078070020676666660C1000202885010009
:10459000800600202410002028070020F884010055
:1045A000348401000C08002034850100DC84010003
:1045B000A00000200BF1010B01311960F2E401347D
:1045C00001311960FFF7FBBB0BF1010B01311960E1
:1045D00091E61E60FFF72CB9024B1E60FFF774BA1C
:1045E000E4B231E7241000202DE9F04FDFF83C93CE
:1045F000DFF83CA3DFF83C83B14F85B0FCF71CFE2D
:10460000D9F800B0AF4801255946CAF800500CF05F
:10461000D1F80CF0E1F90346CAF80430C8F80030CC
:104620005946A94803930CF0C5F80CF0D5F9064695
:104630005946C8F80460CAF80860A4480CF0BAF8F3
:104640000CF0CAF904465946CAF80C40C8F80840AC
:104650009F480CF0AFF80CF0BFF99E4A039BD2F8CC
:1046600000C09D49C8F80C00DFF8CCE29B4AC4EBBF
:104670000008A41BF61A013B81E848002CFA05F358
:10468000C1F80C809E444FF00A08BEFBFCF01523D5
:104690004FF00F0E1426C2F804E08C6096600024E0
:1046A000D360C2F8008007F083FA4FF4FA7007F085
:1046B0002FFA3C60642007F02BFA396888481022F2
:1046C000234609F089FB864809F064FB4FF4305318
:1046D0003B60642007F01CFA4FF434533B606420C5
:1046E00007F016FA7F4B7E4819681022234609F01E
:1046F00073FB7B4809F04EFB39687948234610224A
:1047000009F06AFB764809F045FB774B7448196855
:104710001022234609F060FB714809F03BFB41463B
:10472000724808F033FDD9F800000BF0E5FA0226D4
:1047300002460B4600966A4809F0AAFB684809F051
:1047400029FB13216A4808F021FD6A4B18680BF019
:10475000D3FA009602460B46614809F099FB60487F
:1047600009F018FB0E21644808F010FD634B5C480B
:10477000196809F095FA5A4809F00CFB0E216048B7
:1047800008F004FD5F4B5648196809F089FA54484F
:1047900009F000FB16215C4808F0F8FC5B4B504820
:1047A000196809F07DFA4E4809F0F4FA17215848C3
:1047B00008F0ECFC574B4A48196809F071FA484870
:1047C00009F0E8FA544801F02FFA2946304607F07C
:1047D00063F92946062007F05FF92946052007F00E
:1047E0005BF92946052007F025F94FF4FA6007F038
:1047F0008FF92146052007F01DF9484B214610206E
:104800001D7007F049F9204606F046FD2146304666
:1048100007F010F92946062007F00CF9214605207B
:1048200007F008F92146042007F036F92146032055
:1048300007F032F92146082007F02EF92946042016
:1048400007F0F8F82946032007F0F4F82946082075
:1048500007F0F0F84FF4FA7007F05AF92B463C22B3
:1048600031462F4806F05EF9642007F051F92C48D4
:1048700006F026F829462A4805F048FA3146284825
:1048800005F03EFA22462146254805F035FA424613
:104890002449234809F0B2F9214809F07BFA294656
:1048A0001F4805F02DFA11221F491D4809F0A6F9ED
:1048B0001B4809F06FFA1A4806F03EFA45E000BFBF
:1048C00010D0034000007A440000FA4400409C45A8
:1048D00000409C4610F0FF1FEC0F0020A40F0020AA
:1048E00088F5FF1F14D0034018D0034084850100D1
:1048F00090850100B8000020A4850100B8060020C2
:10490000B4850100DC070020C48501001C100020D4
:10491000DC8501000C070020D010002000080020DA
:1049200080060020F485010000860100B40000200C
:10493000E8060020CC07002000449508B32C4FF473
:104940007A7006DC07F0E4F80134FCF70DFC00286F
:10495000F4D00D218148824EDFF87082814F08F03B
:1049600015FC04F039FB01467F4809F099F97E48AF
:1049700009F010FA06F04EFF3060FEF717FD7B4B92
:104980007B4A1A600021022007F054F8794805F0AC
:1049900097FF0121774805F0B9F90221754805F024
:1049A000AFF900221146734805F0A6F906F032FF70
:1049B000714B72491B6809680246D8F8000092FBE7
:1049C000F3F4326003FB04336D4A3B600129034476
:1049D000136000F0BE800BF0E5FD6A4ADFF8F0914D
:1049E0001168694CDFF8ECB1DFF8ECA10BF02EFE9A
:1049F0004FF06E510BF02AFE0BF0EEFF634AD9F830
:104A0000001020601468624A0C1B24EAE47582FBE3
:104A100005322A44E817C0EBE2200BF05BF90AF0FC
:104A200073FC0BF06DFC5B4C5B4ACBF8000004FBA5
:104A3000005482FB04322244E017C0EB62100BF0FA
:104A400049F90AF061FC0BF05BFC544B0246A0EB09
:104A5000001004EB800410215148CAF800201C60AB
:104A600008F094FBDBF800103F4809F019F9DAF878
:104A700000103D4809F014F9484B3B48196809F00B
:104A80000FF9394809F086F90821464808F07EFBFD
:104A9000D8F80010344809F003F9334809F07AF9DE
:104AA0000821414808F072FBD9F800102E4809F09F
:104AB000F7F82D4809F06EF90E213C4808F066FB26
:104AC0003068FDF739F80C21394808F05FFB386889
:104AD000FDF732F83B68346836481C1B152108F096
:104AE00055FB2146204809F0DBF81F4809F052F930
:104AF0006421314808F09EFCFDF772FE0A212F4820
:104B000001F014FA00212D4800F0E8FF0E212B4897
:104B100000F0E4FF0021294800F0E0FF0B212748C6
:104B200000F0DCFF254801F013FA254A012319465D
:104B300082F82037022006F07DFF2249224B002018
:104B40004FF0FF3208601A6005B0BDE8F04F07F083
:104B500025BBFDF737F8D8F800003CE714860100C4
:104B6000A80000207007002088F5FF1FEC1000202F
:104B7000B50700008006002000F0FF1F680000203D
:104B8000E40700202CF0FF1FE406002018F0FF1FB0
:104B9000C5B3A291F0F1FFFF898888881810002022
:104BA000248601003886010044860100FC83010050
:104BB00050860100608601000082FF1FD010002097
:104BC00018080020140800201007002034F0FF1FF0
:104BD0007C0F0020A4000020900F0020F8B50021D9
:104BE000054608F0EFFC002855D0D5F81C710646A4
:104BF000002F4ED005F58E743B1D224605F59071B1
:104C000007F5827733F8020B42F8040FBB42F9D163
:104C1000331D05F5477206F5827733F8020B42F82B
:104C2000040FBB42F9D1D5F8180180B105F5927295
:104C300000F5007E32F9043C30F9027B03FB07F3F8
:104C4000DB13864522F8043C02F10402F2D105F59B
:104C5000E5600AF05FFA95F82177EFB905F21C5C80
:104C600095F82027E64605F21C7154F8043F23FB13
:104C700003F3B3FBF2F34EF8043F7145F5D17B1C0F
:104C8000DBB2934220D085F82137D5F81C0108F01B
:104C900055FCC5F81C61F8BD05F21C5C95F8202791
:104CA000E64605F21C7154F8043F23FB03F35EF85B
:104CB000040FB3FBF2F38E450344CEF80030F2D17B
:104CC0007B1CDBB29342DED10023DFF83CE085F8A9
:104CD0002137604605F1160750F8044FB4FA84F303
:104CE00081423EF81320B4FBF2F31A444FEA520318
:104CF000B4FBF3F423444FEA530327F8023FEBD10C
:104D0000012385F82237C0E7B888010000207047EA
:104D10000020704738B50F29114C28BF0F210F2AEA
:104D200028BF0F220D46017A204642EA051501F000
:104D300027F82046002100F0D1FE2046202100F077
:104D4000CDFE2046002100F0C9FEE9B2204600F069
:104D5000C5FE204601F0FCF8B0FA80F0400938BDED
:104D6000D0100020F8B5C34C012605460671204638
:104D700000F05AFF052006F0CBFE297A204600F00D
:104D8000FFFF2046002100F0A9FE2046302100F060
:104D9000A5FE2046402100F0A1FE6021204600F043
:104DA0009DFE204601F0D4F8297A204600F0E8FF65
:104DB0002046002100F092FE2046262100F08EFEC3
:104DC0002046002100F08AFE6C21204600F086FE7D
:104DD000204601F0BDF8297A204600F0D1FF204698
:104DE000002100F07BFE2046282100F077FE3146AE
:104DF000204600F073FEF221204600F06FFE2046B0
:104E000001F0A6F8297A204600F0BAFF20460021DA
:104E100000F064FE20462C2100F060FE20460F21A9
:104E200000F05CFE2221204600F058FE204601F0F2
:104E30008FF8297A204600F0A3FF2046002100F0D9
:104E40004DFE20463C2100F049FE2046442100F062
:104E500045FE4621204600F041FE204601F078F84C
:104E600040F23713EB80297A204600F089FF204674
:104E7000002100F033FE2046242100F02FFE3146B1
:104E8000204600F02BFE3721204600F027FE20466A
:104E900001F05EF8297A204600F072FF20460021DA
:104EA00000F01CFE2046302100F018FE2046402174
:104EB00000F014FEFF21204600F010FE204601F015
:104EC00047F8297A204600F05BFF2046002100F0D9
:104ED00005FE2046022100F001FE2046002100F0E0
:104EE000FDFD7321204600F0F9FD204601F030F869
:104EF0004FF4C87006F00CFE297A204600F040FFFF
:104F00002046002100F0EAFD20462E2100F0E6FDBB
:104F100020461D2100F0E2FD1D21204600F0DEFDAF
:104F2000204601F015F8297A204600F029FF204696
:104F3000002100F0D3FD2046042100F0CFFD2046E3
:104F4000002100F0CBFD0421204600F0C7FD2046E3
:104F500000F0FEFF297A204600F012FF20460021D3
:104F600000F0BCFD2046062100F0B8FD3146204689
:104F700000F0B4FD3021204600F0B0FD204600F0E6
:104F8000E7FF297A204600F0FBFE2046002100F0D2
:104F9000A5FD20460A2100F0A1FD2046002100F0D9
:104FA0009DFD1021204600F099FD204600F0D0FF25
:104FB000297A204600F0E4FE2046002100F08EFD14
:104FC00020460E2100F08AFD2046002100F086FDDB
:104FD0000021204600F082FD204600F0B9FF297A2A
:104FE000204600F0CDFE2046002100F077FD20464F
:104FF000102100F073FD20463C2100F06FFD3C21A4
:10500000204600F06BFD204600F0A2FF297A2046E2
:1050100000F0B6FE2046002100F060FD204622216F
:1050200000F05CFD20467F2100F058FD7F212046E6
:1050300000F054FD3627204600F08AFF297AEF80E1
:10504000204600F09DFE2046002100F047FD20464E
:10505000242100F043FD2046002100F03FFD3946A9
:10506000204600F03BFD204600F072FF6E72304695
:10507000F8BD00BFD01000200B462DE9F041454996
:10508000054618460BF0E2FA43490BF0D7F90BF04E
:10509000C9FC044600284CD080281FD92B79002455
:1050A00026462BBB297A3D4800F06AFE00213B488A
:1050B00000F014FD2221394800F010FD3146374838
:1050C00000F00CFD2146354800F008FD334800F0A3
:1050D0003FFFB0FA80F04009BDE8F081C0F18004E4
:1050E0002B7944EA0424C4F30726E4B2002BD9D078
:1050F000EF88297A294827F010074FF00008EF8041
:1051000085F8048000F03CFE4146244800F0E6FCAF
:105110002421224800F0E2FC390A204800F0DEFC9D
:1051200007F0EF011D4800F0D9FC1C4800F010FF0B
:10513000B8E701232B71297A184800F021FE214697
:10514000164800F0CBFC2221144800F0C7FC7F2158
:10515000124800F0C3FC7F21104800F0BFFC0F484C
:1051600000F0F6FEEE88297A0C4846F01006B6B23A
:10517000EE8000F005FE2146084800F0AFFC242137
:10518000064800F0ABFC310A044800F0A7FCF1B27D
:1051900099E700BF00000143EE7CFF3ED0100020E5
:1051A00070B505460C4619B101293BD0002070BDF1
:1051B000017A424800F0E4FD2146404800F08EFCB0
:1051C00020213E4800F08AFC21463C4800F086FC45
:1051D00055213A4800F082FC384800F0B9FE0646F6
:1051E0000028E3D1EC88297A344844F00404A4B2BE
:1051F000EC8000F0C5FD3146304800F06FFC242102
:105200002E4800F06BFC210A2C4800F067FCE1B24C
:105210002A4800F063FC294800F09AFEB0FA80F0BA
:10522000400970BD017A254800F0AAFD00212348FD
:1052300000F054FC2A21214800F050FC21461F4870
:1052400000F04CFC73211D4800F048FC1B4800F0A6
:105250007FFE04460028A9D1297A184800F090FD65
:105260002146164800F03AFC2021144800F036FC94
:105270002146124800F032FC8821104800F02EFC34
:105280000E4800F065FE044600288FD1EE88297A8A
:105290000A4826F00406EE8000F072FD2146074819
:1052A00000F01CFC2421054800F018FC310A0348DA
:1052B00000F014FC06F0FB01AAE700BFD0100020AC
:1052C00010B5044608F09AFA204610BD024A034978
:1052D00003480BF03BBD00BFFCEFFF1FC1520000B5
:1052E000281000201B4A1C4B11681C48096970B427
:1052F00099421279027009D2194A127832B3194AC6
:105300004FF08041116003F5807402E01C46A3F564
:105310008073154A154912680D68AAB1A5B1144EDB
:105320003088402810D841000A44403029440232D5
:105330000231308033F9040B22F8020F9C4233F91A
:10534000020C21F8020FF5D870BC704703F5807489
:10535000DFE700BF3810002090E8FF1F1F800040EB
:105360003210002008E200E040100020341000203D
:1053700030100020F8B5064608F08CF80446E8B175
:1053800008F088F8054600283AD072B61F4B1A88F4
:105390007F2A19D8002C31D01D490A6842B162B663
:1053A000204608F0CBF82846BDE8F84008F0C6B81B
:1053B00018480C601A80056062B6F8BD054672B6E2
:1053C000124B1A887F2AE5D9114A124917681460CE
:1053D00000220C681A800D6062B63946304608F02B
:1053E000D7F8384608F0AAF830462146012208F0DE
:1053F000CFF82046BDE8F84008F0A0B862B6F8BD86
:10540000204608F09BF82C46BFE700BF3010002074
:105410004010002034100020F8B5284C284E2046BB
:10542000012108F04DF900F083F8264B264A274861
:105430004FF480611960236800211A6099802279F5
:10544000186102F1804202F5043240F20110D88066
:105450009E614FF48075022006278E26DD82D9607A
:10546000DD8398609F8398821170167008F0CEF8E3
:105470001749184B2279184F08701A703968227929
:10548000164C174D174E41F0124141F001015311D6
:1054900039609B00206803F1604302F1100703F5B7
:1054A000614302F01F02012140F0104001FA02F2B4
:1054B000206045F827601A60F8BD00BF3810002052
:1054C00000FEFFFF14B00440A0F0024090E7FF1F71
:1054D000321000201B80004080F0024000F00240AB
:1054E00000EAFF1FE5520000024A034903480BF09F
:1054F0002DBC00BFFCEFFF1FC15200003810002080
:10550000024A034903480BF021BC00BFFCEFFF1F18
:10551000C152000044100020024A034903480BF026
:1055200015BC00BFFCEFFF1FC15200004C10002053
:10553000284B29491A68294842F400421A600A682F
:1055400042F002020A601A6842F002021A6003681E
:10555000002B3DDB224B1B68002B39DB214A4FF02F
:10556000864313601368002BFCDBF0B51E4C1F480C
:10557000DFF8ACE01E491F4B1F4A204F204E214D43
:1055800047F2320CC4F800C0002404600120CEF8B9
:105590000000DFF890E0C1F800E04FF480311960BE
:1055A000194B1360DFF880E0184A3A6034602860D5
:1055B0001748CEF80000174CB9671748174946F846
:1055C000503C4FF4C0632A61236003600B60F0BD60
:1055D000704700BF3C8004404080044000F002401F
:1055E00080F0024000F1024004F1024060F002400D
:1055F00008F002400CF0024010F0024014F00240AB
:10560000E0F0024084F002401B0F0100000F0F0F7A
:105610000300004708B004400CB0044018B0044038
:1056200004F002400300000788F00240024A0349E8
:1056300003480BF08BBB00BFFCEFFF1FC152000003
:1056400054100020024A034903480BF07FBB00BFFF
:10565000FCEFFF1FC15200005C100020024A03490A
:1056600003480BF073BB00BFFCEFFF1FC1520000EB
:1056700064100020024A034903480BF067BB00BFD7
:10568000FCEFFF1FC15200006C100020024A0349CA
:1056900003480BF05BBB00BFFCEFFF1FC1520000D3
:1056A0007410002010B50021044607F08BFF98B15C
:1056B00094F8F6308BB194F8F43094F8F520013377
:1056C000342BC8BF0023934207D09A1D04EB8202FB
:1056D000DBB2506084F8F43010BDBDE8104007F034
:1056E0002DBF00BF90F8F42090F8F530D0B2DBB2B7
:1056F000984238BF3530C01A704700BF38B50546EC
:10570000D0F8F00020B107F019FF0023C5F8F03001
:1057100095F8F54095F8F430E4B2DBB29C420ED037
:105720000134352C28BF0024A31D05EB83035868E2
:1057300007F004FF95F8F430DBB29C42F0D1DBB205
:1057400085F8F53038BD00BF0246D0F8F000B0B99A
:1057500092F8F53092F8F410DBB28B4210D001339E
:10576000342B86BF01460B46D9B2063302EB8303C6
:105770005868C2F8F00082F8F51004307047002035
:10578000704700BFD0F8F03043B110B5044618465A
:1057900007F0D4FE0023C4F8F03010BD704700BFFE
:1057A00010B4047F4160022CC26002D010BC08F02B
:1057B0003FB8836810BC1847F0B4464B464A186B94
:1057C000DC6A01791170454922790A709A6A007978
:1057D0000870002A46D05968C9688A423ED82168B4
:1057E000CC8B240402F1FF3065D4C0F30E00C883D3
:1057F000C88B80B2C882196B0968C88B000452D468
:10580000C2F30E00C883C88B002480B212F1FF32AD
:10581000C88218BF01229C62D96A2E4809680D68A7
:1058200000F12404A54236D00068C46814F0804F0B
:105830000C680D6815BF248824780235013544F0C2
:1058400000440D604463196B254B09791970214997
:1058500012B1CA6A12791A70F0BC7047521A9A6271
:105860000122D9E7586B196805681E4C0A63CC629F
:10587000CC682D681C4E24F080440327B542CC60D0
:1058800083F825701FD1037F4260022BC2601ED0B7
:10589000F0BC07F0CDBF016890F82400CC6840F060
:1058A00000404863CFE7CC8BC2F3080004F47E4489
:1058B0002043C883A7E7CC8BC0F3080004F47E44E0
:1058C0002043C88394E72B461146F0BC18478368F1
:1058D000F0BC184738F0FF1F1F8000401C800040BC
:1058E0001B80004000000FFFA157000090E80C0053
:1058F000F0B41C6859682568164F174E294321607B
:10590000164D17491760D66015611160417A154A26
:105910005C180A3194F8244053F8215002EBC4017A
:1059200049680D60017A5C1803EB8101247ECD6922
:1059300002EBC40149680D60817A581803EB8103BA
:1059400090F83000596B02EBC002F0BC536819604C
:10595000704700BF01401F0001100038011000789F
:1059600000001F804C8F01004268036805CA10B414
:10597000046822430260D868840100F0E06205D523
:10598000080900F4706021F470410143D8681143A4
:10599000814209D01A68500408D40748186041F0C1
:1059A0008040D96018611A6010BC704741F0804295
:1059B000D96010BC1A61704701401F004268437AE9
:1059C000134493F824308B4209D0F0B492F8244069
:1059D0008C4205D092F825408C421AD0F0BC70471A
:1059E000002421461668556836682E420FD00A4DAD
:1059F00005EBC30300275E685318376093F8243023
:105A000005EBC3050A316B6852F821201A60447215
:105A1000E4E701242146E5E74C8F01004268037A60
:105A200013441B7E8B4207D0F0B4147E8C4204D00A
:105A3000547E8C421AD0F0BC704700242146166870
:105A4000556836682E420FD00A4D05EBC303002778
:105A50005E68531837601B7E063105EBC30502EB09
:105A600081026B6852681A600472E4E701242146DF
:105A7000E5E700BF4C8F01004268837A134493F836
:105A800030308B4209D0F0B492F830408C4205D0CF
:105A900092F831408C421BD0F0BC70470024214664
:105AA0001668556836682E4210D00B4D05EBC303BF
:105AB00000275E685318376093F830300C3105EBDF
:105AC000C30502EB81026B6852681A608472E3E7D7
:105AD00001242146E4E700BF4C8F01000A4B1B78EC
