:1000000000800020BD01000009B60000C1B500005D
:10001000C1B50000C1B50000C1B50000C1B5000008
:10002000C1B50000C1B50000C1B5000009B60000AF
:1000300009B60000C1B50000CDD900001DDC0000EC
:1000400009B6000009B6000009B6000009B60000B4
:1000500009B6000009B6000009B6000009B60000A4
:1000600009B6000009B6000009B6000009B6000094
:1000700009B6000009B6000009B6000009B6000084
:1000800009B6000009B6000009B6000009B6000074
:1000900009B6000009B6000009B6000009B6000064
:1000A000555F000009B6000009B6000009B600005F
:1000B00009B6000009B6000009B6000009B6000044
:1000C00009B6000009B6000009B6000009B6000034
:1000D00009B6000009B6000009B6000009B6000024
:1000E00009B6000009B6000009B6000009B6000014
:1000F00009B6000009C2000009B6000095E600003C
:1001000009B60000C1E7000009B6000009B600000A
:1001100009B6000009B6000009B6000009B60000E3
:1001200009B6000009B6000009B6000009B60000D3
:1001300009B6000009B6000009B6000009B60000C3
:1001400009B6000009B6000009B6000009B60000B3
:1001500009B6000009B6000009B6000009B60000A3
:1001600009B60000C9C4000009B6000009B60000C5
:1001700009B6000009B6000009B6000009B6000083
:1001800009B6000009B6000009B6000009B6000073
:1001900009B6000009B6000009B6000009B6000063
:1001A00009B6000009B6000009B6000009B6000053
:1001B00009B6000009B6000059D70000564B4CF2B2
:1001C000205210B51A804DF628121A8000BF00BFC9
:1001D00000F090FB514B4FF010621A60504A9A6049
:1001E000504ADA60504A136813F4807304D14F49BF
:1001F0000B604FF4A85313604D4B1A78110703D5C9
:100200001A7842F008021A704A4B4B492A221A7097
:100210004A4A4B4B8B4204D252F8040F43F8040B6A
:10022000F8E7484B484900228B4202D243F8042B9E
:10023000FAE74649464A002352F8230041F82300D2
:1002400001336F2BF8D1434B434A802103F8011B44
:100250009342FBD1414B3D4A1A60414B8A221A70AE
:10026000A3F5805324225A70A0221A709A7992071B
:10027000FCD59A79D406FCD43A4A937903F00C035E
:10028000082B384BF9D105221A7143225A719A79F9
:100290009006FCD5334A9179324B4906FBD5324A58
:1002A0004FF0817111600521516020221A709A79F6
:1002B00002F00C020C2AFAD12C4B2D4A1A602D4B5D
:1002C0002D4A1A6000225A60072243F8042C2B4A58
:1002D000C3F80C2D62B60BF0B9FA144B1B68DA07A1
:1002E00005D527480BF0A0FA264B274A1A60274B62
:1002F0001B785B0609D5234C234B22689A4204D114
:100300001F480BF091FA0023236010F02DFD0BF035
:100310007FF90EF0C7F8FEE70E200540308004405C
:10032000823F04000100002B10D0034014D0034092
:1003300002D0074000E00740E8FFFF1FD88E020010
:1003400020EFFF1FE8FFFF1F9014002000EAFF1FAF
:100350000000000000E400E05FE400E008ED00E0E1
:1003600000500640004006404480044004800440A1
:10037000C010050014E000E03F190100000020203B
:10038000CF5F935D1CE00340A5C3945A00F0074083
:10039000FFFFFFFFFFFFFFFFFFFFFFFFFFFFFFFF6D
:1003A000FFFFFFFFFFFFFFFFFFFFFFFFFFFFFFFF5D
:1003B000FFFFFFFFFFFFFFFFFFFFFFFFFFFFFFFF4D
:1003C000FFFFFFFFFFFFFFFFFFFFFFFFFFFFFFFF3D
:1003D000FFFFFFFFFFFFFFFFFFFFFFFFFFFFFFFF2D
:1003E000FFFFFFFFFFFFFFFFFFFFFFFFFFFFFFFF1D
:1003F000FFFFFFFFFFFFFFFFFFFFFFFFFFFFFFFF0D
:10040000FFFFFFFFFFFFFFFFFFFFFFFFDEF9FFFF23
:1004100010B5054C237833B9044B13B10448AFF33E
:1004200000800123237010BDE8FFFF1F00000000C3
:10043000D48E0200084B10B51BB108490848AFF331
:1004400000800848036803B910BD074B002BFBD0A0
:10045000BDE81040184700BF00000000ECFFFF1F80
:10046000D48E0200E8FFFF1F00000000002070474C
:10047000704700BF027C02F0080202F0FF0332B1B5
:10048000C36A406A181A48BF6FF0004070471846A8
:10049000704700BFF8B55548554D564C297803783C
:1004A0002278DFF868E1544F544E120442EA0323E5
:1004B000FF222A700270802022708EF800003870AF
:1004C000B2794F480B4312F00C0FC36002D1B379DD
:1004D000DC063DD4494A9379C3F38103032B40D012
:1004E000464B9A79C2F38102022A42D0434A937959
:1004F000C3F38103022B53D0404A9379C3F38103A2
:10050000022B61D03D4A9379C3F38103012B51D073
:100510003A4A9379C3F38103012B5CD0374B9A7924
:1005200012F00C0F03D19A79D20600D49B79354D85
:10053000354B2A7853F82240D4B1236820469B6873
:1005400098472B7804EB83046468002CF5D1F8BD40
:10055000B3799806EBD5294A9379C3F38103032B2A
:10056000BED19379D906BBD493799B06DFD4B7E784
:10057000F8BD9A79D706B9D49A799606B6D559783E
:1005800001F0020101F0FF020029AFD120211A7011
:100590001A461970937903F00C030C2BFAD1C6E7B5
:1005A0009379DD06A8D493799C06A5D4537898074F
:1005B000BDD5A1E79379DF06AAD593799E06A7D486
:1005C00053789D07B3D4A3E79379D9069AD4537887
:1005D0009B07ACD496E79379DC069FD59379980670
:1005E0009CD453789907A2D598E700BF06C007406E
:1005F00005C0074007C0074009C00740004006404B
:100600006814002028110020E810002008C00740CE
:1006100090F92410104B03604B1C06D0F0B40F4E21
:1006200056F82130984201D0F0BC70470C4F57F873
:10063000213033B18D0000245A1953685460002BC7
:10064000FAD1084C23780022013B237047F821207F
:1006500046F82120E8E700BF8C8001000811002047
:10066000E81000202911002038B590F924506B1CA7
:100670001BD00E4B0E4953F825400E4BEDB24FF0F8
:10068000FF320D701A6084B1AD0002E02C44646842
:100690005CB194F82530002BF8D0236820462C4418
:1006A0001B6898476468002CF3D138BDE81000201F
:1006B0002811002090E9FF1F704700BF90F9241017
:1006C000104B03604B1C06D0F0B40F4E56F821308F
:1006D000984201D0F0BC70470C4F57F8213033B12D
:1006E0008D0000245A1953685460002BFAD1084C2D
:1006F00023780022013B237047F8212046F821206F
:10070000E8E700BF8C80010008110020E8100020FD
:100710002911002090F92410104B03604B1C06D0C7
:10072000F0B40F4E56F82130984201D0F0BC70471B
:100730000C4F57F8213033B18D0000245A195368FB
:100740005460002BFAD1084C23780022013B23701F
:1007500047F8212046F82120E8E700BF8C800100FF
:1007600008110020E810002029110020083006F0B0
:10077000D7B800BF103006F0D3B800BF00B583B0C3
:1007800002AB012203F8011D1030194606F0C8F82B
:1007900003B05DF804FB00BF00B583B002AB0122DB
:1007A00003F8011D0830194606F0BAF803B05DF8E9
:1007B00004FB00BF2DE9F0410E4680460BF02EF8F9
:1007C000174D286008F0AAFA0746286808F082FA50
:1007D0000446286808F06CFA6401C0B204F4FF54BF
:1007E000BFB20443A7F2BC7744EA4724A8F800400C
:1007F000286808F081FA0746286808F035FA0446A8
:10080000286808F043FAFF02640107F4FF2704F4A4
:10081000FF54C0F346003C4304433480BDE8F081FC
:10082000A8000020103005F057BF00BF00B583B00E
:1008300001220DF10701103005F088FE01280CBFE0
:100840009DF807004FF0FF3003B05DF804FB00BFD8
:10085000103006F017B800BF083006F013B800BF1C
:1008600010B504460CF0FEFE204610BD00B51B4836
:10087000ADF5017D05F0D8F84FF480720146684669
:100880000AF004FC154805F0EDF8144805F0CCF822
:100890004FF4807201460DEB02000AF0F7FB0F489F
:1008A00005F0E0F869464FF400720D4806F038F89C
:1008B00001300BD00B480C4902680B680132013340
:1008C00002600B600DF5017D5DF804FB0121142031
:1008D0000AF010FE054B064A1A60EBE7840500207B
:1008E000CC0F0020E4070020181000200CED00E0E1
:1008F0000400FA05464A474B102010801B781B075E
:1009000034D5F0B5444E454D454C31782B7822789E
:10091000DFF82CE1434F824042EA03230B43FF22DE
:10092000802132702A7022708EF800103970D90739
:100930003D4A14D51A2393603C4F3D4E3D4D3E4CED
:100940003E49107900233B7053709370D370D3608D
:10095000337013712B70237013700870F0BD1F0774
:1009600005D4DE0606D504239360E5E7704721230E
:100970009360E1E79D0604D45C0604D516239360DA
:10098000DAE79060D8E7180602D509239360D3E729
:10099000D90502D50A239360CEE79F0502D50D2322
:1009A0009360C9E75E0502D50B239360C4E71D057C
:1009B00002D51E239360BFE7DC0402D502239360B7
:1009C000BAE7980402D507239360B5E7590402D526
:1009D00006239360B0E71F0402D515239360ABE7AD
:1009E000DE0302D524239360A6E79D0302D52223CC
:1009F0009360A1E7DC0202D5252393609CE71803EE
:100A0000F5D45903F3D49B0244BF2323936093E7A7
:100A10000020054002D0074005C0074006C007403F
:100A200007C0074009C007406814002000C0074005
:100A300001C0074002C0074003C0074004C0074090
:100A400008C00740002976D02DE9F04F0C469100F0
:100A5000631883B05D68002D57D06B185E68002E58
:100A600050D073185F68002F49D07B18D3F80480EA
:100A7000B8F1000F3CD008EB0103D3F80490B9F1B2
:100A8000000F32D009EB0103D3F804A0BAF1000F34
:100A900027D00AEB0103D3F804B0BBF1000F18D044
:100AA0000BEB01035B6863B1194401934968FFF7DD
:100AB000C9FF019B93F825201AB11A68184653689C
:100AC00098479BF8253023B1DBF8003058465B6827
:100AD00098479AF8253023B1DAF8003050465B6821
:100AE000984799F82530002B35D198F8253063BB0D
:100AF00097F825301BB13B6838465B68984796F8F5
:100B00002530CBB995F8253063B994F8253013B961
:100B100003B0BDE8F08F23685B68204603B0BDE8F2
:100B2000F04F18472B6828465B68984794F82530A3
:100B3000002BEDD0EFE77047336830465B6898478D
:100B400095F82530002BE0D0ECE7D8F8003040468F
:100B50005B689847CCE7D9F8003048465B6898470F
:100B6000C3E700BF90F92420531C26D01B4B2DE96E
:100B7000F04153F82240D2B2ECB19300E1184D6835
:100B8000B5B1E9184E6866B1F1184F6837B13B440A
:100B90005968FFF757FF97F82530A3B996F8253025
:100BA00063B995F825301BB12B6828465B689847D8
:100BB00094F8253063B9BDE8F0817047336830465A
:100BC0005B689847EDE73B6838465B689847E5E720
:100BD000236820465B68BDE8F0411847E810002014
:100BE00070B5104C104D11480D210CF0DFFA204665
:100BF0000DF026F92E880E4810210CF0D7FA314658
:100C000020460DF0C5F820460DF01AF9094A0A4BA6
:100C100012882A80002283F8F6200848BDE8704038
:100C200005F0A8BB88F5FF1FEC120020A48001008E
:100C3000B48001001413002084050020CC0F002094
:100C40002DE9F04F97B00AF0E9FDA34CA34F2060C7
:100C5000002110200AF024FF206808F05FF8064603
:100C6000206808F037F88046206808F021F805462B
:100C7000206808F041F88146206807F0F5FF8246B9
:100C8000206808F003F8964B834618680FF02CF89C
:100C90000095944DCDF80CB0CDE906013246CDF863
:100CA00008A0CDF80490434604958F498F4810F072
:100CB000D1FE002621E072B64AF202624BF2804376
:100CC0003A803B8062B6206807F0F2FF0546206854
:100CD00008F012F88046206807F0C6FF81462068B9
:100CE00007F0D4FF013601900296CDF800904346FC
:100CF0002A467F497D4810F0ADFE002501237B4A3E
:100D00007C498DF8245009A88DF8255005F07EFB0C
:100D100005460028CFD17548DFF81892DFF8188211
:100D20006E4FDFF804B2DFF804A210F049FF01466D
:100D30006E480CF03BFA70480DF082F84FF47A746C
:100D4000C2236A4A6B498DF834508DF835508DF8BE
:100D500028508DF830500DA80DAD0B94CDF824908F
:100D600005F054FB0FCD08F110040FC40FCD0FC4D4
:100D700029680B9A9DF830309DF82850C8F8082053
:100D800088F80C3021605D4888F804500D210CF083
:100D90000DFA98F810105848003118BF01210CF0D6
:100DA000F7FF55480DF04CF84646554D46E072B6F3
:100DB0004AF202624BF280433A803B8062B62B6873
:100DC00050494A4801331A462B6010F043FE474809
:100DD00010F0F6FE014645480CF0E8F946480DF0E3
:100DE0002FF84FF47A7EC223404A42498DF83440AE
:100DF0000DA88DF835408DF828408DF83040CDF89D
:100E00002CE0CDF8249005F001FB0DF1340EBEE886
:100E10000F003D4C9DF828C086F804C00FC4BEE802
:100E20000F000FC42B680B989DF83010DEF80020DF
:100E3000B060B3F57A7F317322607FDC98F81040A0
:100E4000002CB4D031483249D0F80080314C324ABD
:100E5000324B334E03C9206092E80300A06093E850
:100E6000030010270125E06027614046A582E58246
:100E70000FF0D0FD4146A06140460FF0D7FA0FF0C9
:100E8000C9FD284AE06192E80300336860625B02B2
:100E900002206784208403F1240721462C221A486B
:100EA000A362676005F03CFD2C2806D0294614207B
:100EB0000AF020FB1C4B1D4A1A6009211C480CF04B
:100EC00075F931680C480CF063FF0B480CF0B8FF63
:100ED00017B0BDE8F08F00BFA80000200C2005402F
:100EE0006C000020BC000020C8800100040000202D
:100EF000F48001003805002088F5FF1F0C810100F7
:100F0000000800201C810100CC0F00202CF0FF1FE6
:100F10002881010074000020308101003881010027
:100F2000EC060020408101000CED00E00400FA0511
:100F30004881010050800100BC0F0020224C236832
:100F40000133042B236036D0204C214A04F58C65F4
:100F500012F82320284604F26C414FF0384306F083
:100F600041FF00283FF421AF04F23C40256005F02A
:100F700001FA0121204606F039FEA8B1134C04F213
:100F80003C452846214605F0C1FA00283FF40DAF44
:100F900094F83C3413F0700F3FF407AF0D4A0E4B3A
:100FA000156001221A7000E70146204606F01EFE79
:100FB0000028E3D1F9E6012114200AF09BFACBF8CE
:100FC00000A02368C0E700BFB0000020FC000020A4
:100FD000A80F0020E0100020880F00202DE9F84F16
:100FE0004D4C4E4E22684E4856F822301021013B9F
:100FF00046F822300CF0DAF823684A4856F82310F5
:101000000A2200230CF02CFF46480CF019FF23683D
:1010100056F82330002B6AD172B6434D4AF2026271
:101020004BF280432A802B8062B62368DFF8189148
:1010300001330122042B236089F8002032D0DFF82D
:1010400004813A4F08F58C6A394917F82320A1F139
:101050000C004FF0384306F0C5FE58BB1E21354842
:10106000DFF8B4B00CF0A2F821682E4801310CF082
:101070008FFE2C480CF0E4FE236856F82330B3BBF7
:1010800072B64AF202624BF280432A802B8062B62B
:10109000DBF8003001221344042B89F80020CBF840
:1010A0000030D1D10E2124480CF080F81D480CF0FE
:1010B000C7FEFEE7DFF894B0C8F800A0584605F078
:1010C00059F90121ABF23C4006F090FD0146E0B138
:1010D000ABF23C41584605F019FA0028BED098F80A
:1010E0003C3413F0700FB9D0144BC3F800B00E218C
:1010F00013480CF05BF821680A4801310CF048FEF7
:101100000848BDE8F84F0CF09BBE0E4806F06EFD97
:101110000028DDD1A2E700BFB000002018070020A2
:10112000E081010088F5FF1F0C200540A80F00207A
:101130006805002014820100F4810100E010002005
:1011400004820100FC000020880F002038050020E8
:10115000F0B5092187B02948294D2A4E0CF026F810
:1011600029480CF06DFE0BF029F8012127480AF000
:1011700047FF0AF0A9FF2B680093009A326005E050
:101180000AF0C0FF0A2804460AD032682B6801938F
:10119000019B1B4F9B1A632BF2D9002007B0F0BDB7
:1011A000024603A91A480CF09DFF03A80FF0CCFDDE
:1011B0000D21054617480BF0F9FF3B680293029991
:1011C000336811482246C91A00230CF049FE0E4824
:1011D0000CF036FE214610480BF0E8FF29460A487D
:1011E0000CF0D6FD08480CF02BFE28460AF01CFB3C
:1011F0000A4B28461D6007B0F0BD00BF34820100D5
:10120000501100207407002088F5FF1F088301009B
:1012100078F5FF1F40820100508201001007002076
:10122000F0B587B072B62549254B264841250E24D6
:1012300080220D70047019461A700B78204A180627
:10124000FBD5214B21491D78214C22480D70033BD1
:10125000247800781B78CB704C70887062B672B6B8
:101260001648184C41260F2580230670257010461D
:10127000137003781B06FCD5134C1548154A164B02
:101280002478007812781B78CB710C7148718A71C0
:1012900062B64B780A78CF798E794D790C79C87817
:1012A00089780091019005970496039502940B4963
:1012B0000B4810F0CFFB07B0F0BD00BF07000240A5
:1012C00000000240060002400B0002408C0F00208C
:1012D0000A00024009000240080002405C8201004E
:1012E000BC0000202DE9F0470A2182B03448354C7B
:1012F000354D0BF05BFF35480CF0A2FD04F1100AF0
:1013000054F8046B324930460FF054FB00284FD09C
:1013100028680FF03FF9014630460FF043FA0EF00F
:10132000E3FC0EF071F82B4B064618680F460EF0E2
:10133000DBFC0EF069F8002280468946264B3046D9
:1013400039460EF025FD002206460F46234B404647
:1013500049460EF01DFD02460B46304639460EF05A
:1013600063FB0FF00DF81E4B19680FF05DF81D4B75
:1013700019680FF059F80EF0B7FC022602460B462A
:10138000009612480CF0ACFD10480CF059FDA24537
:10139000B6D10A2114480BF009FF144B0B48196809
:1013A0000CF0F6FC094802B0BDE8F0470CF048BD6F
:1013B00028680FF0EFF8014630460FF0F3F9DAE74E
:1013C00080820100000700200C08002088F5FF1F24
:1013D000ACC52737B4000020000034400000244092
:1013E00020F0FF1F6C0000208C8201007807002095
:1013F0002DE9F04D82B072B6504B4AF202614BF2C9
:10140000804219801A8062B64D494E484E4DDFF831
:1014100078A1DFF878B1DFF878810CF0C9FE4B4B8A
:10142000484819680CF088FF002455F8046B4849B7
:1014300030460FF0BFFA00286CD0464B18680FF00A
:10144000A9F8014630460FF0ADF90EF04DFC0DF055
:10145000DBFF0646DAF800000F460EF045FC0DF003
:10146000D3FF0022CDE900013B4B304639460EF058
:101470008FFC002206460F46384BDDE900010EF0D6
:1014800087FC02460B46304639460EF0CDFA0EF088
:1014900077FFDBF800100EF0C7FFD8F800100EF051
:1014A000C3FF0FF091FA2E49064626480CF0B2FE13
:1014B000214624480CF0F2FE2A4922480CF0AAFEEC
:1014C000013431461F480CF0E9FE042CADD1264909
:1014D0001C480CF09FFE254B1A4819680CF0DEFEE4
:1014E000234918480CF096FE224A234B12681548EF
:1014F00053F822100CF06EFF204912480CF08AFEBF
:1015000010491F480CF01EFC1D4802B0BDE8F04D0C
:101510000CF096BCDAF800000EF0E6FB0DF074FF5C
:1015200000220E4B0EF034FC02460B4600201549FB
:101530000EF07AFA0EF024FFABE700BF0C20054056
:10154000A88201007005002000070020A8000020EC
:10155000ACC527370C0800200000344000002440B0
:10156000B0820100C0820100B4820100780700202F
:10157000BC820100B000002018070020C4820100D6
:1015800088F5FF1F000058C0B400002020F0FF1FA6
:101590006C0000202DE9F0438FB0044610F010FBE2
:1015A00000B2012818DDB4F9003044F6521293421B
:1015B00000F07D8114DC44F25242934200F06B81D2
:1015C00044F25372934207D10BAAE01CC04910F0B9
:1015D00067FAC04B0B9A1A6001200FB0BDE8F08388
:1015E00044F65452934200F0AA8045F253229342AB
:1015F000F2D10AAD09A908AA05ABE01C0395029136
:101600000192009307AA06ABB34910F049FAB34B15
:10161000079D596818689A680A9EDDF824E0DDF88D
:1016200020C0A5F5FA65ADB20BAF2CB207C7069F77
:1016300005991E3415F0030F4FEAA408FDB240F0DF
:101640004581A74B022D8CBF1F460027A548A64BFE
:10165000C8EB040400FB08F06A1E03FB0400002A28
:1016600000EB070347DD9DF82C409D48012A00FB55
:10167000043340D09DF82D40022A00FB04333AD0B9
:101680009DF82E40032A00FB043334D09DF82F40F0
:10169000042A00FB04332ED09DF83040052A00FBBD
:1016A000043328D09DF83140062A00FB043322D0B1
:1016B0009DF83240072A00FB04331CD09DF83340CC
:1016C000082A00FB043316D09DF83440092A00FB99
:1016D000043310D09DF835400A2A00FB04330AD0A9
:1016E0000B2A9DF8364018BF9DF8372000FB0433C5
:1016F00018BF00FB02335FFA8EF2C2EB02125FFAF0
:101700008CF04FF46164920004FB0022744D774C1E
:101710007748C9B2013952FA86F205FB0122134417
:10172000122123600BF042FD216872480CF030FB5F
:1017300070480CF085FB01200FB0BDE8F0830AADC6
:1017400009A908AA05ABE01C039502910192009338
:1017500007AA06AB604910F0A3F9604B079F9A688F
:10176000186859680A9EDDF824E0DDF820C0A7F566
:10177000FA67BFB20BAC3DB207C4069A059C1E3592
:1017800017F0030F4FEAA508D7B240F09C80544BE6
:10179000022F8CBF99464FF000095249524BC8EBBB
:1017A000050501FB08F17A1E03FB0510002A00EB7A
:1017B000090347DD9DF82C004949012A01FB00334C
:1017C00040D09DF82D00022A01FB00333AD09DF84D
:1017D0002E00032A01FB003334D09DF82F00042A89
:1017E00001FB00332ED09DF83000052A01FB0033A9
:1017F00028D09DF83100062A01FB003322D09DF845
:101800003200072A01FB00331CD09DF83300082A60
:1018100001FB003316D09DF83400092A01FB003388
:1018200010D09DF835000A2A01FB00330AD00B2A9C
:101830009DF8360018BF9DF8372001FB003318BF14
:1018400001FB02335FFA8EF2C2EB02125FFA8CF0F8
:101850004FF46165920005FB0022E1B2204C234D5C
:1018600052FA86F2013904FB01241C4420462C6004
:1018700009F0DAFF0B2120480BF098FC21460023E9
:101880000A221C480CF0ECFA1A480CF0D9FA012094
:101890000FB0BDE8F0830BAAE01C0D4910F000F971
:1018A000164B0B9A1A6001200FB0BDE8F0830BAA0B
:1018B000E01C074910F0F4F8114B0B9A1A60012054
:1018C0000FB0BDE8F0834FF0000966E70027BDE6E2
:1018D000E88201000CF0FF1FC8820100988001001F
:1018E000805101000085E2018033E101740700208E
:1018F000EC82010088F5FF1FDC82010034F0FF1F3D
:10190000800F00202DE9F043A3B000254FF47A7634
:101910006E4F6F4A6F490A96012319A817968DF8E2
:1019200030508DF831508DF824508DF82C508DF8B2
:1019300064508DF865508DF858508DF860500897B8
:10194000159704F063FD0DF1640EBEE80F000CAEB8
:101950000FC6BEE80F000FC69DF83080DEF80010FD
:101960009DF85800179A9DF8603031608DF824007A
:101970000A928DF82C30B8F1000F46D02E468DF823
:1019800000604FF000094FF0FF08012215A90CA8D4
:1019900004F0DCFD09F1010322AA01284A441BB22C
:1019A00024D01D2B02F8888C05DC9946EDE71D2B11
:1019B00001DC0A2AF9D1013B9BB222AA1A4402F89F
:1019C000886C9DF800202F2A04D0012B02D968468C
:1019D000FFF7E0FD9DF830301B0711D40CA804F090
:1019E000C9FC2DBB012023B0BDE8F0839DF8542035
:1019F0000D2A08BF4B465AD11D2BDCDC9946C4E7A3
:101A0000139A119B9A42BAD1E8E7142132480BF09D
:101A1000CDFB32480CF014FA0D22314931480CF05C
:101A20007BF930480CF00CFA404623B0BDE8F08357
:101A30000B212D480BF0BAFB214600230A22274830
:101A40000CF00EFA002525480CF0FAF94FF47A76DE
:101A50008DF864508DF865508DF858508DF86050B1
:101A600063231B4A1B49179619A819AD159704F053
:101A7000CDFC0FCD0CAE0FC60FCD0FC62968179A3F
:101A80009DF860309DF8585031600CA821460A92AC
:101A90008DF82C308DF8245004F052FE02221349A8
:101AA0000CA804F03DFF0CA804F064FC9AE722ABFC
:101AB00003EB0901542A09F1010301F8882C1BB238
:101AC0007FF475AF119C0546013C95E750800100FD
:101AD00000830100380500201C83010088F5FF1FEA
:101AE00034830100880600200C8301001883010064
:101AF00038B5054607F012F91E4C014620460CF099
:101B000047F92D200BF026FC284607F0E3F80146A4
:101B100020460CF03DF92D200BF01CFC284607F068
:101B2000C7F8014620460CF033F9012112480BF0AA
:101B30003DFB284607F0E0F8014620460CF028F966
:101B40003A200BF007FC284607F08EF801462046A5
:101B50000CF01EF93A200BF0FDFB284607F096F832
:101B6000014620460CF014F92046BDE838400CF040
:101B700067B900BF88F5FF1F748401002DE9F043A9
:101B8000434A444BDFF81891DFF81881424D98F82A
:101B90000010167899F800701A78286883B03C23F2
:101BA00013FB071713FB062607F0A6F80446286860
:101BB00007F05AF8C4EB041400EB8404286807F01B
:101BC000ADF800F14E0328688DF8063007F082F872
:101BD0008DF80500286807F06BF8B7428DF804000F
:101BE00006D2A74232D8A64230D303B0BDE8F08374
:101BF000A742FAD9A642F8D202A8002399F80020F9
:101C000000F8083D98F800308DF801308DF802207A
:101C100007F098F80F21286020480BF0C7FA2868D1
:101C2000FFF766FF09F0FAFD2B68984204D903F527
:101C3000A83303F5C0732B600F2118480BF0B6FAD8
:101C40002868FFF755FF03B0BDE8F08302A8002322
:101C500099F8002000F8083D98F800308DF8013020
:101C60008DF8022007F06EF80F2128600B480A4C0F
:101C70000BF09CFA2868FFF73BFF09F0CFFD2B68BB
:101C80008342D9D203F5A83303F5C0732360D3E7A9
:101C9000FD070020FC07002074070020448301009A
:101CA000041000201008002010B5002009F0CCFB23
:101CB0001E4C2070012009F0C7FB6070022009F063
:101CC000C3FBA070032009F0BFFB194BE070226832
:101CD0001A60042009F0B8FB2070052009F0B4FB5D
:101CE0006070062009F0B0FBA070072009F0ACFB83
:101CF000104BE07022681A60082009F0A5FB0E4B1B
:101D00001870092009F0A0FB0C4B18700A2009F08C
:101D10009BFB0B4B18700B2009F096FB094B1870BE
:101D20000C2009F091FB084B186010BDAC0000209E
:101D300034F0FF1F800F0020041000201008002046
:101D4000FD070020FC07002068000020214B10B593
:101D50001968214C00202160C9B209F0CBFB6178E1
:101D6000012009F0C7FBA178022009F0C3FBE1784C
:101D7000032009F0BFFB194B196821600420C9B288
:101D800009F0B8FB6178052009F0B4FBA1780620C2
:101D900009F0B0FBE178072009F0ACFB104B0820FC
:101DA000197809F0A7FB0F4B0920197809F0A2FB5D
:101DB0000D4B0A20197809F09DFB0C4B0B2019786C
:101DC00009F098FB0A4B0C201978BDE8104009F087
:101DD00091BB00BF34F0FF1FAC000020800F00203B
:101DE0000410002010080020FD070020FC07002040
:101DF000680000202DE9F04F0546DFF87C82974E01
:101E0000974F98F800E02E60FF2085F82400DFF857
:101E10006C92387859F820C00023BEF1060F8DB0BF
:101E20000C4685F8253085F826309CBF88F80030B0
:101E30009E46BCF1000F00F0A8808C455BD0634645
:101E4000810001E09C4256D00B445B68002BF9D125
:101E5000634603EB010ADAF80430002BF9D105EBF5
:101E6000010BCAF80440BEF1060F4FF0FF044FFA11
:101E700080FACBF804308DF82C4002968DF82D3086
:101E80008DF82E3085F824A0644605D8002388F804
:101E90000030002C00F0A980A24226D0234601E0A9
:101EA000934222D00B445B68002BF9D104EB010C68
:101EB000DCF80440002CF9D1CCF804200CAB194418
:101EC0000024431CBAF1FF3F41F8244C3B708DF8CD
:101ED0002CA0029605D0634951F82A3002AA9342F9
:101EE00072D028460DB0BDE8F08F0130387028461A
:101EF0000DB0BDE8F08F0023FF21BEF1060F029662
:101F00008DF82C108DF82D308DF82E3001D888F8F2
:101F100000309445E9D06346810001E09A42E4D064
:101F20000B445B68002BF9D18C44DCF804402CB1E5
:101F3000A4468C44DCF80440002CF9D10CAB1944C5
:101F40004FFA80FE431CBEF1FF3FCCF804203B70EB
:101F500041F8244C02968DF82CE0C2D0414951F84A
:101F60002E3002AA9342BCD159F82E304FEA8E0689
:101F700023B19A1953685460002BFAD100233870AA
:101F800049F82E3041F82E30ABE7B0B38100DFF8CE
:101F9000D4A049F8204005EB010C00234AF820505A
:101FA000BEF1060FCCF804304FFA80FA4FF0FF0C68
:101FB00002968DF82D308DF82E3085F824A08DF8FE
:101FC0002CC07FF663AF64E759F82A304FEA8A06DF
:101FD00023B19A1953685460002BFAD1002338704A
:101FE00049F82A3041F82A307BE7F0B11D4B49F817
:101FF000202002AA43F8202060E71B491B480B68F9
:10200000019243F080630B600368194923F0804319
:102010000360152009F036FB164B98F800E0019A92
:102020004FF4001119603878B0E70F4C0F4823685F
:10203000019243F08063236003680D4923F08043DD
:102040000360152009F01EFB0A4B019A4FF40011A2
:10205000196038784FFA80FA8100C7E78C80010058
:102060002911002008110020047004400070044071
:102070009504000000E100E094E9FF1FE810002053
:102080002DE9F84FB64CB74EB74F09F095F94FF020
:10209000FF31B64808F004FC2268376000237372F1
:1020A00033613372F3600AB954E11A465369002B65
:1020B000FBD156614FF00008AD4DAE4BA948C6F8B4
:1020C0001480A6F80480A6F8068086F80A8033609B
:1020D00003F012FB012005F22472434641462F60B3
:1020E00085F80880C5F80C8068722A61AE4601E068
:1020F000DEF8102042F823106A7A9D4801339A4294
:10210000F6DC2268964B0AB926E11A465369002B81
:10211000FBD155614FF000089749DFF8E8E22960EC
:10212000424601234FF480719448C5F81480A5F805
:102130000480A5F8068085F80A80C5F818E185F8BE
:10214000218785F822870CF0F9FF8D4AC5F81C819C
:102150004FF0010E02F118011760082782F809E01C
:102160004346404682F80880C2F80C8011619646CA
:1021700085F8207701E0DEF8101041F82300517A4D
:102180007F4F01339942F6DC2168754B09B9E5E0D0
:1021900019464B69002BFBD14A61DFF86C82794FFD
:1021A000794B13600024404654619480D48094722B
:1021B00082F8F440C8F8006082F8F540C2F8F040B8
:1021C00082F8F64088F80840C8F8042088F80940EA
:1021D000C8F80C4088F810400BF010FA6B4A6C49B4
:1021E000DFF82892DFF828B240460EF0A7FD384607
:1021F0003C723E607D607C72FC603C740BF0FEF9CA
:102200003846624A6249634FDFF80882624D634E86
:102210000EF094FD624B634ADC71642183F8601414
:10222000614983F83C4483F83D4483F86A44C3F829
:102230006C145E4B13605E4B3B600A23D8F80010B1
:102240001472547214713B724FF087400EF0AAFA68
:102250004FF0FF0AC9F80000564B85F825400127CA
:1022600085F824A0494A54496C632846AC6385F834
:102270003C402B6085F826700EF060FD4F4B86F8D1
:1022800024A086F82540414A4D493360304686F8FF
:10229000274086F8284086F826700EF04FFD2A4623
:1022A00031464848484FDFF870A1DFF87091FFF7DA
:1022B000A1FD4649354A43480EF040FD444A454B8E
:1022C00010681C744FF47A729A60434A1A605C7406
:1022D0001C711C730EF05EF90146D8F800000EF078
:1022E00061FA3E4B05461D6029463D480EF05AFAFC
:1022F0003C4B06461E6029463B480EF053FA0EF052
:1023000063FB294638603948394F0EF04BFA0EF01E
:102310005BFB2946CBF8000036480EF043FA0EF07E
:1023200053FB3146CAF8000033480EF03BFA0EF07A
:102330004BFBC9F8000030460EF046FB21463860E2
:102340002E480BF001FF114A2D492C48BDE8F84FEB
:102350000EF0F4BC2660ADE61860DBE61F601CE7FB
:10236000E812002084070020448001008806002035
:102370001C080020548801002C880100440F002014
:1023800084050020E800002060880100FCEFFF1FAA
:1023900061080000F007002034070020A00700209B
:1023A000FC000020540F002000000238748001005F
:1023B000388801004C890100BD06000060890100D9
:1023C00015070000C40600201410002011060000AC
:1023D00028F0FF1FBC0F002050800100B400002037
:1023E00000007A44B800002000409C4500007A4676
:1023F000800600200000FA4300009643700500208C
:10240000A1E1000024860100D4000020280700205C
:10241000140700202CF0FF1FE0070020C00600205A
:1024200010B5E94C0A21204603F0F0FE20460021B9
:1024300003F0C4FC2046302103F0C0FC20464021BC
:1024400003F0BCFC6021204603F0B8FC204603F0FA
:10245000EFFE20460A2103F0D9FE2046002103F0BA
:10246000ADFC2046262103F0A9FC2046002103F004
:10247000A5FC6C21204603F0A1FC204603F0D8FE09
:1024800020460A2103F0C2FE2046002103F096FCFC
:102490002046282103F092FC2046012103F08EFC07
:1024A000F021204603F08AFC204603F0C1FE2046BE
:1024B0000A2103F0ABFE2046002103F07FFC2046FA
:1024C0002A2103F07BFC2046002103F077FC002149
:1024D000204603F073FC204603F0AAFE20460A21A2
:1024E00003F094FE2046002103F068FC20462C21D6
:1024F00003F064FC20460F2103F060FC22212046FB
:1025000003F05CFC204603F093FE20460A2103F012
:102510007DFE2046002103F051FC20463C2103F0C3
:102520004DFC2046442103F049FC4621204603F09F
:1025300045FC204603F07CFE20460A2103F066FE9F
:102540002046002103F03AFC2046242103F036FC0B
:102550002046012103F032FC3721204603F02EFCF7
:10256000204603F065FE20460A2103F04FFE204678
:10257000002103F023FC2046302103F01FFC2046FD
:10258000002103F01BFCAB21204603F017FC204682
:1025900003F04EFE20460A2103F038FE20460021BB
:1025A00003F00CFC2046022103F008FC2046002129
:1025B00003F004FC6321204603F000FC204603F0F6
:1025C00037FE4FF4C87009F0A7FA20460A2103F03D
:1025D0001DFE2046002103F0F1FB20462E2103F0D2
:1025E000EDFB2046192103F0E9FB0021204603F012
:1025F000E5FB204603F01CFE20460A2103F006FE00
:102600002046002103F0DAFB2046042103F0D6FB2C
:102610002046002103F0D2FB0421204603F0CEFB2C
:10262000204603F005FE20460A2103F0EFFD204678
:10263000002103F0C3FB2046062103F0BFFB204628
:10264000012103F0BBFB3021204603F0B7FB2046FD
:1026500003F0EEFD20460A2103F0D8FD20460021BC
:1026600003F0ACFB20460A2103F0A8FB2046002122
:1026700003F0A4FB0021204603F0A0FB204603F05A
:10268000D7FD20460A2103F0C1FD2046002103F0BA
:1026900095FB20460E2103F091FB2046002103F01C
:1026A0008DFB0821204603F089FB204603F0C0FD86
:1026B00020460A2103F0AAFD2046002103F07EFBFC
:1026C0002046102103F07AFB2046FF2103F076FB21
:1026D0003C21204603F072FB204603F0A9FD204672
:1026E0000A2103F093FD2046002103F067FB2046FA
:1026F000222103F063FB20467F2103F05FFB7F2153
:10270000204603F05BFB204603F092FD20460A21A1
:1027100003F07CFD2046012103F050FB20462421DC
:1027200003F04CFB2046002103F048FB002120462B
:1027300003F044FB204603F07BFD20460A2103F012
:1027400065FD2046002103F039FB2046242103F0DB
:1027500035FB2046002103F031FB1421204603F015
:102760002DFB204603F064FD20460A2103F04EFDB8
:102770002046002103F022FB20462A2103F01EFB05
:102780002046002103F01AFB0021204603F016FB2F
:10279000204603F04DFD20460A2103F037FD204678
:1027A000002103F00BFB2046202103F007FB20460D
:1027B000002103F003FB0021204603F0FFFA20462E
:1027C00003F036FD012010BDC810002010B52D4CBF
:1027D00082B0FFF725FE22782B48114602F00AFC52
:1027E00023682A4C0F2B0BD8DFE803F01E21242787
:1027F0002A2D303336393C3F42454808244B23606C
:10280000082124480AF0D2FC20680DF06DFA022459
:1028100002460B46009420480BF062FB1E4802B0B3
:10282000BDE810400BF00CBB1C4B2360E8E71C4BD1
:102830002360E5E71B4B2360E2E71B4B2360DFE7E8
:102840001A4B2360DCE71A4B2360D9E7194B23604E
:10285000D6E7194B2360D3E7184B2360D0E7184B1A
:102860002360CDE7174B2360CAE7174B2360C7E708
:10287000164B2360C4E7164B2360C1E7154B23605A
:10288000BEE700BF0CF0FF1FF00700206C00002027
:10289000BD5493417483010088F5FF1F103377C046
:1028A000993918C0BE0D68BFCE71153F8D09034020
:1028B000CCC9624009A7A3407DDBD140C4160141C9
:1028C00054FC1741D0E83041195546419FAB5F4158
:1028D000A04176415E2E864138B504460D4631480A
:1028E000012107F011FA2AB200212E4807F008FA58
:1028F000204606F013FA01462A480BF049FA2D212A
:10290000284807F0C3F9204606F0E4F901462548B7
:102910000BF03EFA2D21234807F0B8F9204606F0C7
:10292000C7F901461F480BF033FA02221E491D4821
:102930000BF0F2F906F040FB09282EDD204606F0E8
:10294000DBF9014617480BF023FA204606F08CF914
:1029500001220546154913480BF0DEF9092D03DC69
:102960003021104807F092F929460E480BF010FA72
:10297000204606F08BF9012204460C4909480BF069
:10298000CBF9092C03DC3021064807F07FF92146FA
:102990000448BDE838400BF0FBB93021014807F08E
:1029A00075F9CBE78806002080830100B88201001A
:1029B0002DE9F04FDFF850A3DFF8EC829BB008F070
:1029C0002DFFDAF80030C8F80000ABB9DFF83C930F
:1029D000D9F80050002D33D0012D00F0948072B64C
:1029E000AA4B4AF202614BF2804219801A8062B609
:1029F00030BF1BB0BDE8F08F09F084FB72B6A34B6B
:102A00004AF202614BF2804219801A8062B60028B5
:102A1000DCDD012206A99E480BF064FB9DF818300E
:102A2000612BD3D10D219B480AF0C0FB9A480BF0D3
:102A300007FA9A4996480BF085F909F045FBC5E776
:102A40009748DFF8CCB2974E974F07F03DFF012132
:102A5000934807F05FF90221914807F055F92A469B
:102A600029468F4807F04CF90A2290498C480BF010
:102A700053F98B480BF0E4F90121894807F044F938
:102A800012222946864807F03BF9052288498448E6
:102A90000BF042F9DBF80010814801310BF078F9B6
:102AA000012284497E480BF037F9DBF80020824B85
:102AB0007B4853F822102B460A220BF0D1F93068DC
:102AC0002821FFF709FF3921D8F80000FFF704FF9C
:102AD000734808F035F93368D8F80020591E914240
:102AE00009DCDFF830B29BF8001021B173490968A6
:102AF000002940F0B8819A4280F22981D9F800502B
:102B0000012D7FF46CAF6E4802F05CFF012801DDFF
:102B1000FDF7ACFE6B4B93F82237002B46D0DAF86A
:102B2000003068490022DB0781F822273ED5664B3A
:102B30001D687F2D00F2958105F10C0331F813001B
:102B40000DF024FD4FF062510DF078FD06465F4B0D
:102B50001F6805F1010BBB454FDA5A4B0D3503EBEE
:102B6000450514E028880DF011FD4FF062510DF07D
:102B700065FD0446214630460DF0FEFE023510B1DB
:102B80002646CDF808B00BF1010BBB4535D0BBF1A3
:102B90007F0FE7D90024EDE7029B1860039B029AA0
:102BA00001330432042B0393029255D1484B1C6825
:102BB000002C00F01B81474A474B12681B689A4261
:102BC000FFF60DAFDAF80030002B40F0A181434B47
:102BD00000241C70FEF704F8FEF700FADAF8003063
:102BE000002B40F0848101233C2202212C4807F075
:102BF0009DFF0023C9F80030F1E6394E029B316891
:102C00008B42C0F27181002900F06E81354F3A6825
:102C1000934200F36681002A00F06381324D029CEA
:102C20002B683248E31A002B0068B8BF5B4283422E
:102C300080F22A812E4A1368013313602D4A2E4BED
:102C4000049313682D49059101330299296013609B
:102C50002B49029100230393049B53F804BB049374
:102C6000059B53F8046B05935E4597DD254B039A4E
:102C700053F822000DF08EFC029B1D68114B0BF1E6
:102C80000C04074603EB44045CE000BF0C20054045
:102C900078F5FF1F9882010088F5FF1F700500205E
:102CA0008806002074070020A8000020848301000B
:102CB000908301007484010018070020B80F0020E1
:102CC000840500201C080020141000201407002098
:102CD000800F0020E4070020EC06002030F0FF1FEA
:102CE000700000201408002080070020E00700206A
:102CF000D00000200C080020F0060020D0070020A3
:102D000000070020F00F002004F0FF1F180800202B
:102D1000B00000200408002020880DF037FC4FF0A0
:102D200062510DF08BFC39460DF03CFD0146284602
:102D30000DF07CFB0BF1010B5E4504F1020405462E
:102D40003FF42AAFBBF17F0FE6D90020EBE70D215E
:102D50007248734D0AF02AFA72480BF071F8724B00
:102D600072491A68724833680968134402682B6014
:102D7000012A0B44336000F0CE800E216D486E4F67
:102D80000AF014FA08F04AFDFEF7B2FE0B216B4878
:102D90000AF00CFA2868FEF7ABFE0B2168480AF02F
:102DA00005FA3068FEF7A4FE664B67480E21002640
:102DB00001251E60C9F800500AF0F8F959480BF0D7
:102DC0003FF8FDF73DFFAE21604807F085FD604B01
:102DD00038461E6002F002FE0B215E4887F8F6506E
:102DE0000AF0E4F94F480BF02BF887E608F016FDDF
:102DF0004B4AC8F8000013689842FFF6F0AD4A4904
:102E0000554D09682B605548514D0B44136003F034
:102E1000B1FA534B53481C700C210AF0C7F92968CA
:102E200040480AF0B5FF3F480BF00AF8FEF7D6F825
:102E3000FDF706FFDAF800302C60002B3FF4CFAD31
:102E4000FEF7D6FA484E494B3E4D49484949346051
:102E500000221A605A609A60DA602C6004600C608C
:102E6000BDE5002673E60121052008F0E7FDC82036
:102E700008F052FE2946052008F0E0FD01213A68DD
:102E800033688BF8001036E63B4BDFF8FCB01B686C
:102E9000DBF80000521A9A421CDD384B1B6898423E
:102EA00018DB0DF077FB364B19680DF0C7FB0CF003
:102EB0001BFF4FF0020E02460B46CDF800E019480A
:102EC0000BF00EF801212F480AF070F9264A13681A
:102ED0000133136000230122CBF800203B603360F4
:102EE000ACE63B601A4699E6336019468EE6FEF77B
:102EF0007FFA1D4E1D4B134D1D481E4934600022A4
:102F00001A605A609A60DA602C6004600C606AE6AD
:102F1000FEF7E8F95BE6FEF731FE2EE79883010045
:102F2000E807002088F5FF1F34F0FF1F800F002006
:102F300068000020A883010084050020B8830100F8
:102F4000C48301000C080020548101008806002081
:102F5000E40700206481010074070020CC0F0020EA
:102F600030F0FF1FD0830100780700200007002009
:102F7000700000201408002080060020C0060020F9
:102F8000B800002074840100D00000202DE9F04733
:102F900082B008F043FCB34BB34D18600121B34835
:102FA000B34C06F0B1FE0121B04806F0B3FE122288
:102FB0000021AE4806F0A4FE0422AE49AB480AF058
:102FC000ABFE2968A9480AF0E3FE0222AA49A748F5
:102FD0000AF0A2FE0622A949A4480AF09DFE236831
:102FE000002B00F00381012B00F00C81A44FA549B8
:102FF0009E4806220AF090FE39689C480AF0C8FEF6
:103000000122A14999480AF087FE98480AF018FF62
:103010002368012B00F06A810121944806F074FEB8
:103020002E6870000DF0B6FA984B19680DF006FB8B
:1030300097490DF0FBF94FF08E410DF0F7F99549E6
:103040000DF0B0FB93490DF0ADFB2368012B8146D9
:1030500000F0E1804FF07E5830460DF09BFA41467B
:103060000DF0ECFA804638688B4CDFF87CA28B4D73
:1030700030440DF08FFA014640460DF093FB884B2B
:10308000074618680DF086FA864B19680DF0D6FAD7
:10309000854B19680DF0CAF939460DF0CFFA39465B
:1030A00080464FF07E500DF0BFF9804B19680DF04F
:1030B000C5FA014640460DF0B9F9014620680DF009
:1030C00071FB7B490DF0BAFA0DF0A4FCDAF8004070
:1030D000002380462B606B60AB60EB6074B12046D0
:1030E0000DF054FA49460DF05DFB0CF0FDFD0CF0BF
:1030F00003F90DF025F9286000FB06F4DAF8040066
:1031000068B10DF043FA49460DF04CFB0CF0ECFDB4
:103110000CF0F2F80DF014F9686000FB06F0DAF834
:103120000830044473B118460DF030FA49460DF0EA
:1031300039FB0CF0D9FD0CF0DFF80DF001F9A860B7
:1031400000FB06F3DAF80C001C4468B10DF01EFA1F
:1031500049460DF027FB0CF0C7FD0CF0CDF80DF043
:10316000EFF8E86006FB00F020440DF00FFA394656
:103170000DF018FB044640460DF008FA01462046C3
:103180000DF018FCF0B901463022384806F0B8FDC1
:103190000D22484935480AF0BFFD204646490DF04A
:1031A00001FB0CF0A1FD022402460B4600942F48BF
:1031B0000AF096FE41492D48012202B0BDE8F047D1
:1031C0000AF0AABD30220021284806F099FD0E22FF
:1031D0003B4926480AF0A0FD3A492448A1FB0831A2
:1031E000090C00230A220AF03BFEE3E704223649D9
:1031F0001E480AF091FD1D480AF022FE2368012BAB
:103200007FF4F4AE0422314918480AF085FD1748CE
:103210000AF016FEEAE62E4A2E4B10781B788342FF
:1032200086BFC3F11803C018C01A0DF0B3F92A4ABB
:103230002A4B05461B781078834286BFC3F13C03B6
:10324000C018C01A0DF0A6F92549044628460DF00D
:10325000F5F921460DF0EAF822490DF0A3FA80466F
:10326000FAE600BFA800002034F0FF1F8806002007
:1032700068000020E0830100E8830100EC83010086
:10328000800F0020048401000C8401002CF0FF1F3B
:103290000000304200007A441CF0FF1F1807002095
:1032A000B80F002014F0FF1F08F0FF1F24F0FF1FCD
:1032B000000061452C84010000C0A847D8820100AD
:1032C0001C84010007452EC2F4830100FC83010029
:1032D000FD07002004100020FC070020100800203B
:1032E000000070420000B444980F0020264E274989
:1032F000274808220AF010FD3178092938DD00231B
:103300000A2223480AF0ACFD224B23491E782048AC
:1033100001220AF001FD092E03DC30211C4806F0D1
:10332000B5FC31461A481D4E0AF032FD1C491848BA
:1033300001220AF0F1FC317809291FDD00230A225D
:1033400013480AF08DFD174B13491E7810480122CF
:103350000AF0E2FC092E03DC30210D4806F096FC51
:1033600031460B480AF014FD09480AF069FD53E69E
:103370003021074806F08AFC3178C0E73021044844
:1033800006F084FC3178D9E7041000201084010095
:103390008806002010080020B8820100FD070020E8
:1033A0008C810100FC0700202DE9F04F85B0FEF76D
:1033B0007BFC08F033FADFF8DC92DFF8DCA2C9F816
:1033C00000009B48DFF894829A4D07F07DFA0121B6
:1033D000974806F09FFC0221954806F095FC0022D4
:1033E0001146934806F08CFC0822934990480AF055
:1033F00093FC01218E4806F087FC102200218C48A6
:1034000006F07EFC12228D4989480AF085FC884826
:103410000AF016FD56460024002345F8043B884870
:103420000AF00EFD86480AF00BFD0134052185489F
:1034300009F0BCFE214682480AF0AAFC80480AF046
:10344000FFFC21467A480AF0A3FC04227E49784812
:103450000AF062FC764807F073FC07217B4802F013
:103460001DFC0E21794802F077FC0C21774802F010
:1034700045FC56F8042B7649D2B2A1F10C004FF06E
:10348000384304F0AFFC002840F008811C2171484B
:1034900009F08CFE6A480AF0D3FC06226E496448A3
:1034A0000AF03AFC62480AF0CBFC614807F048FC9D
:1034B000042CB1D1694C9AF8002004F58C6528469B
:1034C00004F26C414FF0384304F08CFC002841F0CA
:1034D00042810B22624956480AF01EFC544807F00C
:1034E0002FFC41F2883008F017FB0121142008F06E
:1034F00001F85C4B5C4A1A60FEF704FA5B4B1A68F1
:103500005B4B9A4203D9594A4FF496731360594A58
:10351000574B12689A4202D9564A00231360564B01
:103520001B78172B02D9544A00231370534B1B7876
:103530003B2B02D9514A00231370514B1B78172B98
:1035400002D94F4A002313704E4B1B783B2B00F2DD
:10355000BD864D4B1B68012B02D94B4A00231360DB
:103560004FF4FA6008F0D8FA3148484D484E07F059
:10357000ABF901212E4806F0CDFB02212C4806F0C4
:10358000C3FB002211462A4806F0BAFB284807F080
:10359000D7FB4FF4167008F0BFFA0027082008F098
:1035A00071FAD0B9384A2B6812680133B2FA82F145
:1035B000092B4FEA5111D8BF00212B60002940F0A0
:1035C0008286A2F10102B2FA82F20D2B4FEA521268
:1035D000D8BF0022002A40F07686154807F074F91B
:1035E0000121134806F096FB0221114806F08CFBDE
:1035F000002211460E4806F083FB08F00FF9D9F8B7
:1036000000202B683060841A0D2B00F24981DFE81E
:1036100013F01306C605860505056C04EC03730359
:10362000D20252020902C1015A01FA00B20000BFDF
:1036300088060020980F00203C8401004884010087
:1036400088F5FF1F908301005C84010038F0FF1FA4
:1036500068050020FC8401001C850100FC0000209E
:10366000248501000CED00E00400FA0534F0FF1F92
:10367000A0860100800F0020041000201008002008
:10368000FD070020FC070020680000209C070020A8
:10369000A8000020A0000020A80F0020AB4800F1E7
:1036A0002403C8F8003002F065FE0121A84804F0A8
:1036B0009DFA002800F00F86DFF890B2ABF23C4193
:1036C000584602F023FF00283FF4E0AE98F83C345F
:1036D00013F0700F3FF4DAAE9E4BABF23C40C3F8F0
:1036E00000B004F0E7F90CF051FF9B490CF0A6FF85
:1036F000074698F804000CF04DFF014638460CF0E0
:103700009DFF0DF087F907460BF1240004F062FDE0
:103710000CF03CFF90490CF091FF0DF07BF911216A
:1037200083468E4809F042FD394600230A228C4820
:103730000AF096FB8A480AF083FBC72F8CBFC83F6C
:103740000027394600230A2245F8047C85480AF000
:1037500087FB0122844983480AF0DEFA5946002398
:103760000A2280480AF07CFB7E480AF069FB7D480B
:1037700007F0E6FA9CE67D4B042093F8008008F001
:1037800081F98246032008F07DF9794BBAF1000FE8
:1037900000F0DF861F60774B002840F0F6861A683D
:1037A000754901200A2A087041F34180734981FB61
:1037B00008014FEAE878C8EBA10101EB810149005B
:1037C000142AD4BFA1F10A08A1F16E080132B8F1A0
:1037D000000F1A60B8BF4FF03B0880F2D786634BEA
:1037E0006749604883F8008007220AF095FA5F4B2A
:1037F0001978092900F3108130215A4806F046FA59
:103800005A4B197808E15F4B042093F8008008F0C8
:1038100039F98246032008F035F9554BBAF1000F0B
:1038200000F071861F60534B002840F088861A68AC
:10383000514901200A2A087040F3D3874F4981FB80
:1038400008014FEAE878C8EBA10101EB81014900CA
:10385000142AD4BFA1F10A08A1F16E080132B8F10F
:10386000000F1A60B8BF4FF0170880F26986454B09
:1038700045493C4883F8008007220AF04DFA414B45
:1038800019780929984600F3C7803021354806F099
:10389000FDF998F80010334800230A220AF0E0FAF4
:1038A000FFF774FB07F0BAFF3921FFF715F82D4831
:1038B00007F046FAC82008F02FF93C2C7FF76EAECF
:1038C00005B0BDE8F08F314B042093F8008008F07C
:1038D000D9F88246032008F0D5F8254BBAF1000F3D
:1038E00000F083861F60234B002840F09A861A68F8
:1038F000214901200A2A087040F3A0871F4981FB53
:1039000008014FEAE878C8EBA10101EB8101490009
:10391000142AD4BFA1F10A08A1F16E080132B8F14E
:10392000000F1A60B8BF4FF03B0880F27B86174B40
:1039300017490C4883F8008008220AF0EDF9134B70
:1039400019780929984667DC9FE700BF38050020F1
:10395000FC000020E0100020BD37063A648401001E
:1039600088F5FF1F8806002078840100FC070020EE
:103970001C100020840F00207C070020676666660C
:10398000F4840100FD070020EC84010010080020F1
:10399000E0840100C84B042093F8008008F072F81E
:1039A0008246032008F06EF8C44BBAF1000F00F015
:1039B000F6851F60C24B002840F00D861A68C14989
:1039C00001200A2A087040F30887BF4981FB0801DB
:1039D0004FEAE878C8EBA10101EB81014900142A04
:1039E000D4BFA1F10A08A1F16E080132B8F1000FAD
:1039F0001A60B8BF4FF0170880F2EE85AE4BB3499E
:103A0000B34883F8008008220AF086F9AA4B197897
:103A1000092998467FF739AF00230A22AC480AF0FB
:103A20001FFA3DE70522AB49A9480AF075F9AA4BF0
:103A30000420D3F8008008F025F88246032008F01F
:103A400021F89E4BBAF1000F00F04E861F609C4B90
:103A5000002840F068861A689A4901200A2A0870EE
:103A600040F3AB86984981FB08014FEAE878C8EB40
:103A7000A10101EB81014900142AD4BFA1F10A0878
:103A8000A1F16E080132B8F1000F1A60C0F2508641
:103A9000914BB8F1010FC8BF1F6040F3DB860422D1
:103AA0008E498B480AF038F98B4B1B68012B7FF449
:103AB000F7AE00F040BE05F0E9F8DFF82C82824650
:103AC0000420C8F800A007F0DDFF8346032007F0BC
:103AD000D9FF7A4BBBF1000F00F0DE851F60784BF9
:103AE000002840F0F8851A68764901200A2A0870F3
:103AF00040F36F86744981FB0A014FEAEA7ACAEB08
:103B0000A10101EB81014900142AD4BFA1F10A0AE5
:103B1000A1F16E0A0132BAF1000F1A60C0F2E0851D
:103B2000BAF13C0FA8BF4FF0000AD8F80030DFF818
:103B3000BC815345C8F800A02FD0306805F0DCF8F0
:103B40000190306805F090F8D8F800100091824696
:103B5000306805F0ADF88046306805F0BBF8834664
:103B6000306805F0DBF804AB009903F8081D00F19C
:103B70004E0E019A8DF80A2018468DF80EE08DF849
:103B80000DB08DF80C808DF809A005F0DBF807F07A
:103B90004BFE07F043FEC9F80000072250494C488D
:103BA0000AF0BAF807F03AFE05F070F80146484806
:103BB0000AF0EEF874E605F057F8DFF83481824633
:103BC0000420C8F800A007F05DFF8346032007F03B
:103BD00059FF3A4BBBF1000F00F02D851F60384BA9
:103BE000002840F047851A68364901200A2A0870E3
:103BF00040F3D085344981FB0A014FEAEA7ACAEBE7
:103C0000A10101EB81014900142AD4BFA1F10A0AE4
:103C1000A1F16E0A0132BAF1000F1A60C0F22F85CD
:103C2000BAF13C0FA8BF4FF0000AD8F80030DFF817
:103C3000C4805345C8F800A02FD0306805F05CF868
:103C4000D8F8001001903068009105F01FF8804608
:103C5000306805F02DF88246306805F03BF8834661
:103C6000306805F05BF804AB00F14E0E03F8088DE8
:103C7000019A00998DF80A2018468DF80EE08DF80B
:103C800009108DF80DB08DF80CA005F05BF807F069
:103C9000CBFD07F0C3FDC9F80000072211490C480D
:103CA0000AF03AF807F0BAFD04F0DEFF01460848D2
:103CB0000AF06EF8F4E500BF041000201C1000208C
:103CC000840F00207C07002067666666D4840100AC
:103CD00088060020CC84010068000020F4830100E5
:103CE000C4840100BC8401007C060020EC07002095
:103CF000300700200010002004F0FEFFDFF80883EA
:103D000082460420C8F800A007F0BCFE83460320CA
:103D100007F0B8FEB44BBBF1000F00F058831F60F2
:103D2000B24B002840F072831A68B14901200A2A78
:103D3000087040F34685AF4981FB0A014FEAEA7AF1
:103D4000CAEBA10101EB81014900142AD4BFA1F102
:103D50000A0AA1F16E0A0132BAF1000F1A60C0F22C
:103D60005A83BAF1180FA8BF4FF0000AD8F80030F4
:103D700053452CD0306804F077FF0190306804F090
:103D800085FF0090306804F093FF8046306804F0AF
:103D9000A1FF8346306804F0C1FF04AB009903F82B
:103DA000081D00F14E0E019A8DF8092018468DF875
:103DB0000EE08DF80DB08DF80C808DF80AA004F09F
:103DC000C1FF07F031FD07F029FDC9F80000052209
:103DD00089498A4809F0A0FF07F020FD04F08CFF14
:103DE0000146864809F0D4FF5AE504F061FFDFF888
:103DF0001C8282460420C8F800A007F043FE8346D8
:103E0000032007F03FFE784BBBF1000F00F0B882B3
:103E10001F60764B002840F0D2821A687449012056
:103E20000A2A087040F3D184724981FB0A014FEAE3
:103E3000EA7ACAEBA10101EB81014900142AD4BF3F
:103E4000A1F10A0AA1F16E0A0132BAF1000F1A605B
:103E500040F3BA82BAF1200FA8BF4FF0010AD8F898
:103E60000030DFF8AC815345C8F800A02FD030688F
:103E700004F042FF8346306804F0F6FE8246306864
:103E800004F004FFD8F8001001903068009104F0AD
:103E900021FF8046306804F041FF04AB019A03F82B
:103EA000082D00F14E0E00998DF80EE018468DF8A1
:103EB0000C108DF80AB08DF80D808DF809A004F073
:103EC00041FF07F0B1FC07F0A9FCC9F8000004228B
:103ED0004B494A4809F020FF07F0A0FC04F0E8FE37
:103EE0000146464809F054FFDAE404F0F3FEDFF837
:103EF000248182460420C8F800A007F0C3FD834651
:103F0000032007F0BFFD384BBBF1000F00F08682A5
:103F10001F60364B002840F0A0821A683449012007
:103F20000A2A087040F37C84324981FB0A014FEA77
:103F3000EA7ACAEBA10101EB81014900142AD4BF3E
:103F4000A1F10A0AA1F16E0A0132BAF1000F1A605A
:103F500040F38882BAF10D0FA8BF4FF0010AD8F8DC
:103F60000030DFF8B4805345C8F800A02ED0306888
:103F700004F0C2FE0190306804F076FE824630689C
:103F800004F084FE0090306804F092FE83463068AE
:103F9000D8F8008004F0C2FE04AB009903F8081DB5
:103FA00000F14E0E019A8DF80A2018468DF80EE0A9
:103FB0008DF80D808DF80CB08DF809A004F0C2FECC
:103FC00007F032FC07F02AFCC9F8000006220D4970
:103FD0000A4809F0A1FE07F021FC04F07BFE01462F
:103FE000064809F0D5FE5BE41C100020840F002079
:103FF0007C07002067666666B4840100880600209E
:10400000AC840100A4840100080800200C100020EA
:1040100084060020800500202C07002004F07EFE8E
:10402000DFF8548382460420C8F800A007F02AFD78
:104030008346032007F026FDBF4BBBF1000F00F0C5
:104040003B821F60BD4B002840F055821A68BC4976
:1040500001200A2A087040F3AA83BA4981FB0A01A9
:104060004FEAEA7ACAEBA10101EB81014900142A67
:10407000D4BFA1F10A0AA1F16E0A0132BAF5FA6FB2
:104080001A60C0F23D8240F634039A45C8BF4FF42F
:10409000FA6AD8F80030DFF8E4825345C8F800A087
:1040A0002ED0306804F028FE0190306804F0DCFD6A
:1040B0008246306804F0EAFD0090306804F0F8FDB4
:1040C0008346306804F006FE0DF1100E00990EF8DC
:1040D000081DD8F80030019A8DF80D004E33704657
:1040E0008DF80A208DF80E308DF80CB08DF809A0EF
:1040F00004F028FE07F098FB07F090FBC9F80000D9
:1041000005229149914809F007FE07F087FB04F06A
:1041100005FE01468D4809F03BFEFFF7C1BB8C4B05
:104120000420D3F8008007F0ADFC8246032007F09E
:10413000A9FC814BBAF1000F00F097811F607F4B03
:10414000002840F0B1811A687D4901200A2A0870D0
:1041500040F324837B4981FB08014FEAE878C8EBF0
:10416000A10101EB81014900142AD4BFA1F10A0881
:10417000A1F16E080132B8F1000F1A60C0F2998106
:10418000744B9845C8BF4FF00008714B72496F4897
:10419000C3F80080042209F0BFFD6D4B3EE06F4B79
:1041A0000420D3F8008007F06DFC8246032007F05E
:1041B00069FC614BBAF1000F00F096801F605F4B05
:1041C000002840F0B0801A685D4901200A2A087072
:1041D00040F323835B4981FB08014FEAE878C8EB91
:1041E000A10101EB81014900142AD4BFA1F10A0801
:1041F000A1F16E080132B8F1000F1A6040F3988007
:10420000B8F5616FC8BF4FF00108544B54494F488F
:10421000C3F80080042209F07FFD504B19684B4819
:1042200009F0B6FD01224F49484809F075FD47489D
:1042300009F006FEFFF734BBDFF8048198F8003080
:10424000002B40F07F820A224749404809F064FD74
:10425000042007F017FC8046032007F013FCB8F198
:10426000000F7FF41DAB00287FF41AAB374806F02F
:104270002BFB0121354805F04DFD0221334805F0A7
:1042800043FD00221146314805F03AFDFDF75EFD81
:104290000A2236492D4809F03FFD2C4806F050FD12
:1042A00040F2DC5007F038FCFEF770FE07F0B6FA7B
:1042B0003921FEF711FB254806F042FDC82007F022
:1042C0002BFCFFF7FDBA2F60FFF787B9284A0023C0
:1042D0001370FFF73EB90146264803F087FC00281B
:1042E0007FF4EAA9FFF7D2B81A6815494FF0010E1A
:1042F0000A2A81F800E040F37882124981FB08E144
:104300004FEAE878C8EBA10101EB81014900142ACA
:10431000D4BF01F10A0801F16E0801321A60074B9F
:1043200000283FF450AFB8F1000F1F603FF768AFAF
:104330004FF4616869E700BF1C100020840F002063
:104340007C070020676666669C8401008806002062
:10435000800F0020805101009484010034F0FF1F81
:10436000E08301000C8401007C840100888401004A
:10437000FC070020FC00002008100020CC070020D3
:104380001A68C1494FF0010E0A2A81F800E040F393
:104390004B82BE4981FB0AE14FEAEA7ACAEBA101EE
:1043A00001EB81014900142AD4BF01F10A0A01F18D
:1043B0006E0A01321A60B64B00283FF42EADBAF1F6
:1043C000000F1F603FF746AD4FF01F0A47E51A6820
:1043D000AD494FF0010E0A2A81F800E040F3E18177
:1043E000AA4981FB0AE14FEAEA7ACAEBA10101EB93
:1043F00081014900142AD4BF01F10A0A01F16E0AB1
:1044000001321A60A24B00283FF48EACBAF1000FC3
:104410001F60BFF6A6AC4FF0170AA7E41A689A49C6
:104420004FF0010E0A2A81F800E040F3E18197493C
:1044300081FB0AE14FEAEA7ACAEBA10101EB8101B3
:104440004900142AD4BF01F10A0A01F16E0A0132AF
:104450001A608F4B00283FF460ADBAF1000F1F6067
:104460003FF778AD4FF00C0A79E51A6886494FF0AE
:10447000010E0A2A81F800E040F3C981834981FBDB
:1044800008E14FEAE878C8EBA10101EB810149009E
:10449000142AD4BF01F10A0801F16E0801321A6032
:1044A0007B4B00283FF44FAEB8F1000F1F60BFF602
:1044B00067AEDFF8E08168E61A6873494FF0010ED5
:1044C0000A2A81F800E040F37581704981FB0AE116
:1044D0004FEAEA7ACAEBA10101EB81014900142AF3
:1044E000D4BF01F10A0A01F16E0A01321A60684B69
:1044F00000283FF4ABADBAF5FA6F1F60BFF6C3AD4D
:1045000040F6340AC5E51A685F494FF0010E0A2AE1
:1045100081F800E040F38F815C4981FB08E1890864
:1045200001EB81014900142AD4BF01F10A0801F10D
:104530006E0801321A60564B00283FF478A91F60BC
:10454000B8F1170FD4BF5FFA88F84FF00008FFF7F3
:104550008EB91A684C494FF0010E0A2A81F800E022
:1045600040F34981494981FB08E1890801EB810158
:104570004900142AD4BF01F10A0801F16E08013282
:104580001A60434B00283FF40AA91F60B8F13B0FA3
:10459000D4BF5FFA88F84FF00008FFF720B91A6817
:1045A00039494FF0010E0A2A81F800E040F32681D4
:1045B000364981FB08E1890801EB81014900142A91
:1045C000D4BF01F10A0801F16E0801321A60304BC4
:1045D00000283FF4F3A91F60B8F1170FD4BF5FFAAA
:1045E00088F84FF00008FFF709BA1A6826494FF01B
:1045F000010E0A2A81F800E040F3D680234981FBAE
:1046000008E1890801EB81014900142AD4BF01F1B6
:104610000A0801F16E0801321A601D4B00283FF4B0
:1046200066A91F60B8F13B0FD4BF5FFA88F84FF05E
:104630000008FFF77CB91A6813494FF0010E0A2AE7
:1046400081F800E040F3DD80104981FB0AE14FEA88
:10465000EA7ACAEBA10101EB81014900142AD4BF17
:1046600001F10A0A01F16E0A01321A60084B0028B2
:104670003FF4B9AABAF1000F1F60BFF6D1AA4FF0FC
:104680003B0AFFF7D2BA00BF7C0700206766666668
:10469000840F0020805101001A6872494FF0010E0A
:1046A0000A2A81F800E040F3AF806F4981FB0AE1FC
:1046B0004FEAEA7ACAEBA10101EB81014900142A11
:1046C000D4BF01F10A0A01F16E0A01321A60674B88
:1046D00000283FF408AABAF1000F1F60BFF620AA15
:1046E0004FF03B0AFFF721BA1A685E494FF0010EFE
:1046F0000A2A81F800E040F38D805B4981FB08E1E4
:104700004FEAE878C8EBA10101EB81014900142AC6
:10471000D4BF01F10A0801F16E0801321A60534B4F
:1047200000283FF498A9B8F1000F1F60BFF6B0A9A8
:104730004F4A0123136004224E494F4809F0ECFA16
:10474000FFF7AEB8FDF702FB88F8007007F066F8D7
:10475000C9F8000077E504F23C40256001F00AFE4C
:104760000121204603F042FA00286BD0434C04F2AA
:104770003C452846214601F0C9FE00283EF4A9AE7A
:1047800094F83C3413F0700F3EF4A3AE3C4B1D6024
:10479000FEF7B2BE0AF1FF3AFFF73CBA08F1FF3864
:1047A000E8E40AF1010A2BE608F1010833E70AF10F
:1047B000FF3A62E40AF1010A97E608F1FF38FFF7D1
:1047C00061B90AF1FF3AFFF7C6BA0AF1FF3AFFF7FB
:1047D0003BBB0AF1FF3AFFF79DB908F1FF38FFF73D
:1047E00004B908F1FF38FFF739B808F1010894E57A
:1047F0000AF1010A2BE608F10108C0E608F10108F8
:10480000E3E60AF1010A2FE70AF1010A5DE708F180
:10481000010843E608F101087FE708F1FF38E9E401
:104820000AF1FF3AFFF790BB0AF1010AC1E508F16E
:10483000FF38FEF7CBBF08F101087AE608F1FF3830
:10484000FFF76CB80146204603F0D0F900288DD15F
:10485000FEF73FBEC3F80080B8F1000F7FF46BAFE6
:10486000FFF71DB97C07002067666666840F00208D
:1048700068000020FC83010088060020FC00002066
:10488000E01000202DE9F04FDFF83C93DFF83CA367
:10489000DFF83C83B14F85B0FCF7C2FCD9F800B01B
:1048A000AF4801255946CAF800500BF07BFF0CF0C9
:1048B0008BF80346CAF80430C8F800305946A948B6
:1048C00003930BF06FFF0CF07FF806465946C8F8CB
:1048D0000460CAF80860A4480BF064FF0CF074F898
:1048E00004465946CAF80C40C8F808409F480BF0E7
:1048F00059FF0CF069F89E4A039BD2F800C09D490D
:10490000C8F80C00DFF8CCE29B4AC4EB0008A41BFB
:10491000F61A013B81E848002CFA05F3C1F80C8037
:104920009E444FF00A08BEFBFCF015234FF00F0E1B
:104930001426C2F804E08C6096600024D360C2F8AC
:10494000008007F039F94FF4FA7007F0E5F83C60A1
:10495000642007F0E1F8396888481022234609F0FE
:104960007FFA864809F06CFA4FF430533B606420BC
:1049700007F0D2F84FF434533B60642007F0CCF8D2
:104980007F4B7E4819681022234609F069FA7B485C
:1049900009F056FA396879482346102209F060FA7E
:1049A000764809F04DFA774B74481968102223466F
:1049B00009F056FA714809F043FA4146724808F086
:1049C000F5FBD9F800000BF08FF9022602460B46E2
:1049D00000966A4809F084FA684809F031FA132110
:1049E0006A4808F0E3FB6A4B18680BF07DF9009603
:1049F00002460B46614809F073FA604809F020FA54
:104A00000E21644808F0D2FB634B5C48196809F03A
:104A1000BFF95A4809F014FA0E21604808F0C6FBA5
:104A20005F4B5648196809F0B3F9544809F008FA81
:104A300016215C4808F0BAFB5B4B5048196809F036
:104A4000A7F94E4809F0FCF91721584808F0AEFBC9
:104A5000574B4A48196809F09BF9484809F0F0F9A2
:104A6000544801F051FA2946304607F019F8294612
:104A7000062007F015F82946052007F011F8294609
:104A8000052006F0DBFF4FF4FA6007F045F82146F9
:104A9000052006F0D3FF484B214610201D7006F07C
:104AA000FFFF204606F0FCFB2146304606F0C6FF1D
:104AB0002946062006F0C2FF2146052006F0BEFF6B
:104AC0002146042006F0ECFF2146032006F0E8FF13
:104AD0002146082006F0E4FF2946042006F0AEFF38
:104AE0002946032006F0AAFF2946082006F0A6FF63
:104AF0004FF4FA7007F010F82B463C2231462F484D
:104B000006F014F8642007F007F82C4805F0DCFEE6
:104B100029462A4805F0FEF83146284805F0F4F801
:104B200022462146254805F0EBF842462449234811
:104B300009F0F2F8214809F083F929461F4805F0E9
:104B4000E3F811221F491D4809F0E6F81B4809F057
:104B500077F91A4806F0F4F845E000BF10D003409A
:104B600000007A440000FA4400409C4500409C4606
:104B700010F0FF1FF00F0020A80F002088F5FF1F86
:104B800014D0034018D00340308501003C8501005B
:104B9000B800002050850100C0060020608501009B
:104BA000E0070020708501001410002088850100B6
:104BB00014070020C81000200408002088060020E8
:104BC000A0850100AC850100B4000020F0060020A3
:104BD000D007002000449508B32C4FF4FA7006DC8F
:104BE00006F09AFF0134FCF7B3FA0028F4D00D2147
:104BF0008F48904EDFF8B4828F4F08F0D7FA04F058
:104C0000EFF901468D4809F0C3F88C4809F018F90E
:104C100006F004FE3060FEF7C7FB894B894A1A6034
:104C20000021022006F00AFF874805F04DFE012111
:104C3000854805F06FF80221834805F065F80022E9
:104C40001146814805F05CF806F0E8FD7F4B80498D
:104C50001B6809680246D8F8000092FBF3F4326042
:104C600003FB04337B4A3B6001290344136000F0DB
:104C7000D9800BF08FFC784ADFF834921168774CBA
:104C8000DFF830B2DFF830A20BF0D8FC4FF06E51F5
:104C90000BF0D4FC0BF098FE714AD9F8001020609C
:104CA0001468704A0C1B24EAE47582FB05322A441E
:104CB000E817C0EBE2200BF005F80AF01DFB0BF043
:104CC00017FB694C694ACBF8000004FB005482FBD7
:104CD00004322244E017C0EB62100AF0F3FF0AF03E
:104CE0000BFB0BF005FB624B0246A0EB001004EB44
:104CF000800410215F48CAF800201C6008F056FAB2
:104D0000DBF800104D4809F043F8DAF800104B4882
:104D100009F03EF8564B4948196809F039F84748F8
:104D200009F08EF80821544808F040FAD8F800102D
:104D3000424809F02DF8414809F082F808214F480F
:104D400008F034FAD9F800103C4809F021F83B4843
:104D500009F076F80E214A4808F028FA3068FCF786
:104D6000C7FE0C21474808F021FA3868FCF7C0FE5E
:104D70003B68346844481C1B152108F017FA21468B
:104D80002E4809F005F82D4809F05AF864213F48EB
:104D900008F060FBFDF71AFD0A213D4801F036FAE4
:104DA00000213B4801F00AF80E21394801F006F8CD
:104DB0000021374801F002F80B21354800F0FEFFD2
:104DC000334801F035FA334A01231946022082F8AC
:104DD000203706F033FE304B00221A6007F0EEF960
:104DE00072B62E4A4CF220504DF62811108018232E
:104DF0001180013BFDD12A4D2A482B4B40F6DF465E
:104E00004FF466444FF480612E800480198032F89C
:104E10000E3C9BB243F0D30322F80E3C62B605B0C1
:104E2000BDE8F08FFCF7AAFED8F8000021E700BF2C
:104E3000C0850100A80000207407002088F5FF1F2E
:104E4000E4100020B50700008806002000F0FF1FD6
:104E500068000020E80700202CF0FF1FEC0600206F
:104E600018F0FF1FC5B3A291F0F1FFFF8988888871
:104E700010100020D0850100E4850100F0850100BC
:104E8000A8830100FC8501000C8601000082FF1F41
:104E9000C81000201C080020180800200E20054023
:104EA00004200540062005401620054034F0FF1F71
:104EB000800F0020A4000020940F0020F8B50021EE
:104EC000054608F08FFB002855D0D5F81C71064622
:104ED000002F4ED005F58E743B1D224605F59071CE
:104EE00007F5827733F8020B42F8040FBB42F9D181
:104EF000331D05F5477206F5827733F8020B42F849
:104F0000040FBB42F9D1D5F8180180B105F59272B2
:104F100000F5007E32F9043C30F9027B03FB07F315
:104F2000DB13864522F8043C02F10402F2D105F5B8
:104F3000E5600AF0E5F895F82177EFB905F21C5C19
:104F400095F82027E64605F21C7154F8043F23FB30
:104F500003F3B3FBF2F34EF8043F7145F5D17B1C2C
:104F6000DBB2934220D085F82137D5F81C0108F038
:104F7000F5FAC5F81C61F8BD05F21C5C95F8202710
:104F8000E64605F21C7154F8043F23FB03F35EF878
:104F9000040FB3FBF2F38E450344CEF80030F2D198
:104FA0007B1CDBB29342DED10023DFF83CE085F8C6
:104FB0002137604605F1160750F8044FB4FA84F320
:104FC00081423EF81320B4FBF2F31A444FEA520335
:104FD000B4FBF3F423444FEA530327F8023FEBD129
:104FE000012385F82237C0E764880100002070475C
:104FF0000020704738B50F29114C28BF0F210F2A08
:1050000028BF0F220D46017A204642EA051501F01D
:1050100027F82046002100F0D1FE2046202100F094
:10502000CDFE2046002100F0C9FEE9B2204600F086
:10503000C5FE204601F0FCF8B0FA80F0400938BD0A
:10504000C8100020F8B5C34C01260546067120465D
:1050500000F05AFF052006F05FFD297A204600F097
:10506000FFFF2046002100F0A9FE2046302100F07D
:10507000A5FE2046402100F0A1FE6021204600F060
:105080009DFE204601F0D4F8297A204600F0E8FF82
:105090002046002100F092FE2046262100F08EFEE0
:1050A0002046002100F08AFE6C21204600F086FE9A
:1050B000204601F0BDF8297A204600F0D1FF2046B5
:1050C000002100F07BFE2046282100F077FE3146CB
:1050D000204600F073FEF221204600F06FFE2046CD
:1050E00001F0A6F8297A204600F0BAFF20460021F8
:1050F00000F064FE20462C2100F060FE20460F21C7
:1051000000F05CFE2221204600F058FE204601F00F
:105110008FF8297A204600F0A3FF2046002100F0F6
:105120004DFE20463C2100F049FE2046442100F07F
:1051300045FE4621204600F041FE204601F078F869
:1051400040F23713EB80297A204600F089FF204691
:10515000002100F033FE2046242100F02FFE3146CE
:10516000204600F02BFE3721204600F027FE204687
:1051700001F05EF8297A204600F072FF20460021F7
:1051800000F01CFE2046302100F018FE2046402191
:1051900000F014FEFF21204600F010FE204601F032
:1051A00047F8297A204600F05BFF2046002100F0F6
:1051B00005FE2046022100F001FE2046002100F0FD
:1051C000FDFD7321204600F0F9FD204601F030F886
:1051D0004FF4C87006F0A0FC297A204600F040FF8A
:1051E0002046002100F0EAFD20462E2100F0E6FDD9
:1051F00020461D2100F0E2FD1D21204600F0DEFDCD
:10520000204601F015F8297A204600F029FF2046B3
:10521000002100F0D3FD2046042100F0CFFD204600
:10522000002100F0CBFD0421204600F0C7FD204600
:1052300000F0FEFF297A204600F012FF20460021F0
:1052400000F0BCFD2046062100F0B8FD31462046A6
:1052500000F0B4FD3021204600F0B0FD204600F003
:10526000E7FF297A204600F0FBFE2046002100F0EF
:10527000A5FD20460A2100F0A1FD2046002100F0F6
:105280009DFD1021204600F099FD204600F0D0FF42
:10529000297A204600F0E4FE2046002100F08EFD31
:1052A00020460E2100F08AFD2046002100F086FDF8
:1052B0000021204600F082FD204600F0B9FF297A47
:1052C000204600F0CDFE2046002100F077FD20466C
:1052D000102100F073FD20463C2100F06FFD3C21C1
:1052E000204600F06BFD204600F0A2FF297A204600
:1052F00000F0B6FE2046002100F060FD204622218D
:1053000000F05CFD20467F2100F058FD7F21204603
:1053100000F054FD3627204600F08AFF297AEF80FE
:10532000204600F09DFE2046002100F047FD20466B
:10533000242100F043FD2046002100F03FFD3946C6
:10534000204600F03BFD204600F072FF6E723046B2
:10535000F8BD00BFC81000200B462DE9F0414549BB
:10536000054618460BF06AF943490BF05FF80BF05D
:1053700051FB044600284CD080281FD92B790024EB
:1053800026462BBB297A3D4800F06AFE00213B48A7
:1053900000F014FD2221394800F010FD3146374855
:1053A00000F00CFD2146354800F008FD334800F0C0
:1053B0003FFFB0FA80F04009BDE8F081C0F1800401
:1053C0002B7944EA0424C4F30726E4B2002BD9D095
:1053D000EF88297A294827F010074FF00008EF805E
:1053E00085F8048000F03CFE4146244800F0E6FCCD
:1053F0002421224800F0E2FC390A204800F0DEFCBB
:1054000007F0EF011D4800F0D9FC1C4800F010FF28
:10541000B8E701232B71297A184800F021FE2146B4
:10542000164800F0CBFC2221144800F0C7FC7F2175
:10543000124800F0C3FC7F21104800F0BFFC0F4869
:1054400000F0F6FEEE88297A0C4846F01006B6B257
:10545000EE8000F005FE2146084800F0AFFC242154
:10546000064800F0ABFC310A044800F0A7FCF1B29A
:1054700099E700BF00000143EE7CFF3EC81000200A
:1054800070B505460C4619B101293BD0002070BD0E
:10549000017A424800F0E4FD2146404800F08EFCCD
:1054A00020213E4800F08AFC21463C4800F086FC62
:1054B00055213A4800F082FC384800F0B9FE064613
:1054C0000028E3D1EC88297A344844F00404A4B2DB
:1054D000EC8000F0C5FD3146304800F06FFC24211F
:1054E0002E4800F06BFC210A2C4800F067FCE1B26A
:1054F0002A4800F063FC294800F09AFEB0FA80F0D8
:10550000400970BD017A254800F0AAFD002123481A
:1055100000F054FC2A21214800F050FC21461F488D
:1055200000F04CFC73211D4800F048FC1B4800F0C3
:105530007FFE04460028A9D1297A184800F090FD82
:105540002146164800F03AFC2021144800F036FCB1
:105550002146124800F032FC8821104800F02EFC51
:105560000E4800F065FE044600288FD1EE88297AA7
:105570000A4826F00406EE8000F072FD2146074836
:1055800000F01CFC2421054800F018FC310A0348F7
:1055900000F014FC06F0FB01AAE700BFC8100020D1
:1055A00010B5044608F0B8F9204610BD024A034978
:1055B00003480BF0C3BB00BFFCEFFF1FA155000069
:1055C000201000201B4A1C4B11681C48096970B44C
:1055D00099421279027009D2194A127832B3194AE3
:1055E0004FF08041116003F5807402E01C46A3F582
:1055F0008073154A154912680D68AAB1A5B1144EF9
:105600003088402810D841000A44403029440232F2
:105610000231308033F9040B22F8020F9C4233F937
:10562000020C21F8020FF5D870BC704703F58074A6
:10563000DFE700BF3010002090E8FF1F1F80004010
:105640002A10002008E200E0381000202C10002072
:1056500028100020F8B5064607F02CFF0446E8B1F4
:1056600007F028FF054600283AD072B61F4B1A886B
:105670007F2A19D8002C31D01D490A6842B162B680
:10568000204607F06BFF2846BDE8F84007F066BFEC
:1056900018480C601A80056062B6F8BD054672B6FF
:1056A000124B1A887F2AE5D9114A124917681460EB
:1056B00000220C681A800D6062B63946304607F049
:1056C00077FF384607F04AFF30462146012207F0AF
:1056D0006FFF2046BDE8F84007F040BF62B6F8BD56
:1056E000204607F03BFF2C46BFE700BF28100020F4
:1056F000381000202C100020F8B5284C284E2046E9
:10570000012108F06BF800F083F8264B264A274861
:105710004FF480611960236800211A609980227912
:10572000186102F1804202F5043240F20110D88083
:105730009E614FF48075022006278E26DD82D96097
:10574000DD8398609F8398821170167007F0ECFFDC
:105750001749184B2279184F08701A703968227946
:10576000164C174D174E41F0124141F001015311F3
:1057700039609B00206803F1604302F1100703F5D4
:10578000614302F01F02012140F0104001FA02F2D1
:10579000206045F827601A60F8BD00BF3010002077
:1057A00000FEFFFF14B00440A0F0024090E7FF1F8E
:1057B0002A1000201B80004080F0024000F00240D0
:1057C00000EAFF1FC5550000024A034903480BF0D9
:1057D000B5BA00BFFCEFFF1FA1550000301000203C
:1057E000024A034903480BF0A9BA00BFFCEFFF1FB0
:1057F000A15500003C100020024A034903480BF069
:105800009DBA00BFFCEFFF1FA1550000441000200F
:10581000284B29491A68294842F400421A600A684C
:1058200042F002020A601A6842F002021A6003683B
:10583000002B3DDB224B1B68002B39DB214A4FF04C
:10584000864313601368002BFCDBF0B51E4C1F4829
:10585000DFF8ACE01E491F4B1F4A204F204E214D60
:1058600047F2320CC4F800C0002404600120CEF8D6
:105870000000DFF890E0C1F800E04FF480311960DB
:10588000194B1360DFF880E0184A3A6034602860F2
:105890001748CEF80000174CB9671748174946F863
:1058A000503C4FF4C0632A61236003600B60F0BD7D
:1058B000704700BF3C8004404080044000F002403C
:1058C00080F0024000F1024004F1024060F002402A
:1058D00008F002400CF0024010F0024014F00240C8
:1058E000E0F0024084F002401B0F0100000F0F0F98
:1058F0000300004708B004400CB0044018B0044056
:1059000004F002400300000788F00240024A034905
:1059100003480BF013BA00BFFCEFFF1FA1550000B6
:105920004C100020024A034903480BF007BA00BF9D
:10593000FCEFFF1FA155000054100020024A03494C
:1059400003480BF0FBB900BFFCEFFF1FA15500009F
:105950005C100020024A034903480BF0EFB900BF76
:10596000FCEFFF1FA155000064100020024A03490C
:1059700003480BF0E3B900BFFCEFFF1FA155000087
:105980006C10002010B50021044607F02BFE98B1E2
:1059900094F8F6308BB194F8F43094F8F520013394
:1059A000342BC8BF0023934207D09A1D04EB820218
:1059B000DBB2506084F8F43010BDBDE8104007F051
:1059C000CDBD00BF90F8F42090F8F530D0B2DBB236
:1059D000984238BF3530C01A704700BF38B5054609
:1059E000D0F8F00020B107F0B9FD0023C5F8F03081
:1059F00095F8F54095F8F430E4B2DBB29C420ED055
:105A00000134352C28BF0024A31D05EB83035868FF
:105A100007F0A4FD95F8F430DBB29C42F0D1DBB284
:105A200085F8F53038BD00BF0246D0F8F000B0B9B7
:105A300092F8F53092F8F410DBB28B4210D00133BB
:105A4000342B86BF01460B46D9B2063302EB8303E3
:105A50005868C2F8F00082F8F51004307047002052
:105A6000704700BFD0F8F03043B110B50446184677
:105A700007F074FD0023C4F8F03010BD704700BF7C
:105A800010B4047F4160022CC26002D010BC07F049
:105A90005DBF836810BC1847F0B4464B464A186B8C
:105AA000DC6A01791170454922790A709A6A007995
:105AB0000870002A46D05968C9688A423ED82168D1
:105AC000CC8B240402F1FF3065D4C0F30E00C883F0
:105AD000C88B80B2C882196B0968C88B000452D485
