:1000000000800020BD01000001B90000B9B8000067
:10001000B9B80000B9B80000B9B80000B9B800001C
:10002000B9B80000B9B80000B9B8000001B90000C3
:1000300001B90000B9B80000C5DC000015DF000000
:1000400001B9000001B9000001B9000001B90000C8
:1000500001B9000001B9000001B9000001B90000B8
:1000600001B9000001B9000001B9000001B90000A8
:1000700001B9000001B9000001B9000001B9000098
:1000800001B9000001B9000001B9000001B9000088
:1000900001B9000001B9000001B9000001B9000078
:1000A000755F000001B9000001B9000001B900004E
:1000B00001B9000001B9000001B9000001B9000058
:1000C00001B9000001B9000001B9000001B9000048
:1000D00001B9000001B9000001B9000001B9000038
:1000E00001B9000001B9000001B9000001B9000028
:1000F00001B9000001C5000001B900008DE9000050
:1001000001B90000B9EA000001B9000001B900001E
:1001100001B9000001B9000001B9000001B90000F7
:1001200001B9000001B9000001B9000001B90000E7
:1001300001B9000001B9000001B9000001B90000D7
:1001400001B9000001B9000001B9000001B90000C7
:1001500001B9000001B9000001B9000001B90000B7
:1001600001B90000C1C7000001B9000001B90000D9
:1001700001B9000001B9000001B9000001B9000097
:1001800001B9000001B9000001B9000001B9000087
:1001900001B9000001B9000001B9000001B9000077
:1001A00001B9000001B9000001B9000001B9000067
:1001B00001B9000001B9000051DA0000564B4CF2C1
:1001C000205210B51A804DF628121A8000BF00BFC9
:1001D00000F090FB514B4FF010621A60504A9A6049
:1001E000504ADA60504A136813F4807304D14F49BF
:1001F0000B604FF4A85313604D4B1A78110703D5C9
:100200001A7842F008021A704A4B4B492A221A7097
:100210004A4A4B4B8B4204D252F8040F43F8040B6A
:10022000F8E7484B484900228B4202D243F8042B9E
:10023000FAE74649464A002352F8230041F82300D2
:1002400001336F2BF8D1434B434A802103F8011B44
:100250009342FBD1414B3D4A1A60414B8A221A70AE
:10026000A3F5805324225A70A0221A709A7992071B
:10027000FCD59A79D406FCD43A4A937903F00C035E
:10028000082B384BF9D105221A7143225A719A79F9
:100290009006FCD5334A9179324B4906FBD5324A58
:1002A0004FF0817111600521516020221A709A79F6
:1002B00002F00C020C2AFAD12C4B2D4A1A602D4B5D
:1002C0002D4A1A6000225A60072243F8042C2B4A58
:1002D000C3F80C2D62B60BF035FC144B1B68DA0723
:1002E00005D527480BF01CFC264B274A1A60274BE4
:1002F0001B785B0609D5234C234B22689A4204D114
:100300001F480BF00DFC0023236010F0A9FE0BF03A
:10031000FBFA0EF043FAFEE70E2005403080044061
:10032000823F04000100002B10D0034014D0034092
:1003300002D0074000E00740E8FFFF1FF0910200F5
:1003400020EFFF1FE8FFFF1FA014002000EAFF1F9F
:100350000000000000E400E05FE400E008ED00E0E1
:1003600000500640004006404480044004800440A1
:10037000C010050014E000E03F190100000020203B
:1003800033AA775D1CE00340A5C3945A00F00740F0
:10039000FFFFFFFFFFFFFFFFFFFFFFFFFFFFFFFF6D
:1003A000FFFFFFFFFFFFFFFFFFFFFFFFFFFFFFFF5D
:1003B000FFFFFFFFFFFFFFFFFFFFFFFFFFFFFFFF4D
:1003C000FFFFFFFFFFFFFFFFFFFFFFFFFFFFFFFF3D
:1003D000FFFFFFFFFFFFFFFFFFFFFFFFFFFFFFFF2D
:1003E000FFFFFFFFFFFFFFFFFFFFFFFFFFFFFFFF1D
:1003F000FFFFFFFFFFFFFFFFFFFFFFFFFFFFFFFF0D
:10040000FFFFFFFFFFFFFFFFFFFFFFFFDEF9FFFF23
:1004100010B5054C237833B9044B13B10448AFF33E
:1004200000800123237010BDE8FFFF1F00000000C3
:10043000EC910200084B10B51BB108490848AFF316
:1004400000800848036803B910BD074B002BFBD0A0
:10045000BDE81040184700BF00000000ECFFFF1F80
:10046000EC910200E8FFFF1F000000000020704731
:10047000704700BF027C02F0080202F0FF0332B1B5
:10048000C36A406A181A48BF6FF0004070471846A8
:10049000704700BFF8B55548554D564C297803783C
:1004A0002278DFF868E1544F544E120442EA0323E5
:1004B000FF222A700270802022708EF800003870AF
:1004C000B2794F480B4312F00C0FC36002D1B379DD
:1004D000DC063DD4494A9379C3F38103032B40D012
:1004E000464B9A79C2F38102022A42D0434A937959
:1004F000C3F38103022B53D0404A9379C3F38103A2
:10050000022B61D03D4A9379C3F38103012B51D073
:100510003A4A9379C3F38103012B5CD0374B9A7924
:1005200012F00C0F03D19A79D20600D49B79354D85
:10053000354B2A7853F82240D4B1236820469B6873
:1005400098472B7804EB83046468002CF5D1F8BD40
:10055000B3799806EBD5294A9379C3F38103032B2A
:10056000BED19379D906BBD493799B06DFD4B7E784
:10057000F8BD9A79D706B9D49A799606B6D559783E
:1005800001F0020101F0FF020029AFD120211A7011
:100590001A461970937903F00C030C2BFAD1C6E7B5
:1005A0009379DD06A8D493799C06A5D4537898074F
:1005B000BDD5A1E79379DF06AAD593799E06A7D486
:1005C00053789D07B3D4A3E79379D9069AD4537887
:1005D0009B07ACD496E79379DC069FD59379980670
:1005E0009CD453789907A2D598E700BF06C007406E
:1005F00005C0074007C0074009C00740004006404B
:100600007814002038110020F810002008C007409E
:1006100090F92410104B03604B1C06D0F0B40F4E21
:1006200056F82130984201D0F0BC70470C4F57F873
:10063000213033B18D0000245A1953685460002BC7
:10064000FAD1084C23780022013B237047F821207F
:1006500046F82120E8E700BF8C8301001811002034
:10066000F81000203911002038B590F924506B1C87
:100670001BD00E4B0E4953F825400E4BEDB24FF0F8
:10068000FF320D701A6084B1AD0002E02C44646842
:100690005CB194F82530002BF8D0236820462C4418
:1006A0001B6898476468002CF3D138BDF81000200F
:1006B0003811002090E9FF1F704700BF90F9241007
:1006C000104B03604B1C06D0F0B40F4E56F821308F
:1006D000984201D0F0BC70470C4F57F8213033B12D
:1006E0008D0000245A1953685460002BFAD1084C2D
:1006F00023780022013B237047F8212046F821206F
:10070000E8E700BF8C83010018110020F8100020DA
:100710003911002090F92410104B03604B1C06D0B7
:10072000F0B40F4E56F82130984201D0F0BC70471B
:100730000C4F57F8213033B18D0000245A195368FB
:100740005460002BFAD1084C23780022013B23701F
:1007500047F8212046F82120E8E700BF8C830100FC
:1007600018110020F810002039110020083006F080
:1007700053BA00BF103006F04FBA00BF00B583B0C7
:1007800002AB012203F8011D1030194606F044FAAD
:1007900003B05DF804FB00BF00B583B002AB0122DB
:1007A00003F8011D0830194606F036FA03B05DF86B
:1007B00004FB00BF2DE9F0410E4680460BF0AAF97C
:1007C000174D286008F026FC0746286808F0FEFB55
:1007D0000446286808F0E8FB6401C0B204F4FF5442
:1007E000BFB20443A7F2BC7744EA4724A8F800400C
:1007F000286808F0FDFB0746286808F0B1FB0446AE
:10080000286808F0BFFBFF02640107F4FF2704F427
:10081000FF54C0F346003C4304433480BDE8F081FC
:10082000A8000020103006F0D3B800BF00B583B098
:1008300001220DF10701103006F004F801280CBF69
:100840009DF807004FF0FF3003B05DF804FB00BFD8
:10085000103006F093B900BF083006F08FB900BF22
:1008600010B504460DF07AF8204610BD00B51B48BF
:10087000ADF5017D05F0E8F84FF480720146684659
:100880000AF080FD154805F0FDF8144805F0DCF885
:100890004FF4807201460DEB02000AF073FD0F4821
:1008A00005F0F0F869464FF400720D4806F0B4F90F
:1008B00001300BD00B480C4902680B680132013340
:1008C00002600B600DF5017D5DF804FB0121142031
:1008D0000AF08CFF054B064A1A60EBE784050020FE
:1008E000D00F0020E8070020281000200CED00E0C9
:1008F0000400FA05464A474B102010801B781B075E
:1009000034D5F0B5444E454D454C31782B7822789E
:10091000DFF82CE1434F824042EA03230B43FF22DE
:10092000802132702A7022708EF800103970D90739
:100930003D4A14D51A2393603C4F3D4E3D4D3E4CED
:100940003E49107900233B7053709370D370D3608D
:10095000337013712B70237013700870F0BD1F0774
:1009600005D4DE0606D504239360E5E7704721230E
:100970009360E1E79D0604D45C0604D516239360DA
:10098000DAE79060D8E7180602D509239360D3E729
:10099000D90502D50A239360CEE79F0502D50D2322
:1009A0009360C9E75E0502D50B239360C4E71D057C
:1009B00002D51E239360BFE7DC0402D502239360B7
:1009C000BAE7980402D507239360B5E7590402D526
:1009D00006239360B0E71F0402D515239360ABE7AD
:1009E000DE0302D524239360A6E79D0302D52223CC
:1009F0009360A1E7DC0202D5252393609CE71803EE
:100A0000F5D45903F3D49B0244BF2323936093E7A7
:100A10000020054002D0074005C0074006C007403F
:100A200007C0074009C007407814002000C00740F5
:100A300001C0074002C0074003C0074004C0074090
:100A400008C00740002976D02DE9F04F0C469100F0
:100A5000631883B05D68002D57D06B185E68002E58
:100A600050D073185F68002F49D07B18D3F80480EA
:100A7000B8F1000F3CD008EB0103D3F80490B9F1B2
:100A8000000F32D009EB0103D3F804A0BAF1000F34
:100A900027D00AEB0103D3F804B0BBF1000F18D044
:100AA0000BEB01035B6863B1194401934968FFF7DD
:100AB000C9FF019B93F825201AB11A68184653689C
:100AC00098479BF8253023B1DBF8003058465B6827
:100AD00098479AF8253023B1DAF8003050465B6821
:100AE000984799F82530002B35D198F8253063BB0D
:100AF00097F825301BB13B6838465B68984796F8F5
:100B00002530CBB995F8253063B994F8253013B961
:100B100003B0BDE8F08F23685B68204603B0BDE8F2
:100B2000F04F18472B6828465B68984794F82530A3
:100B3000002BEDD0EFE77047336830465B6898478D
:100B400095F82530002BE0D0ECE7D8F8003040468F
:100B50005B689847CCE7D9F8003048465B6898470F
:100B6000C3E700BF90F92420531C26D01B4B2DE96E
:100B7000F04153F82240D2B2ECB19300E1184D6835
:100B8000B5B1E9184E6866B1F1184F6837B13B440A
:100B90005968FFF757FF97F82530A3B996F8253025
:100BA00063B995F825301BB12B6828465B689847D8
:100BB00094F8253063B9BDE8F0817047336830465A
:100BC0005B689847EDE73B6838465B689847E5E720
:100BD000236820465B68BDE8F0411847F810002004
:100BE00070B5104C104D11480D210CF05BFC2046E7
:100BF0000DF0A2FA2E880E4810210CF053FC31465D
:100C000020460DF041FA20460DF096FA094A0A4BAB
:100C100012882A80002283F8F6200848BDE8704038
:100C200005F0B8BB88F5FF1FFC120020A48301006B
:100C3000B48301002413002084050020D00F00207D
:100C40002DE9F04F99B00AF065FFA34CA34D206049
:100C500008F0BCF92B68DFF8E892834240F0B081DD
:100C600099F80030002B40F0AB810DF12C0A0021E7
:100C700010200BF091F8206808F0CCF905462068A8
:100C800008F0A4F90990206808F08EF9064620685B
:100C900008F0AEF90746206808F062F9804620683F
:100CA00008F070F98E4A834610680FF099F9099B95
:100CB0008C4A0093CDE906012B460592CDF810B081
:100CC000CDF80C8002970196874A8849884811F030
:100CD00039F8002519E0206808F066F90646206812
:100CE00008F086F98046206808F03AF9074620683F
:100CF00008F048F9CDF8008002900197334603953B
:100D0000794A7C497A4811F01DF800260123784A77
:100D100079498DF82C6050468DF82D6005F0F2FC75
:100D200001350028D7D180467148744F744E754DF7
:100D3000DFF800B211F0C4F801466D480CF0B2FBC8
:100D400071480DF0F9F94FF47A74C223684A6A4980
:100D50000D940FA88DF83C808DF83D808DF8308083
:100D60008DF838800B9705F0CDFC0DF13C0EBEE8F8
:100D70000F0006F110040FC4BEE80F000FC4DEF828
:100D800000100D9A9DF830E09DF83830216086F80B
:100D900004E0B26033730D215C480CF083FB317CBE
:100DA0005948003118BF01210DF06EF956480DF079
:100DB000C3F9344641E02B6855494D4801331A4682
:100DC0002B6010F0BFFF4A4811F07AF801464848FE
:100DD0000CF068FB4C480DF0AFF94FF47A7EC2235B
:100DE000434A4549CDF834E00FA88DF83C808DF892
:100DF0003D808DF830808DF838800B9705F082FCAF
:100E00000DF13C0CBCE80F00DFF824E1AEE80F0068
:100E1000BCE80F00AEE80F009DF8383023732B6854
:100E2000DCF800009DF830100D9ACEF80000B3F504
:100E30007A7F2171A26000F3858096F81080B8F166
:100E4000000FB8D033483449D0F80080334C344ACE
:100E5000344B354E03C9206092E80300A06093E84C
:100E6000030010270125E06027614046A582E58246
:100E70000FF04CFF4146A06140460FF053FC0FF0CD
:100E800045FF2A4AE06192E80300336860625B0232
:100E900002206784208403F1240721462C22244861
:100EA000A362676005F0B8FE2C2806D029461420FE
:100EB0000AF09CFC1F4B204A1A6009211F480CF0C5
:100EC000F1FA316810480DF0DFF80F480DF034F9F1
:100ED00019B0BDE8F08F00BFA8000020180700205F
:100EE0006C000020BC00002004100020E083010002
:100EF000040000200C84010038050020508301000C
:100F0000C00F00200408002088F5FF1F288401007E
:100F1000388401002CF0FF1F44840100740000207D
:100F20004C84010054840100EC0600205C84010024
:100F3000D00F00200CED00E00400FA0564840100ED
:100F40008C0F0020DFF80481D8F800300133042B27
:100F5000C8F800305FD0DFF8F880344A08F58C6AB2
:100F600012F82320504608F26C414FF0384307F046
:100F7000B5F800283FF461AF08F23C40C8F800A083
:100F800005F008FA0121404606F0ACFF00283BD0EE
:100F9000DFF8BC8008F23C4A5046414605F032FC7E
:100FA00000283FF44AAF98F83C3413F0700F3FF438
:100FB00044AF1F4A0123C2F800A089F800303CE783
:100FC0000A2100261B4889F800600CF06BFA1A48C9
:100FD0000DF0B2F8206807F0F9FF2860206808F0EB
:100FE00019F80DF12C0A2B6814490246144810F028
:100FF000A9FE50460123124A12498DF82C608DF843
:101000002D6005F0E3FA32E60146404606F06AFF3D
:101010000028BDD111E7012114200AF0E7FB0A4B9B
:10102000CBF80030D8F8003095E700BFAC0F0020B7
:10103000F0100020C883010088F5FF1FD483010051
:1010400004100020380500200400FA05B00000203C
:10105000FC0000202DE9F047414C424D22684248F7
:1010600055F822301021013B45F822300CF01AFAD5
:1010700023683E4855F823100A2200230DF06CF82F
:101080003A480DF059F8236855F82320002A52D128
:101090000133DFF8FC9023600122042B89F8002043
:1010A00026D0DFF8E880324E08F58C6A314916F810
:1010B0002320A1F10C004FF0384307F00FF8F8B9E6
:1010C0001E212D48264F0CF0EDF9216827480131EB
:1010D0000CF0DAFF25480DF02FF8236855F823208F
:1010E000012101333ABB042B3B6089F80010DDD1AC
:1010F0000E2122480CF0D6F91C480DF01DF8FEE731
:101100001F4FC8F800A0384605F044F90121A7F2A6
:101110003C4006F0E7FE0146D8B1A7F23C41384614
:1011200005F070FB0028CBD098F83C3413F0700F1A
:10113000C6D0144B1F600E2113480CF0B3F9216880
:101140000A4801310CF0A0FF0848BDE8F0470CF058
:10115000F3BF0E4806F0C6FE0028DED1B0E700BFA0
:10116000B00000201C070020FC84010088F5FF1F50
:10117000AC0F0020680500203085010010850100BB
:1011800038050020F010002020850100FC00002020
:101190008C0F0020F0B5092187B02948294D2A4E2F
:1011A0000CF080F929480CF0C7FF0BF083F90121FE
:1011B00027480BF0A1F80BF003F92B680093009A75
:1011C000326005E00BF01AF90A2804460AD03268AA
:1011D0002B680193019B1B4F9B1A632BF2D90020B4
:1011E00007B0F0BD024603A91A480DF0F7F803A8AE
:1011F0000FF026FF0D21054617480CF053F93B6808
:1012000002930299336811482246C91A00230CF050
:10121000A3FF0E480CF090FF214610480CF042F955
:1012200029460A480CF030FF08480CF085FF284694
:101230000AF076FC0A4B28461D6007B0F0BD00BFDF
:1012400050850100601100207807002088F5FF1FFD
:101250002486010078F5FF1F5C8501006C85010084
:1012600010070020F0B587B072B62549254B2648F7
:1012700041250E2480220D70047019461A700B78D7
:10128000204A1806FBD5214B21491D78214C2248C4
:101290000D70033B247800781B78CB704C708870FD
:1012A00062B672B61648184C41260F258023067088
:1012B00025701046137003781B06FCD5134C154897
:1012C000154A164B2478007812781B78CB710C7174
:1012D00048718A7162B64B780A78CF798E794D79E8
:1012E0000C79C87889780091019005970496039548
:1012F00002940B490B4810F025FD07B0F0BD00BF6C
:101300000700024000000240060002400B000240BD
:10131000900F00200A00024009000240080002402D
:1013200078850100BC0000202DE9F0470A2182B039
:101330003448354C354D0CF0B5F835480CF0FCFE12
:1013400004F1100A54F8046B324930460FF0AEFC39
:1013500000284FD028680FF099FA014630460FF068
:101360009DFB0EF03DFE0EF0CBF92B4B06461868A8
:101370000F460EF035FE0EF0C3F900228046894676
:10138000264B304639460EF07FFE002206460F46B9
:10139000234B404649460EF077FE02460B46304648
:1013A00039460EF0BDFC0FF067F91E4B19680FF0BF
:1013B000B7F91D4B19680FF0B3F90EF011FE0226B4
:1013C00002460B46009612480CF006FF10480CF03F
:1013D000B3FEA245B6D10A2114480CF063F8144BB1
:1013E0000B4819680CF050FE094802B0BDE8F04700
:1013F0000CF0A2BE28680FF049FA014630460FF003
:101400004DFBDAE79C850100000700201008002052
:1014100088F5FF1FACC52737B4000020000034401A
:101420000000244020F0FF1F6C000020A885010070
:101430007C0700202DE9F04D4C494D484D4DDFF81B
:1014400074A1DFF874B1DFF8748182B00DF02CF86C
:10145000494B474819680DF0EBF8002455F8046B28
:10146000464930460FF022FC00286CD0444B1868E7
:101470000FF00CFA014630460FF010FB0EF0B0FDF5
:101480000EF03EF90646DAF800000F460EF0A8FD11
:101490000EF036F90022CDE900013A4B30463946CC
:1014A0000EF0F2FD002206460F46374BDDE9000143
:1014B0000EF0EAFD02460B46304639460EF030FC8F
:1014C0000FF0DAF8DBF800100FF02AF9D8F8001066
:1014D0000FF026F90FF0F4FB2C49064624480DF0D6
:1014E00015F8214622480DF055F8294920480DF0FD
:1014F0000DF8013431461E480DF04CF8042CADD1E6
:1015000024491B480DF002F8234B194819680DF0C7
:1015100041F8224916480CF0F9FF214A214B126884
:10152000134853F822100DF0D1F81F4910480CF061
:10153000EDFF0F491D480CF081FD1C4802B0BDE8CD
:10154000F04D0CF0F9BDDAF800000EF049FD0EF098
:10155000D7F800220C4B0EF097FD02460B460020F8
:1015600013490EF0DDFB0FF087F8ABE7C4850100EF
:101570007005002000070020A8000020ACC5273718
:10158000100800200000344000002440CC850100F9
:10159000DC850100D08501007C070020D885010092
:1015A000B00000201C070020E085010088F5FF1F27
:1015B000000058C0B400002020F0FF1F6C00002085
:1015C0002DE9F0438FB0044610F07AFC00B20128F8
:1015D00018DDB4F9003044F65212934200F07D81D8
:1015E00014DC44F25242934200F06B8144F2537295
:1015F000934207D10BAAE01CC04910F0C9FBC04BB5
:101600000B9A1A6001200FB0BDE8F08344F65452E3
:10161000934200F0AA8045F253229342F2D10AADE0
:1016200009A908AA05ABE01C039502910192009359
:1016300007AA06ABB34910F0ABFBB34B079D596843
:1016400018689A680A9EDDF824E0DDF820C0A5F548
:10165000FA65ADB20BAF2CB207C7069F05991E34D1
:1016600015F0030F4FEAA408FDB240F04581A74BE7
:10167000022D8CBF1F460027A548A64BC8EB0404CB
:1016800000FB08F06A1E03FB0400002A00EB0703BE
:1016900047DD9DF82C409D48012A00FB043340D0D3
:1016A0009DF82D40022A00FB04333AD09DF82E40CD
:1016B000032A00FB043334D09DF82F40042A00FB9A
:1016C00004332ED09DF83040052A00FB043328D087
:1016D0009DF83140062A00FB043322D09DF83240A9
:1016E000072A00FB04331CD09DF83340082A00FB76
:1016F000043316D09DF83440092A00FB043310D07F
:101700009DF835400A2A00FB04330AD00B2A9DF8C5
:10171000364018BF9DF8372000FB043318BF00FB8C
:1017200002335FFA8EF2C2EB02125FFA8CF04FF4D2
:101730006164920004FB0022744D774C7748C9B273
:10174000013952FA86F205FB01221344122123606B
:101750000BF0A8FE216872480CF096FC70480CF063
:10176000EBFC01200FB0BDE8F0830AAD09A908AA7F
:1017700005ABE01C039502910192009307AA06AB0A
:10178000604910F005FB604B079F9A68186859681C
:101790000A9EDDF824E0DDF820C0A7F5FA67BFB2A5
:1017A0000BAC3DB207C4069A059C1E3517F0030F1B
:1017B0004FEAA508D7B240F09C80544B022F8CBF53
:1017C00099464FF000095249524BC8EB050501FB01
:1017D00008F17A1E03FB0510002A00EB090347DD20
:1017E0009DF82C004949012A01FB003340D09DF8A7
:1017F0002D00022A01FB00333AD09DF82E00032A67
:1018000001FB003334D09DF82F00042A01FB003384
:101810002ED09DF83000052A01FB003328D09DF81A
:101820003100062A01FB003322D09DF83200072A3E
:1018300001FB00331CD09DF83300082A01FB003364
:1018400016D09DF83400092A01FB003310D09DF812
:1018500035000A2A01FB00330AD00B2A9DF8360016
:1018600018BF9DF8372001FB003318BF01FB02337E
:101870005FFA8EF2C2EB02125FFA8CF04FF46165F0
:10188000920005FB0022E1B2204C234D52FA86F271
:10189000013904FB01241C4420462C600AF040F965
:1018A0000B2120480BF0FEFD214600230A221C4894
:1018B0000CF052FC1A480CF03FFC01200FB0BDE8C0
:1018C000F0830BAAE01C0D4910F062FA164B0B9A3C
:1018D0001A6001200FB0BDE8F0830BAAE01C074995
:1018E00010F056FA114B0B9A1A6001200FB0BDE8A8
:1018F000F0834FF0000966E70027BDE6048601008B
:101900000CF0FF1FE4850100988301008051010065
:101910000085E2018033E10178070020088601009C
:1019200088F5FF1FF885010034F0FF1F840F0020A9
:101930002DE9F043A3B000254FF47A766E4F6F4A3D
:101940006F490A96012319A817968DF830508DF823
:1019500031508DF824508DF82C508DF864508DF84E
:1019600065508DF858508DF860500897159704F021
:10197000C9FE0DF1640EBEE80F000CAE0FC6BEE846
:101980000F000FC69DF83080DEF800109DF858005B
:10199000179A9DF8603031608DF824000A928DF816
:1019A0002C30B8F1000F46D02E468DF800604FF075
:1019B00000094FF0FF08012215A90CA804F042FF0E
:1019C00009F1010322AA01284A441BB224D01D2B8D
:1019D00002F8888C05DC9946EDE71D2B01DC0A2A0C
:1019E000F9D1013B9BB222AA1A4402F8886C9DF8F7
:1019F00000202F2A04D0012B02D96846FFF7E0FD12
:101A00009DF830301B0711D40CA804F0C3FC2DBB8B
:101A1000012023B0BDE8F0839DF854200D2A08BFB3
:101A20004B465AD11D2BDCDC9946C4E7139A119B17
:101A30009A42BAD1E8E7142132480BF033FD32481C
:101A40000CF07AFB0D22314931480CF0E1FA3048B4
:101A50000CF072FB404623B0BDE8F0830B212D480B
:101A60000BF020FD214600230A2227480CF074FBCE
:101A7000002525480CF060FB4FF47A768DF8645011
:101A80008DF865508DF858508DF8605063231B4ACF
:101A90001B49179619A819AD159704F033FE0FCD01
:101AA0000CAE0FC60FCD0FC62968179A9DF860308F
:101AB0009DF8585031600CA821460A928DF82C30C0
:101AC0008DF8245004F0B8FF022213490CA805F049
:101AD000A3F80CA804F05EFC9AE722AB03EB090123
:101AE000542A09F1010301F8882C1BB27FF475AF69
:101AF000119C0546013C95E7508301001C860100BE
:101B0000380500203886010088F5FF1F5086010047
:101B100088060020288601003486010038B5054675
:101B200007F078FA1E4C014620460CF0ADFA2D2045
:101B30000BF08CFD284607F049FA014620460CF0D0
:101B4000A3FA2D200BF082FD284607F02DFA01465E
:101B500020460CF099FA012112480BF0A3FC28460C
:101B600007F046FA014620460CF08EFA3A200BF0B8
:101B70006DFD284607F0F4F9014620460CF084FA82
:101B80003A200BF063FD284607F0FCF90146204699
:101B90000CF07AFA2046BDE838400CF0CDBA00BF10
:101BA00088F5FF1F908701002DE9F043434A444B1D
:101BB000DFF81891DFF81881424D98F80010167878
:101BC00099F800701A78286883B03C2313FB071734
:101BD00013FB062607F00CFA0446286807F0C0F944
:101BE000C4EB041400EB8404286807F013FA00F136
:101BF0004E0328688DF8063007F0E8F98DF80500E7
:101C0000286807F0D1F9B7428DF8040006D2A74240
:101C100032D8A64230D303B0BDE8F083A742FAD948
:101C2000A642F8D202A8002399F8002000F8083D47
:101C300098F800308DF801308DF8022007F0FEF999
:101C40000F21286020480BF02DFC2868FFF766FF65
:101C500009F060FF2B68984204D903F5A83303F517
:101C6000C0732B600F2118480BF01CFC2868FFF78D
:101C700055FF03B0BDE8F08302A8002399F80020C7
:101C800000F8083D98F800308DF801308DF80220FA
:101C900007F0D4F90F2128600B480A4C0BF002FC26
:101CA0002868FFF73BFF09F035FF2B688342D9D244
:101CB00003F5A83303F5C0732360D3E701080020C0
:101CC0000008002078070020608601001410002022
:101CD0001408002010B5002009F032FD1E4C2070C1
:101CE000012009F02DFD6070022009F029FDA0708F
:101CF000032009F025FD194BE07022681A600420CA
:101D000009F01EFD2070052009F01AFD6070062004
:101D100009F016FDA070072009F012FD104BE070CD
:101D200022681A60082009F00BFD0E4B187009207C
:101D300009F006FD0C4B18700A2009F001FD0B4B51
:101D400018700B2009F0FCFC094B18700C2009F0EE
:101D5000F7FC084B186010BDAC00002034F0FF1FEA
:101D6000840F002014100020140800200108002017
:101D70000008002068000020214B10B51968214C94
:101D800000202160C9B209F031FD6178012009F01D
:101D90002DFDA178022009F029FDE178032009F04A
:101DA00025FD194B196821600420C9B209F01EFDF8
:101DB0006178052009F01AFDA178062009F016FDCA
:101DC000E178072009F012FD104B0820197809F07E
:101DD0000DFD0F4B0920197809F008FD0D4B0A2065
:101DE000197809F003FD0C4B0B20197809F0FEFC63
:101DF0000A4B0C201978BDE8104009F0F7BC00BF71
:101E000034F0FF1FAC000020840F002014100020CD
:101E100014080020010800200008002068000020AD
:101E20002DE9F04F0546DFF87C82974E974F98F8E2
:101E300000E02E60FF2085F82400DFF86C923878EF
:101E400059F820C00023BEF1060F8DB00C4685F86E
:101E5000253085F826309CBF88F800309E46BCF1BE
:101E6000000F00F0A8808C455BD06346810001E044
:101E70009C4256D00B445B68002BF9D1634603EBC0
:101E8000010ADAF80430002BF9D105EB010BCAF88E
:101E90000440BEF1060F4FF0FF044FFA80FACBF872
:101EA00004308DF82C4002968DF82D308DF82E30B0
:101EB00085F824A0644605D8002388F80030002C5B
:101EC00000F0A980A24226D0234601E0934222D00E
:101ED0000B445B68002BF9D104EB010CDCF80440E7
:101EE000002CF9D1CCF804200CAB19440024431C7D
:101EF000BAF1FF3F41F8244C3B708DF82CA00296BC
:101F000005D0634951F82A3002AA934272D028467C
:101F10000DB0BDE8F08F0130387028460DB0BDE837
:101F2000F08F0023FF21BEF1060F02968DF82C10D2
:101F30008DF82D308DF82E3001D888F8003094457A
:101F4000E9D06346810001E09A42E4D00B445B682B
:101F5000002BF9D18C44DCF804402CB1A4468C440D
:101F6000DCF80440002CF9D10CAB19444FFA80FE88
:101F7000431CBEF1FF3FCCF804203B7041F8244CD9
:101F800002968DF82CE0C2D0414951F82E3002AAB9
:101F90009342BCD159F82E304FEA8E0623B19A19DC
:101FA00053685460002BFAD10023387049F82E3062
:101FB00041F82E30ABE7B0B38100DFF8D4A049F888
:101FC000204005EB010C00234AF82050BEF1060F1B
:101FD000CCF804304FFA80FA4FF0FF0C02968DF8DF
:101FE0002D308DF82E3085F824A08DF82CC07FF68A
:101FF00063AF64E759F82A304FEA8A0623B19A1989
:1020000053685460002BFAD10023387049F82A3005
:1020100041F82A307BE7F0B11D4B49F8202002AA95
:1020200043F8202060E71B491B480B68019243F0EE
:1020300080630B600368194923F080430360152017
:1020400009F09CFC164B98F800E0019A4FF400113F
:1020500019603878B0E70F4C0F482368019243F0BD
:102060008063236003680D4923F0804303601520DB
:1020700009F084FC0A4B019A4FF40011196038787A
:102080004FFA80FA8100C7E78C83010039110020E4
:1020900018110020047004400070044095040000F2
:1020A00000E100E094E9FF1FF81000202DE9F84F4F
:1020B000B64CB74EB74F09F0FBFA4FF0FF31B648B8
:1020C00008F06AFD2268376000237372336133724F
:1020D000F3600AB954E11A465369002BFBD15661EB
:1020E0004FF00008AD4DAE4BA948C6F81480A6F8D5
:1020F0000480A6F8068086F80A80336003F00CFBA3
:10210000012005F22472434641462F6085F808807D
:10211000C5F80C8068722A61AE4601E0DEF8102036
:1021200042F823106A7A9D4801339A42F6DC22680D
:10213000964B0AB926E11A465369002BFBD155612B
:102140004FF000089749DFF8E8E229604246012392
:102150004FF480719448C5F81480A5F80480A5F860
:10216000068085F80A80C5F818E185F8218785F88A
:1021700022870DF05FF98D4AC5F81C814FF0010EE2
:1021800002F118011760082782F809E0434640462B
:1021900082F80880C2F80C801161964685F8207795
:1021A00001E0DEF8101041F82300517A7F4F01332F
:1021B0009942F6DC2168754B09B9E5E019464B698F
:1021C000002BFBD14A61DFF86C82794F794B1360A9
:1021D0000024404654619480D480947282F8F44084
:1021E000C8F8006082F8F540C2F8F04082F8F64086
:1021F00088F80840C8F8042088F80940C8F80C405E
:1022000088F810400BF076FB6B4A6C49DFF8289297
:10221000DFF828B240460EF00DFF38463C723E60B3
:102220007D607C72FC603C740BF064FB3846624A53
:102230006249634FDFF80882624D634E0EF0FAFE8A
:10224000624B634ADC71642183F86014614983F84E
:102250003C4483F83D4483F86A44C3F86C145E4BF5
:1022600013605E4B3B600A23D8F80010147254725E
:1022700014713B724FF087400EF010FC4FF0FF0AD4
:10228000C9F80000564B85F82540012785F824A0A1
:10229000494A54496C632846AC6385F83C402B603E
:1022A00085F826700EF0C6FE4F4B86F824A086F8FF
:1022B0002540414A4D493360304686F8274086F82C
:1022C000284086F826700EF0B5FE2A46314648486A
:1022D000484FDFF870A1DFF87091FFF7A1FD464984
:1022E000354A43480EF0A6FE444A454B10681C741C
:1022F0004FF47A729A60434A1A605C741C711C73C2
:102300000EF0C4FA0146D8F800000EF0C7FB3E4BB1
:1023100005461D6029463D480EF0C0FB3C4B064675
:102320001E6029463B480EF0B9FB0EF0C9FC294659
:1023300038603948394F0EF0B1FB0EF0C1FC294628
:10234000CBF8000036480EF0A9FB0EF0B9FC314680
:10235000CAF8000033480EF0A1FB0EF0B1FCC9F83A
:10236000000030460EF0ACFC214638602E480CF0E0
:1023700067F8114A2D492C48BDE8F84F0EF05ABEB7
:102380002660ADE61860DBE61F601CE7F81200204F
:1023900088070020448301008806002020080020D0
:1023A000708B0100488B0100480F0020840500203D
:1023B000E80000207C8B0100FCEFFF1F610800009B
:1023C000F407002038070020A4070020FC000020AC
:1023D000580F00200000023874830100548B010064
:1023E000688C0100BD0600007C8C01001507000010
:1023F000C4060020241000201106000028F0FF1F52
:10240000C00F002050830100B400002000007A4477
:10241000B800002000409C4500007A46800600205D
:102420000000FA43000096437005002099E4000084
:1024300040890100D40000202C0700201407002050
:102440002CF0FF1FE4070020C006002010B5E94C67
:102450000A21204603F0EAFE2046002103F0BEFCDC
:102460002046302103F0BAFC2046402103F0B6FCA0
:102470006021204603F0B2FC204603F0E9FE20462E
:102480000A2103F0D3FE2046002103F0A7FC2046DA
:10249000262103F0A3FC2046002103F09FFC6C21C1
:1024A000204603F09BFC204603F0D2FE20460A2182
:1024B00003F0BCFE2046002103F090FC20462821BA
:1024C00003F08CFC2046012103F088FCF02120461B
:1024D00003F084FC204603F0BBFE20460A2103F0F3
:1024E000A5FE2046002103F079FC20462A2103F0B6
:1024F00075FC2046002103F071FC0021204603F00A
:102500006DFC204603F0A4FE20460A2103F08EFE57
:102510002046002103F062FC20462C2103F05EFCE3
:1025200020460F2103F05AFC2221204603F056FCDE
:10253000204603F08DFE20460A2103F077FE204658
:10254000002103F04BFC20463C2103F047FC2046D1
:10255000442103F043FC4621204603F03FFC204683
:1025600003F076FE20460A2103F060FE204600219B
:1025700003F034FC2046242103F030FC20460121E6
:1025800003F02CFC3721204603F028FC204603F002
:102590005FFE20460A2103F049FE2046002103F099
:1025A0001DFC2046302103F019FC2046002103F0D9
:1025B00015FCAB21204603F011FC204603F048FE39
:1025C00020460A2103F032FE2046002103F006FCDB
:1025D0002046022103F002FC2046002103F0FEFB0E
:1025E0006321204603F0FAFB204603F031FE4FF44E
:1025F000C87009F00DFC20460A2103F017FE2046A2
:10260000002103F0EBFB20462E2103F0E7FB2046E0
:10261000192103F0E3FB0021204603F0DFFB2046F5
:1026200003F016FE20460A2103F000FE204600219A
:1026300003F0D4FB2046042103F0D0FB2046002108
:1026400003F0CCFB0421204603F0C8FB204603F036
:10265000FFFD20460A2103F0E9FD2046002103F09A
:10266000BDFB2046062103F0B9FB2046012103F003
:10267000B5FB3021204603F0B1FB204603F0E8FD16
:1026800020460A2103F0D2FD2046002103F0A6FBDC
:1026900020460A2103F0A2FB2046002103F09EFB06
:1026A0000021204603F09AFB204603F0D1FD20468E
:1026B0000A2103F0BBFD2046002103F08FFB2046DA
:1026C0000E2103F08BFB2046002103F087FB08213D
:1026D000204603F083FB204603F0BAFD20460A2182
:1026E00003F0A4FD2046002103F078FB20461021D2
:1026F00003F074FB2046FF2103F070FB3C212046D1
:1027000003F06CFB204603F0A3FD20460A2103F0F2
:102710008DFD2046002103F061FB2046222103F0BD
:102720005DFB20467F2103F059FB7F21204603F00B
:1027300055FB204603F08CFD20460A2103F076FD70
:102740002046012103F04AFB2046242103F046FBEA
:102750002046002103F042FB0021204603F03EFB0F
:10276000204603F075FD20460A2103F05FFD204658
:10277000002103F033FB2046242103F02FFB2046E9
:10278000002103F02BFB1421204603F027FB2046F9
:1027900003F05EFD20460A2103F048FD204600219B
:1027A00003F01CFB20462A2103F018FB20460021E1
:1027B00003F014FB0021204603F010FB204603F039
:1027C00047FD20460A2103F031FD2046002103F099
:1027D00005FB2046202103F001FB2046002103F0E9
:1027E000FDFA0021204603F0F9FA204603F030FDFF
:1027F000012010BDD810002010B52D4C82B0FFF77D
:1028000025FE22782B48114602F004FC23682A4C4E
:102810000F2B0BD8DFE803F01E2124272A2D30339D
:1028200036393C3F42454808244B23600821244860
:102830000AF038FE20680DF0D3FB022402460B4656
:10284000009420480BF0C8FC1E4802B0BDE81040C0
:102850000BF072BC1C4B2360E8E71C4B2360E5E7E0
:102860001B4B2360E2E71B4B2360DFE71A4B23601F
:10287000DCE71A4B2360D9E7194B2360D6E7194BE5
:102880002360D3E7184B2360D0E7184B2360CDE7D4
:10289000174B2360CAE7174B2360C7E7164B23602B
:1028A000C4E7164B2360C1E7154B2360BEE700BFAA
:1028B0000CF0FF1FF40700206C000020BD54934172
:1028C0009086010088F5FF1F103377C0993918C032
:1028D000BE0D68BFCE71153F8D090340CCC9624063
:1028E00009A7A3407DDBD140C416014154FC174128
:1028F000D0E83041195546419FAB5F41A041764138
:102900005E2E864138B504460D463148012107F058
:1029100077FB2AB200212E4807F06EFB204606F016
:1029200079FB01462A480BF0AFFB2D21284807F020
:1029300029FB204606F04AFB014625480BF0A4FB84
:102940002D21234807F01EFB204606F02DFB0146F3
:102950001F480BF099FB02221E491D480BF058FB43
:1029600006F0A6FC09282EDD204606F041FB0146B4
:1029700017480BF089FB204606F0F2FA01220546C3
:10298000154913480BF044FB092D03DC3021104896
:1029900007F0F8FA29460E480BF076FB204606F0C1
:1029A000F1FA012204460C4909480BF031FB092CCD
:1029B00003DC3021064807F0E5FA21460448BDE86B
:1029C00038400BF061BB3021014807F0DBFACBE760
:1029D000880600209C860100D48501002DE9F04F77
:1029E0009BB009F097F8DFF8D882C8F8000072B6FB
:1029F000AC4B4AF202614BF2804219801A8062B6F7
:102A0000DFF81CA3DAF800305BB9DFF81893D9F8C7
:102A100000500DB3012D00F0828030BF1BB0BDE827
:102A2000F08F09F0EBFC0028EFDD012206A99E489B
:102A30000BF0D4FC9DF81830612BE6D10D219B489A
:102A40000AF030FD9A480BF077FB9A4996480BF054
:102A5000F5FA09F0B5FCD8E79748DFF8CCB2974E05
:102A6000974F08F0ADF80121934807F0CFFA022103
:102A7000914807F0C5FA2A4629468F4807F0BCFA64
:102A80000A2290498C480BF0C3FA8B480BF054FB98
:102A90000121894807F0B4FA12222946864807F036
:102AA000ABFA0522884984480BF0B2FADBF8001033
:102AB000814801310BF0E8FA012284497E480BF08D
:102AC000A7FADBF80020824B7B4853F822102B46F4
:102AD0000A220BF041FB30682821FFF713FF392150
:102AE000D8F80000FFF70EFF734808F0A5FA336826
:102AF000D8F80020591E914209DCDFF830B29BF86B
:102B0000001021B173490968002940F0B8819A4248
:102B100080F22981D9F80050012D7FF47EAF6E48F4
:102B200002F060FF012801DDFDF7A0FE6B4B93F87A
:102B30002237002B46D0DAF8003068490022DB0744
:102B400081F822273ED5664B1D687F2D00F29581C6
:102B500005F10C0331F813000DF094FE4FF06251B3
:102B60000DF0E8FE06465F4B1F6805F1010BBB4503
:102B70004FDA5A4B0D3503EB450514E028880DF06C
:102B800081FE4FF062510DF0D5FE044621463046DD
:102B90000EF06EF8023510B12646CDF808B00BF1F4
:102BA000010BBB4535D0BBF17F0FE7D90024EDE722
:102BB000029B1860039B029A01330432042B039397
:102BC000029255D1484B1C68002C00F01B81474AEB
:102BD000474B12681B689A42FFF61FAFDAF80030C5
:102BE000002B40F0A181434B00241C70FDF7F8FF3F
:102BF000FEF730FADAF80030002B40F08481012330
:102C00003C2202212C4808F00DF90023C9F80030BD
:102C100003E7394E029B31688B42C0F27181002973
:102C200000F06E81354F3A68934200F36681002AC6
:102C300000F06381324D029C2B683248E31A002B6E
:102C40000068B8BF5B42834280F22A812E4A136833
:102C5000013313602D4A2E4B049313682D490591BF
:102C600001330299296013602B49029100230393D9
:102C7000049B53F804BB0493059B53F8046B059322
:102C80005E4597DD254B039A53F822000DF0FEFDBB
:102C9000029B1D68114B0BF10C04074603EB440427
:102CA0005CE000BF0C20054078F5FF1FB4850100F3
:102CB00088F5FF1F70050020880600207807002097
:102CC000A8000020A0860100AC86010090870100CA
:102CD0001C070020BC0F00208405002020080020D5
:102CE0002410002014070020840F0020E807002093
:102CF000EC06002030F0FF1F7000002018080020B4
:102D000084070020E4070020D000002010080020E5
:102D1000F0060020D407002000070020F40F002058
:102D200004F0FF1F1C080020B0000020080800204D
:102D300020880DF0A7FD4FF062510DF0FBFD3946E4
:102D40000DF0ACFE014628460DF0ECFC0BF1010B3A
:102D50005E4504F1020405463FF42AAFBBF17F0F44
:102D6000E6D90020EBE70D217248734D0AF09AFB7B
:102D700072480BF0E1F9724B72491A687248336875
:102D80000968134402682B60012A0B44336000F089
:102D9000CE800E216D486E4F0AF084FB08F0BAFE1B
:102DA000FEF7BCFE0B216B480AF07CFB2868FEF79F
:102DB000B5FE0B2168480AF075FB3068FEF7AEFEE1
:102DC000664B67480E21002601251E60C9F8005099
:102DD0000AF068FB59480BF0AFF9FDF731FFAE215F
:102DE000604807F0F5FE604B38461E6002F006FEB4
:102DF0000B215E4887F8F6500AF054FB4F480BF061
:102E00009BF987E608F086FE4B4AC8F80000136875
:102E10009842FFF602AE4A49554D09682B60554865
:102E2000514D0B44136003F0B5FA534B53481C70DB
:102E30000C210AF037FB296840480BF025F93F4880
:102E40000BF07AF9FEF706F9FDF7FAFEDAF8003032
:102E50002C60002B3FF4E1ADFEF7ECFA484E494BF5
:102E60003E4D49484949346000221A605A609A60D0
:102E7000DA602C6004600C60CFE5002673E6012167
:102E8000052008F057FFC82008F0C2FF294605209A
:102E900008F050FF01213A6833688BF8001036E6DD
:102EA0003B4BDFF8FCB01B68DBF80000521A9A427B
:102EB0001CDD384B1B68984218DB0DF0E7FC364BE5
:102EC00019680DF037FD0DF08BF84FF0020E024639
:102ED0000B46CDF800E019480BF07EF901212F4890
:102EE0000AF0E0FA264A1368013313600023012236
:102EF000CBF800203B603360ACE63B601A4699E6B5
:102F0000336019468EE6FEF795FA1D4E1D4B134DA4
:102F10001D481E49346000221A605A609A60DA60C7
:102F20002C6004600C606AE6FEF7FEF95BE6FEF7D3
:102F30003BFE2EE7B4860100EC07002088F5FF1F5A
:102F400034F0FF1F840F002068000020C4860100B9
:102F500084050020D4860100E086010010080020CE
:102F60007084010088060020E807002080840100AA
:102F700078070020D00F002030F0FF1FEC86010002
:102F80007C070020000700207000002018080020A7
:102F900080060020C0060020B800002090870100B5
:102FA000D00000202DE9F04782B008F0B3FDB34B0C
:102FB000B34D18600121B348B34C07F021F801214B
:102FC000B04807F023F812220021AE4807F014F8A9
:102FD0000422AE49AB480BF01BF82968A9480BF056
:102FE00053F80222AA49A7480BF012F80622A94971
:102FF000A4480BF00DF82368002B00F00381012B8F
:1030000000F00C81A44FA5499E4806220BF000F861
:1030100039689C480BF038F80122A14999480AF018
:10302000F7FF98480BF088F82368012B00F06A81BD
:103030000121944806F0E4FF2E6870000DF026FC94
:10304000984B19680DF076FC97490DF06BFB4FF02B
:103050008E410DF067FB95490DF020FD93490DF071
:103060001DFD2368012B814600F0E1804FF07E5862
:1030700030460DF00BFC41460DF05CFC8046386894
:103080008B4CDFF87CA28B4D30440DF0FFFB0146EA
:1030900040460DF003FD884B074618680DF0F6FB1F
:1030A000864B19680DF046FC854B19680DF03AFB0C
:1030B00039460DF03FFC394680464FF07E500DF00A
:1030C0002FFB804B19680DF035FC014640460DF092
:1030D00029FB014620680DF0E1FC7B490DF02AFC3C
:1030E0000DF014FEDAF80040002380462B606B6080
:1030F000AB60EB6074B120460DF0C4FB49460DF0A7
:10310000CDFC0CF06DFF0CF073FA0DF095FA286011
:1031100000FB06F4DAF8040068B10DF0B3FB494691
:103120000DF0BCFC0CF05CFF0CF062FA0DF084FAC0
:10313000686000FB06F0DAF80830044473B1184602
:103140000DF0A0FB49460DF0A9FC0CF049FF0CF076
:103150004FFA0DF071FAA86000FB06F3DAF80C00E4
:103160001C4468B10DF08EFB49460DF097FC0CF045
:1031700037FF0CF03DFA0DF05FFAE86006FB00F057
:1031800020440DF07FFB39460DF088FC0446404694
:103190000DF078FB014620460DF088FDF0B90146A0
:1031A0003022384806F028FF0D22484935480AF0F9
:1031B0002FFF204646490DF071FC0CF011FF022450
:1031C00002460B4600942F480BF006F841492D4863
:1031D000012202B0BDE8F0470AF01ABF30220021F8
:1031E000284806F009FF0E223B4926480AF010FF46
:1031F0003A492448A1FB0831090C00230A220AF0AD
:10320000ABFFE3E7042236491E480AF001FF1D48E0
:103210000AF092FF2368012B7FF4F4AE04223149B7
:1032200018480AF0F5FE17480AF086FFEAE62E4A2B
:103230002E4B10781B78834286BFC3F11803C01849
:10324000C01A0DF023FB2A4A2A4B05461B7810783A
:10325000834286BFC3F13C03C018C01A0DF016FBB1
:103260002549044628460DF065FB21460DF05AFA23
:1032700022490DF013FC8046FAE600BFA8000020AA
:1032800034F0FF1F8806002068000020FC86010043
:103290000487010008870100840F002020870100B7
:1032A000288701002CF0FF1F0000304200007A4404
:1032B0001CF0FF1F1C070020BC0F002014F0FF1F94
:1032C00008F0FF1F24F0FF1F000061454887010040
:1032D00000C0A847F48501003887010007452EC2C9
:1032E0001087010018870100010800201410002039
:1032F0000008002014080020000070420000B444C0
:103300009C0F0020264E2749274808220AF080FEFD
:103310003178092938DD00230A2223480AF01CFFEE
:10332000224B23491E78204801220AF071FE092E03
:1033300003DC30211C4806F025FE31461A481D4E9C
:103340000AF0A2FE1C49184801220AF061FE3178F9
:1033500009291FDD00230A2213480AF0FDFE174B3E
:1033600013491E78104801220AF052FE092E03DC90
:1033700030210D4806F006FE31460B480AF084FE67
:1033800009480AF0D9FE53E63021074806F0FAFD55
:103390003178C0E73021044806F0F4FD3178D9E7F0
:1033A000141000202C87010088060020140800203B
:1033B000D485010001080020A88401000008002035
:1033C0002DE9F04F85B0FEF785FC08F0A3FBDFF890
:1033D000DC92DFF8DCA2C9F800009B48DFF8948299
:1033E0009A4D07F0EDFB0121974806F00FFE0221F0
:1033F000954806F005FE00221146934806F0FCFDB4
:103400000822934990480AF003FE01218E4806F0F5
:10341000F7FD102200218C4806F0EEFD12228D49A6
:1034200089480AF0F5FD88480AF086FE56460024D1
:10343000002345F8043B88480AF07EFE86480AF0DF
:103440007BFE0134052185480AF02CF8214682488C
:103450000AF01AFE80480AF06FFE21467A480AF008
:1034600013FE04227E4978480AF0D2FD764807F020
:10347000E3FD07217B4802F021FC0E21794802F090
:103480007BFC0C21774802F049FC56F8042B764966
:10349000D2B2A1F10C004FF0384304F01FFE002817
:1034A00040F008811C21714809F0FCFF6A480AF0CD
:1034B00043FE06226E4964480AF0AAFD62480AF0FB
:1034C0003BFE614807F0B8FD042CB1D1694C9AF875
:1034D000002004F58C65284604F26C414FF0384317
:1034E00004F0FCFD002841F042810B22624956485D
:1034F0000AF08EFD544807F09FFD41F2883008F035
:1035000087FC0121142008F071F95C4B5C4A1A60B9
:10351000FEF70EFA5B4B1A685B4B9A4203D9594A85
:103520004FF496731360594A574B12689A4202D966
:10353000564A00231360564B1B78172B02D9544A66
:1035400000231370534B1B783B2B02D9514A0023A5
:103550001370514B1B78172B02D94F4A002313705D
:103560004E4B1B783B2B00F2BD864D4B1B68012B4D
:1035700002D94B4A002313604FF4FA6008F048FC6C
:103580003148484D484E07F01BFB01212E4806F0FC
:103590003DFD02212C4806F033FD002211462A4849
:1035A00006F02AFD284807F047FD4FF4167008F092
:1035B0002FFC0027082008F0E1FBD0B9384A2B681F
:1035C00012680133B2FA82F1092B4FEA5111D8BFC8
:1035D00000212B60002940F08286A2F10102B2FA9C
:1035E00082F20D2B4FEA5212D8BF0022002A40F07F
:1035F0007686154807F0E4FA0121134806F006FD27
:103600000221114806F0FCFC002211460E4806F08B
:10361000F3FC08F07FFAD9F800202B683060841A98
:103620000D2B00F24981DFE813F01306C60586056D
:1036300005056C04EC037303D20252020902C101B6
:103640005A01FA00B20000BF880600209C0F00203B
:10365000588701006487010088F5FF1FAC860100D0
:103660007887010038F0FF1F6805002018880100E6
:1036700038880100FC000020408801000CED00E0CB
:103680000400FA0534F0FF1FA0860100840F00201B
:103690001410002014080020010800200008002059
:1036A00068000020A0070020A8000020A000002043
:1036B000AC0F0020AB4800F12403C8F8003002F042
:1036C00069FE0121A84804F00DFC002800F00F86D7
:1036D000DFF890B2ABF23C41584603F093F8002873
:1036E0003FF4E0AE98F83C3413F0700F3FF4DAAEDC
:1036F0009E4BABF23C40C3F800B004F057FB0DF01A
:10370000C1F89B490DF016F9074698F804000DF032
:10371000BDF8014638460DF00DF90DF0F7FA0746F1
:103720000BF1240004F0D2FE0DF0ACF890490DF03E
:1037300001F90DF0EBFA112183468E4809F0B2FE33
:10374000394600230A228C480AF006FD8A480AF00E
:10375000F3FCC72F8CBFC83F0027394600230A223D
:1037600045F8047C85480AF0F7FC01228449834827
:103770000AF04EFC594600230A2280480AF0ECFC6D
:103780007E480AF0D9FC7D4807F056FC9CE67D4B4C
:10379000042093F8008008F0F1FA8246032008F034
:1037A000EDFA794BBAF1000F00F0DF861F60774B1E
:1037B000002840F0F6861A68754901200A2A087028
:1037C00041F34180734981FB08014FEAE878C8EB77
:1037D000A10101EB81014900142AD4BFA1F10A081B
:1037E000A1F16E080132B8F1000F1A60B8BF4FF0B6
:1037F0003B0880F2D786634B6749604883F80080B6
:1038000007220AF005FC5F4B1978092900F31081A3
:1038100030215A4806F0B6FB5A4B197808E15F4B45
:10382000042093F8008008F0A9FA8246032008F0EB
:10383000A5FA554BBAF1000F00F071861F60534B8B
:10384000002840F088861A68514901200A2A087029
:1038500040F3D3874F4981FB08014FEAE878C8EB72
:10386000A10101EB81014900142AD4BFA1F10A088A
:10387000A1F16E080132B8F1000F1A60B8BF4FF025
:10388000170880F26986454B45493C4883F800801B
:1038900007220AF0BDFB414B19780929984600F32D
:1038A000C7803021354806F06DFB98F8001033488A
:1038B00000230A220AF050FCFFF774FB08F02AF9F3
:1038C0003921FFF71FF82D4807F0B6FBC82008F094
:1038D0009FFA3C2C7FF76EAE05B0BDE8F08F314B00
:1038E000042093F8008008F049FA8246032008F08B
:1038F00045FA254BBAF1000F00F083861F60234B79
:10390000002840F09A861A68214901200A2A087086
:1039100040F3A0871F4981FB08014FEAE878C8EB14
:10392000A10101EB81014900142AD4BFA1F10A08C9
:10393000A1F16E080132B8F1000F1A60B8BF4FF064
:103940003B0880F27B86174B17490C4883F80080B0
:1039500008220AF05DFB134B19780929984667DCA9
:103960009FE700BF38050020FC000020F010002079
:10397000BD37063A8087010088F5FF1F88060020C2
:1039800094870100000800202C100020880F0020E0
:103990008007002067666666108801000108002025
:1039A0000888010014080020FC870100C84B04208F
:1039B00093F8008008F0E2F98246032008F0DEF96F
:1039C000C44BBAF1000F00F0F6851F60C24B00280F
:1039D00040F00D861A68C14901200A2A087040F398
:1039E0000887BF4981FB08014FEAE878C8EBA101CD
:1039F00001EB81014900142AD4BFA1F10A08A1F109
:103A00006E080132B8F1000F1A60B8BF4FF0170806
:103A100080F2EE85AE4BB349B34883F800800822AC
:103A20000AF0F6FAAA4B1978092998467FF739AFB8
:103A300000230A22AC480AF08FFB3DE70522AB4980
:103A4000A9480AF0E5FAAA4B0420D3F8008008F050
:103A500095F98246032008F091F99E4BBAF1000FC8
:103A600000F04E861F609C4B002840F068861A6864
:103A70009A4901200A2A087040F3AB86984981FBD5
:103A800008014FEAE878C8EBA10101EB8101490088
:103A9000142AD4BFA1F10A08A1F16E080132B8F1CD
:103AA000000F1A60C0F25086914BB8F1010FC8BFE9
:103AB0001F6040F3DB8604228E498B480AF0A8FA87
:103AC0008B4B1B68012B7FF4F7AE00F040BE05F076
:103AD00059FADFF82C8282460420C8F800A008F0CA
:103AE0004DF98346032008F049F97A4BBBF1000FEA
:103AF00000F0DE851F60784B002840F0F8851A68DA
:103B0000764901200A2A087040F36F86744981FBC8
:103B10000A014FEAEA7ACAEBA10101EB81014900EF
:103B2000142AD4BFA1F10A0AA1F16E0A0132BAF136
:103B3000000F1A60C0F2E085BAF13C0FA8BF4FF049
:103B4000000AD8F80030DFF8BC815345C8F800A05F
:103B50002FD0306805F04CFA0190306805F000FA7B
:103B6000D8F8001000918246306805F01DFA8046B2
:103B7000306805F02BFA8346306805F04BFA04AB49
:103B8000009903F8081D00F14E0E019A8DF80A20E5
:103B900018468DF80EE08DF80DB08DF80C808DF87C
:103BA00009A005F04BFA07F0BBFF07F0B3FFC9F817
:103BB0000000072250494C480AF02AFA07F0AAFFF1
:103BC00005F0E0F9014648480AF05EFA74E605F0AF
:103BD000C7F9DFF8348182460420C8F800A008F055
:103BE000CDF88346032008F0C9F83A4BBBF1000F2B
:103BF00000F02D851F60384B002840F047851A687B
:103C0000364901200A2A087040F3D085344981FBE7
:103C10000A014FEAEA7ACAEBA10101EB81014900EE
:103C2000142AD4BFA1F10A0AA1F16E0A0132BAF135
:103C3000000F1A60C0F22F85BAF13C0FA8BF4FF0F9
:103C4000000AD8F80030DFF8C4805345C8F800A057
:103C50002FD0306805F0CCF9D8F80010019030680A
:103C6000009105F08FF98046306805F09DF9824695
:103C7000306805F0ABF98346306805F0CBF904AB4A
:103C800000F14E0E03F8088D019A00998DF80A2074
:103C900018468DF80EE08DF809108DF80DB08DF8EE
:103CA0000CA005F0CBF907F03BFF07F033FFC9F894
:103CB0000000072211490C480AF0AAF907F02AFF70
:103CC00005F04EF9014608480AF0DEF9F4E500BFB8
:103CD000141000202C100020880F002080070020E6
:103CE00067666666F087010088060020E8870100A5
:103CF0006800002010870100E0870100D8870100DC
:103D00007C060020F007002034070020101000205F
:103D100005F06EF9DFF8088382460420C8F800A099
:103D200008F02CF88346032008F028F8B44BBBF1C8
:103D3000000F00F058831F60B24B002840F07283E0
:103D40001A68B14901200A2A087040F34685AF4934
:103D500081FB0A014FEAEA7ACAEBA10101EB81017A
:103D60004900142AD4BFA1F10A0AA1F16E0A013256
:103D7000BAF1000F1A60C0F25A83BAF1180FA8BF47
:103D80004FF0000AD8F8003053452CD0306805F0C9
:103D9000E7F80190306805F0F5F80090306805F01C
:103DA00003F98046306805F011F98346306805F064
:103DB00031F904AB009903F8081D00F14E0E019A89
:103DC0008DF8092018468DF80EE08DF80DB08DF8AD
:103DD0000C808DF80AA005F031F907F0A1FE07F07C
:103DE00099FEC9F80000052289498A480AF010F9AD
:103DF00007F090FE05F0FCF8014686480AF044F909
:103E00005AE505F0D1F8DFF81C8282460420C8F894
:103E100000A007F0B3FF8346032007F0AFFF784B05
:103E2000BBF1000F00F0B8821F60764B002840F015
:103E3000D2821A68744901200A2A087040F3D1849A
:103E4000724981FB0A014FEAEA7ACAEBA10101EB50
:103E500081014900142AD4BFA1F10A0AA1F16E0A16
:103E60000132BAF1000F1A6040F3BA82BAF1200FA2
:103E7000A8BF4FF0010AD8F80030DFF8AC815345F5
:103E8000C8F800A02FD0306805F0B2F8834630683B
:103E900005F066F88246306805F074F8D8F800102E
:103EA00001903068009105F091F88046306805F087
:103EB000B1F804AB019A03F8082D00F14E0E0099F9
:103EC0008DF80EE018468DF80C108DF80AB08DF8BC
:103ED0000D808DF809A005F0B1F807F021FE07F07C
:103EE00019FEC9F8000004224B494A480AF090F82C
:103EF00007F010FE05F058F8014646480AF0C4F8ED
:103F0000DAE405F063F8DFF8248182460420C8F87B
:103F100000A007F033FF8346032007F02FFF384B44
:103F2000BBF1000F00F086821F60364B002840F086
:103F3000A0821A68344901200A2A087040F37C8460
:103F4000324981FB0A014FEAEA7ACAEBA10101EB8F
:103F500081014900142AD4BFA1F10A0AA1F16E0A15
:103F60000132BAF1000F1A6040F38882BAF10D0FE6
:103F7000A8BF4FF0010AD8F80030DFF8B4805345ED
:103F8000C8F800A02ED0306805F032F801903068F3
:103F900004F0E6FF8246306804F0F4FF00903068D9
:103FA00005F002F883463068D8F8008005F032F852
:103FB00004AB009903F8081D00F14E0E019A8DF82C
:103FC0000A2018468DF80EE08DF80D808DF80CB0A3
:103FD0008DF809A005F032F807F0A2FD07F09AFD70
:103FE000C9F8000006220D490A480AF011F807F046
:103FF00091FD04F0EBFF014606480AF045F85BE44A
:104000002C100020880F002080070020676666665D
:10401000D087010088060020C8870100C087010002
:104020000C0800201C1000208406002080050020C1
:104030003007002004F0EEFFDFF8548382460420AE
:10404000C8F800A007F09AFE8346032007F096FE0A
:10405000BF4BBBF1000F00F03B821F60BD4B00283F
:1040600040F055821A68BC4901200A2A087040F3C2
:10407000AA83BA4981FB0A014FEAEA7ACAEBA10195
:1040800001EB81014900142AD4BFA1F10A0AA1F170
:104090006E0A0132BAF5FA6F1A60C0F23D8240F63C
:1040A00034039A45C8BF4FF4FA6AD8F80030DFF8F5
:1040B000E4825345C8F800A02ED0306804F098FF81
:1040C0000190306804F04CFF8246306804F05AFFDB
:1040D0000090306804F068FF8346306804F076FF93
:1040E0000DF1100E00990EF8081DD8F80030019A55
:1040F0008DF80D004E3370468DF80A208DF80E3085
:104100008DF80CB08DF809A004F098FF07F008FDB9
:1041100007F000FDC9F8000005229149914809F017
:1041200077FF07F0F7FC04F075FF01468D4809F0B2
:10413000ABFFFFF7C1BB8C4B0420D3F8008007F026
:104140001DFE8246032007F019FE814BBAF1000FD5
:1041500000F097811F607F4B002840F0B1811A6802
:104160007D4901200A2A087040F324837B4981FBA2
:1041700008014FEAE878C8EBA10101EB8101490091
:10418000142AD4BFA1F10A08A1F16E080132B8F1D6
:10419000000F1A60C0F29981744B9845C8BF4FF068
:1041A0000008714B72496F48C3F80080042209F07F
:1041B0002FFF6D4B3EE06F4B0420D3F8008007F0DB
:1041C000DDFD8246032007F0D9FD614BBAF1000FF7
:1041D00000F096801F605F4B002840F0B0801A68A6
:1041E0005D4901200A2A087040F323835B4981FB63
:1041F00008014FEAE878C8EBA10101EB8101490011
:10420000142AD4BFA1F10A08A1F16E080132B8F155
:10421000000F1A6040F39880B8F5616FC8BF4FF087
:104220000108544B54494F48C3F80080042209F058
:10423000EFFE504B19684B4809F026FF01224F4909
:10424000484809F0E5FE474809F076FFFFF734BB20
:10425000DFF8048198F80030002B40F07F820A22BA
:104260004749404809F0D4FE042007F087FD804606
:10427000032007F083FDB8F1000F7FF41DAB002889
:104280007FF41AAB374806F09BFC0121354805F056
:10429000BDFE0221334805F0B3FE0022114631482D
:1042A00005F0AAFEFDF768FD0A2236492D4809F0FF
:1042B000AFFE2C4806F0C0FE40F2DC5007F0A8FD2F
:1042C000FEF770FE07F026FC3921FEF71BFB2548A0
:1042D00006F0B2FEC82007F09BFDFFF7FDBA2F6085
:1042E000FFF787B9284A00231370FFF73EB901464C
:1042F000264803F0F7FD00287FF4EAA9FFF7D2B8BB
:104300001A6815494FF0010E0A2A81F800E040F3BF
:104310007882124981FB08E14FEAE878C8EBA101F5
:1043200001EB81014900142AD4BF01F10A0801F10F
:104330006E0801321A60074B00283FF450AFB8F105
:10434000000F1F603FF768AF4FF4616869E700BF77
:104350002C100020880F002080070020676666660A
:10436000B887010088060020840F002080510100DA
:10437000B087010034F0FF1FFC8601002887010090
:1043800098870100A487010000080020FC0000209D
:1043900018100020D00700201A68C1494FF0010E04
:1043A0000A2A81F800E040F34B82BE4981FB0AE112
:1043B0004FEAEA7ACAEBA10101EB81014900142A14
:1043C000D4BF01F10A0A01F16E0A01321A60B64B3C
:1043D00000283FF42EADBAF1000F1F603FF746AD45
:1043E0004FF01F0A47E51A68AD494FF0010E0A2A3F
:1043F00081F800E040F3E181AA4981FB0AE14FEA3C
:10440000EA7ACAEBA10101EB81014900142AD4BF69
:1044100001F10A0A01F16E0A01321A60A24B00286A
:104420003FF48EACBAF1000F1F60BFF6A6AC4FF0A0
:10443000170AA7E41A689A494FF0010E0A2A81F870
:1044400000E040F3E181974981FB0AE14FEAEA7A13
:10445000CAEBA10101EB81014900142AD4BF01F18B
:104460000A0A01F16E0A01321A608F4B00283FF4EC
:1044700060ADBAF1000F1F603FF778AD4FF00C0A46
:1044800079E51A6886494FF0010E0A2A81F800E0A2
:1044900040F3C981834981FB08E14FEAE878C8EB22
:1044A000A10101EB81014900142AD4BF01F10A08DE
:1044B00001F16E0801321A607B4B00283FF44FAEC9
:1044C000B8F1000F1F60BFF667AEDFF8E08168E665
:1044D0001A6873494FF0010E0A2A81F800E040F390
:1044E0007581704981FB0AE14FEAEA7ACAEBA101C2
:1044F00001EB81014900142AD4BF01F10A0A01F13C
:104500006E0A01321A60684B00283FF4ABADBAF571
:10451000FA6F1F60BFF6C3AD40F6340AC5E51A68EE
:104520005F494FF0010E0A2A81F800E040F38F81C5
:104530005C4981FB08E1890801EB81014900142AEB
:10454000D4BF01F10A0801F16E0801321A60564B1E
:1045500000283FF478A91F60B8F1170FD4BF5FFAA5
:1045600088F84FF00008FFF78EB91A684C494FF0F1
:10457000010E0A2A81F800E040F34981494981FB94
:1045800008E1890801EB81014900142AD4BF01F137
:104590000A0801F16E0801321A60434B00283FF40B
:1045A0000AA91F60B8F13B0FD4BF5FFA88F84FF03B
:1045B0000008FFF720B91A6839494FF0010E0A2A9E
:1045C00081F800E040F32681364981FB08E1890843
:1045D00001EB81014900142AD4BF01F10A0801F15D
:1045E0006E0801321A60304B00283FF4F3A91F60B7
:1045F000B8F1170FD4BF5FFA88F84FF00008FFF743
:1046000009BA1A6826494FF0010E0A2A81F800E01B
:1046100040F3D680234981FB08E1890801EB810141
:104620004900142AD4BF01F10A0801F16E080132D1
:104630001A601D4B00283FF466A91F60B8F13B0FBC
:10464000D4BF5FFA88F84FF00008FFF77CB91A680A
:1046500013494FF0010E0A2A81F800E040F3DD8093
:10466000104981FB0AE14FEAEA7ACAEBA10101EBAA
:1046700081014900142AD4BF01F10A0A01F16E0A2E
:1046800001321A60084B00283FF4B9AABAF1000FB2
:104690001F60BFF6D1AA4FF03B0AFFF7D2BA00BFA6
:1046A0008007002067666666880F00208051010041
:1046B0001A6872494FF0010E0A2A81F800E040F3AF
:1046C000AF806F4981FB0AE14FEAEA7ACAEBA101A8
:1046D00001EB81014900142AD4BF01F10A0A01F15A
:1046E0006E0A01321A60674B00283FF408AABAF13B
:1046F000000F1F60BFF620AA4FF03B0AFFF721BA58
:104700001A685E494FF0010E0A2A81F800E040F372
:104710008D805B4981FB08E14FEAE878C8EBA10195
:1047200001EB81014900142AD4BF01F10A0801F10B
:104730006E0801321A60534B00283FF498A9B8F173
:10474000000F1F60BFF6B0A94F4A01231360042277
:104750004E494F4809F05CFCFFF7AEB8FDF70CFB83
:1047600088F8007007F0D6F9C9F8000077E504F280
:104770003C40256001F00EFE0121204603F0B2FB13
:1047800000286BD0434C04F23C452846214602F0F9
:1047900039F800283EF4A9AE94F83C3413F0700FB9
:1047A0003EF4A3AE3C4B1D60FEF7B2BE0AF1FF3AE9
:1047B000FFF73CBA08F1FF38E8E40AF1010A2BE6FA
:1047C00008F1010833E70AF1FF3A62E40AF1010A4D
:1047D00097E608F1FF38FFF761B90AF1FF3AFFF7F2
:1047E000C6BA0AF1FF3AFFF73BBB0AF1FF3AFFF7FF
:1047F0009DB908F1FF38FFF704B908F1FF38FFF75A
:1048000039B808F1010894E50AF1010A2BE608F12C
:104810000108C0E608F10108E3E60AF1010A2FE702
:104820000AF1010A5DE708F1010843E608F1010811
:104830007FE708F1FF38E9E40AF1FF3AFFF790BBA0
:104840000AF1010AC1E508F1FF38FEF7CBBF08F114
:1048500001087AE608F1FF38FFF76CB801462046F8
:1048600003F040FB00288DD1FEF73FBEC3F8008067
:10487000B8F1000F7FF46BAFFFF71DB98007002080
:1048800067666666880F00206800002018870100B0
:1048900088060020FC000020F01000202DE9F04FD9
:1048A000DFF83C93DFF83CA3DFF83C83B14F85B0E1
:1048B000FCF7D8FCD9F800B0AF4801255946CAF832
:1048C00000500CF0EBF80CF0FBF90346CAF804308A
:1048D000C8F800305946A94803930CF0DFF80CF0F3
:1048E000EFF906465946C8F80460CAF80860A448BB
:1048F0000CF0D4F80CF0E4F904465946CAF80C4020
:10490000C8F808409F480CF0C9F80CF0D9F99E4A45
:10491000039BD2F800C09D49C8F80C00DFF8CCE238
:104920009B4AC4EB0008A41BF61A013B81E848002F
:104930002CFA05F3C1F80C809E444FF00A08BEFB28
:10494000FCF015234FF00F0E1426C2F804E08C6023
:1049500096600024D360C2F8008007F0A9FA4FF4F3
:10496000FA7007F055FA3C60642007F051FA396894
:1049700088481022234609F0EFFB864809F0DCFB4B
:104980004FF430533B60642007F042FA4FF4345345
:104990003B60642007F03CFA7F4B7E481968102288
:1049A000234609F0D9FB7B4809F0C6FB39687948F2
:1049B0002346102209F0D0FB764809F0BDFB774B67
:1049C000744819681022234609F0C6FB714809F0A3
:1049D000B3FB4146724808F065FDD9F800000BF0C2
:1049E000FFFA022602460B4600966A4809F0F4FBDD
:1049F000684809F0A1FB13216A4808F053FD6A4B8F
:104A000018680BF0EDFA009602460B46614809F073
:104A1000E3FB604809F090FB0E21644808F042FD7A
:104A2000634B5C48196809F02FFB5A4809F084FB76
:104A30000E21604808F036FD5F4B5648196809F0B2
:104A400023FB544809F078FB16215C4808F02AFD46
:104A50005B4B5048196809F017FB4E4809F06CFB96
:104A60001721584808F01EFD574B4A48196809F0AD
:104A70000BFB484809F060FB544801F055FA294601
:104A8000304607F089F92946062007F085F92946BE
:104A9000052007F081F92946052007F04BF94FF46E
:104AA000FA6007F0B5F92146052007F043F9484BB5
:104AB000214610201D7007F06FF9204606F06CFDAE
:104AC0002146304607F036F92946062007F032F92C
:104AD0002146052007F02EF92146042007F05CF955
:104AE0002146032007F058F92146082007F054F921
:104AF0002946042007F01EF92946032007F01AF979
:104B00002946082007F016F94FF4FA7007F080F9EB
:104B10002B463C2231462F4806F084F9642007F0EA
:104B200077F92C4806F04CF829462A4805F06EFA29
:104B30003146284805F064FA22462146254805F00A
:104B40005BFA42462449234809F062FA214809F0F9
:104B5000F3FA29461F4805F053FA11221F491D4850
:104B600009F056FA1B4809F0E7FA1A4806F064FA09
:104B700045E000BF10D0034000007A440000FA4432
:104B800000409C4500409C4610F0FF1FF40F0020A1
:104B9000AC0F002088F5FF1F14D0034018D003404D
:104BA0004C88010058880100B80000206C88010082
:104BB000C00600207C880100E40700208C880100EA
:104BC00024100020A488010014070020D810002021
:104BD0000808002088060020BC880100C888010061
:104BE000B4000020F0060020D407002000449508FF
:104BF000B32C4FF47A7006DC07F00AF90134FCF7A5
:104C0000C9FA0028F4D00D219048914EDFF8BC82FB
:104C1000904F08F047FC04F05FFB01468E4809F016
:104C200033FA8D4809F088FA06F074FF3060FEF719
:104C3000C7FB8A4B8A4A1A600021022007F07AF8E3
:104C4000884805F0BDFF0121864805F0DFF9022103
:104C5000844805F0D5F900221146824805F0CCF9C8
:104C600006F058FF804B81491B6809680246D8F856
:104C7000000092FBF3F4326003FB04337C4A3B6098
:104C800001290344136000F0DC800BF0FFFD794A3A
:104C9000DFF83C921168784CDFF838B2DFF838A2C0
:104CA0000BF048FE4FF06E510BF044FE0CF008F88C
:104CB000724AD9F8001020601468714A0C1B24EA6B
:104CC000E47582FB05322A44E817C0EBE2200BF0C2
:104CD00075F90AF08DFC0BF087FC6A4C6A4ACBF838
:104CE000000004FB005482FB04322244E017C0EBB6
:104CF00062100BF063F90AF07BFC0BF075FC634B60
:104D00000246A0EB001004EB800410216048CAF8B2
:104D100000201C6008F0C6FBDBF800104E4809F0CC
:104D2000B3F9DAF800104C4809F0AEF9574B4A488D
:104D3000196809F0A9F9484809F0FEF90821554811
:104D400008F0B0FBD8F80010434809F09DF942483C
:104D500009F0F2F90821504808F0A4FBD9F8001036
:104D60003D4809F091F93C4809F0E6F90E214B481D
:104D700008F098FB3068FCF7D1FE0C21484808F099
:104D800091FB3868FCF7CAFE3B68346845481C1B39
:104D9000152108F087FB21462F4809F075F92E48A8
:104DA00009F0CAF96421404808F0D0FCFDF724FD61
:104DB0000A213E4801F03AFA00213C4801F00EF881
:104DC0000E213A4801F00AF80021384801F006F8AF
:104DD0000B21364801F002F8344801F039FA344A20
:104DE0000123194682F82037022006F0A3FF31493B
:104DF000314B00204FF0FF3208601A6007F05AFB79
:104E000072B62E4A4CF220504DF62811108018230D
:104E10001180013BFDD12A4D2A482B4B6D264FF4C2
:104E20005D444FF480612E800480198032F80E3C7E
:104E30009BB243F0D30322F80E3C62B605B0BDE846
:104E4000F08FFCF7B1FED8F800001EE7DC88010007
:104E5000A80000207807002088F5FF1FF41000202C
:104E6000B50700008806002000F0FF1F6800002042
:104E7000EC0700202CF0FF1FEC06002018F0FF1FAD
:104E8000C5B3A291F0F1FFFF898888882010002027
:104E9000EC880100008901000C890100C486010032
:104EA00018890100288901000082FF1FD810002006
:104EB000200800201C080020180700200E200540B4
:104EC00004200540062005401620054034F0FF1F51
:104ED000840F0020A4000020980F0020F8B50021C6
:104EE000054608F0FBFC002855D0D5F81C71064695
:104EF000002F4ED005F58E743B1D224605F59071AE
:104F000007F5827733F8020B42F8040FBB42F9D160
:104F1000331D05F5477206F5827733F8020B42F828
:104F2000040FBB42F9D1D5F8180180B105F5927292
:104F300000F5007E32F9043C30F9027B03FB07F3F5
:104F4000DB13864522F8043C02F10402F2D105F598
:104F5000E5600AF051FA95F82177EFB905F21C5C8B
:104F600095F82027E64605F21C7154F8043F23FB10
:104F700003F3B3FBF2F34EF8043F7145F5D17B1C0C
:104F8000DBB2934220D085F82137D5F81C0108F018
:104F900061FCC5F81C61F8BD05F21C5C95F8202782
:104FA000E64605F21C7154F8043F23FB03F35EF858
:104FB000040FB3FBF2F38E450344CEF80030F2D178
:104FC0007B1CDBB29342DED10023DFF83CE085F8A6
:104FD0002137604605F1160750F8044FB4FA84F300
:104FE00081423EF81320B4FBF2F31A444FEA520315
:104FF000B4FBF3F423444FEA530327F8023FEBD109
:10500000012385F82237C0E7808B0100002070471C
:105010000020704738B50F29114C28BF0F210F2AE7
:1050200028BF0F220D46017A204642EA051501F0FD
:1050300027F82046002100F0D1FE2046202100F074
:10504000CDFE2046002100F0C9FEE9B2204600F066
:10505000C5FE204601F0FCF8B0FA80F0400938BDEA
:10506000D8100020F8B5C34C01260546067120462D
:1050700000F05AFF052006F0CBFE297A204600F00A
:10508000FFFF2046002100F0A9FE2046302100F05D
:10509000A5FE2046402100F0A1FE6021204600F040
:1050A0009DFE204601F0D4F8297A204600F0E8FF62
:1050B0002046002100F092FE2046262100F08EFEC0
:1050C0002046002100F08AFE6C21204600F086FE7A
:1050D000204601F0BDF8297A204600F0D1FF204695
:1050E000002100F07BFE2046282100F077FE3146AB
:1050F000204600F073FEF221204600F06FFE2046AD
:1051000001F0A6F8297A204600F0BAFF20460021D7
:1051100000F064FE20462C2100F060FE20460F21A6
:1051200000F05CFE2221204600F058FE204601F0EF
:105130008FF8297A204600F0A3FF2046002100F0D6
:105140004DFE20463C2100F049FE2046442100F05F
:1051500045FE4621204600F041FE204601F078F849
:1051600040F23713EB80297A204600F089FF204671
:10517000002100F033FE2046242100F02FFE3146AE
:10518000204600F02BFE3721204600F027FE204667
:1051900001F05EF8297A204600F072FF20460021D7
:1051A00000F01CFE2046302100F018FE2046402171
:1051B00000F014FEFF21204600F010FE204601F012
:1051C00047F8297A204600F05BFF2046002100F0D6
:1051D00005FE2046022100F001FE2046002100F0DD
:1051E000FDFD7321204600F0F9FD204601F030F866
:1051F0004FF4C87006F00CFE297A204600F040FFFC
:105200002046002100F0EAFD20462E2100F0E6FDB8
:1052100020461D2100F0E2FD1D21204600F0DEFDAC
:10522000204601F015F8297A204600F029FF204693
:10523000002100F0D3FD2046042100F0CFFD2046E0
:10524000002100F0CBFD0421204600F0C7FD2046E0
:1052500000F0FEFF297A204600F012FF20460021D0
:1052600000F0BCFD2046062100F0B8FD3146204686
:1052700000F0B4FD3021204600F0B0FD204600F0E3
:10528000E7FF297A204600F0FBFE2046002100F0CF
:10529000A5FD20460A2100F0A1FD2046002100F0D6
:1052A0009DFD1021204600F099FD204600F0D0FF22
:1052B000297A204600F0E4FE2046002100F08EFD11
:1052C00020460E2100F08AFD2046002100F086FDD8
:1052D0000021204600F082FD204600F0B9FF297A27
:1052E000204600F0CDFE2046002100F077FD20464C
:1052F000102100F073FD20463C2100F06FFD3C21A1
:10530000204600F06BFD204600F0A2FF297A2046DF
:1053100000F0B6FE2046002100F060FD204622216C
:1053200000F05CFD20467F2100F058FD7F212046E3
:1053300000F054FD3627204600F08AFF297AEF80DE
:10534000204600F09DFE2046002100F047FD20464B
:10535000242100F043FD2046002100F03FFD3946A6
:10536000204600F03BFD204600F072FF6E72304692
:10537000F8BD00BFD81000200B462DE9F04145498B
:10538000054618460BF0D6FA43490BF0CBF90BF063
:10539000BDFC044600284CD080281FD92B7900245E
:1053A00026462BBB297A3D4800F06AFE00213B4887
:1053B00000F014FD2221394800F010FD3146374835
:1053C00000F00CFD2146354800F008FD334800F0A0
:1053D0003FFFB0FA80F04009BDE8F081C0F18004E1
:1053E0002B7944EA0424C4F30726E4B2002BD9D075
:1053F000EF88297A294827F010074FF00008EF803E
:1054000085F8048000F03CFE4146244800F0E6FCAC
:105410002421224800F0E2FC390A204800F0DEFC9A
:1054200007F0EF011D4800F0D9FC1C4800F010FF08
:10543000B8E701232B71297A184800F021FE214694
:10544000164800F0CBFC2221144800F0C7FC7F2155
:10545000124800F0C3FC7F21104800F0BFFC0F4849
:1054600000F0F6FEEE88297A0C4846F01006B6B237
:10547000EE8000F005FE2146084800F0AFFC242134
:10548000064800F0ABFC310A044800F0A7FCF1B27A
:1054900099E700BF00000143EE7CFF3ED8100020DA
:1054A00070B505460C4619B101293BD0002070BDEE
:1054B000017A424800F0E4FD2146404800F08EFCAD
:1054C00020213E4800F08AFC21463C4800F086FC42
:1054D00055213A4800F082FC384800F0B9FE0646F3
:1054E0000028E3D1EC88297A344844F00404A4B2BB
:1054F000EC8000F0C5FD3146304800F06FFC2421FF
:105500002E4800F06BFC210A2C4800F067FCE1B249
:105510002A4800F063FC294800F09AFEB0FA80F0B7
:10552000400970BD017A254800F0AAFD00212348FA
:1055300000F054FC2A21214800F050FC21461F486D
:1055400000F04CFC73211D4800F048FC1B4800F0A3
:105550007FFE04460028A9D1297A184800F090FD62
:105560002146164800F03AFC2021144800F036FC91
:105570002146124800F032FC8821104800F02EFC31
:105580000E4800F065FE044600288FD1EE88297A87
:105590000A4826F00406EE8000F072FD2146074816
:1055A00000F01CFC2421054800F018FC310A0348D7
:1055B00000F014FC06F0FB01AAE700BFD8100020A1
:1055C00010B5044608F024FB204610BD024A0349EA
:1055D00003480BF02FBD00BFFCEFFF1FC1550000BB
:1055E000301000201B4A1C4B11681C48096970B41C
:1055F00099421279027009D2194A127832B3194AC3
:105600004FF08041116003F5807402E01C46A3F561
:105610008073154A154912680D68AAB1A5B1144ED8
:105620003088402810D841000A44403029440232D2
:105630000231308033F9040B22F8020F9C4233F917
:10564000020C21F8020FF5D870BC704703F5807486
:10565000DFE700BF4010002090E8FF1F1F800040E0
:105660003A10002008E200E0481000203C10002022
:1056700038100020F8B5064608F098F80446E8B15E
:1056800008F094F8054600283AD072B61F4B1A88E5
:105690007F2A19D8002C31D01D490A6842B162B660
:1056A000204608F0D7F82846BDE8F84008F0D2B800
:1056B00018480C601A80056062B6F8BD054672B6DF
:1056C000124B1A887F2AE5D9114A124917681460CB
:1056D00000220C681A800D6062B63946304608F028
:1056E000E3F8384608F0B6F830462146012208F0C3
:1056F000DBF82046BDE8F84008F0ACB862B6F8BD6B
:10570000204608F0A7F82C46BFE700BF381000205D
:10571000481000203C100020F8B5284C284E2046A8
:10572000012108F0D7F900F083F8264B264A2748D4
:105730004FF480611960236800211A6099802279F2
:10574000186102F1804202F5043240F20110D88063
:105750009E614FF48075022006278E26DD82D96077
:10576000DD8398609F8398821170167008F058F955
:105770001749184B2279184F08701A703968227926
:10578000164C174D174E41F0124141F001015311D3
:1057900039609B00206803F1604302F1100703F5B4
:1057A000614302F01F02012140F0104001FA02F2B1
:1057B000206045F827601A60F8BD00BF4010002047
:1057C00000FEFFFF14B00440A0F0024090E7FF1F6E
:1057D0003A1000201B80004080F0024000F00240A0
:1057E00000EAFF1FE5550000024A034903480BF099
:1057F00021BC00BFFCEFFF1FC1550000401000207E
:10580000024A034903480BF015BC00BFFCEFFF1F21
:10581000C15500004C100020024A034903480BF018
:1058200009BC00BFFCEFFF1FC15500005410002051
:10583000284B29491A68294842F400421A600A682C
:1058400042F002020A601A6842F002021A6003681B
:10585000002B3DDB224B1B68002B39DB214A4FF02C
:10586000864313601368002BFCDBF0B51E4C1F4809
:10587000DFF8ACE01E491F4B1F4A204F204E214D40
:1058800047F2320CC4F800C0002404600120CEF8B6
:105890000000DFF890E0C1F800E04FF480311960BB
:1058A000194B1360DFF880E0184A3A6034602860D2
:1058B0001748CEF80000174CB9671748174946F843
:1058C000503C4FF4C0632A61236003600B60F0BD5D
:1058D000704700BF3C8004404080044000F002401C
:1058E00080F0024000F1024004F1024060F002400A
:1058F00008F002400CF0024010F0024014F00240A8
:10590000E0F0024084F002401B0F0100000F0F0F77
:105910000300004708B004400CB0044018B0044035
:1059200004F002400300000788F00240024A0349E5
:1059300003480BF07FBB00BFFCEFFF1FC155000009
:105940005C100020024A034903480BF073BB00BF00
:10595000FCEFFF1FC155000064100020024A0349FC
:1059600003480BF067BB00BFFCEFFF1FC1550000F1
:105970006C100020024A034903480BF05BBB00BFD8
:10598000FCEFFF1FC155000074100020024A0349BC
:1059900003480BF04FBB00BFFCEFFF1FC1550000D9
:1059A0007C10002010B50021044607F097FF98B145
:1059B00094F8F6308BB194F8F43094F8F520013374
:1059C000342BC8BF0023934207D09A1D04EB8202F8
:1059D000DBB2506084F8F43010BDBDE8104007F031
:1059E00039BF00BF90F8F42090F8F530D0B2DBB2A8
:1059F000984238BF3530C01A704700BF38B50546E9
:105A0000D0F8F00020B107F025FF0023C5F8F030F2
:105A100095F8F54095F8F430E4B2DBB29C420ED034
:105A20000134352C28BF0024A31D05EB83035868DF
:105A300007F010FF95F8F430DBB29C42F0D1DBB2F6
:105A400085F8F53038BD00BF0246D0F8F000B0B997
:105A500092F8F53092F8F410DBB28B4210D001339B
:105A6000342B86BF01460B46D9B2063302EB8303C3
:105A70005868C2F8F00082F8F51004307047002032
:105A8000704700BFD0F8F03043B110B50446184657
:105A900007F0E0FE0023C4F8F03010BD704700BFEF
:105AA00010B4047F4160022CC26002D010BC08F028
:105AB000C9B8836810BC1847F0B4464B464A186B07
:105AC000DC6A01791170454922790A709A6A007975
:105AD0000870002A46D05968C9688A423ED82168B1
